:02000004080AE8
:1000000000000A08648C0A080000060006000501CA
:080010000402E80500000000F5
:0400180048800A080A
:1000200009480A4908B5884205D0094A824202D0E7
:10003000121A07F0EBFB0748074A0021121A07F0D3
:10004000F0FB064808BD00BF000000207C8B0A08BA
:10005000C0000020C0000020CC020020CC02002004
:1000600070B502F03BFD074B074C1E46E41AA4088E
:100070000025A54204D056F8253098470135F8E709
:1000800070BD00BF2C8B0A08648B0A0800F0EABB25
:1000900008B500F0F7FABDE8084002F0E1BC02F054
:1000A00043B902F049B90078B0FA80F040097047CE
:1000B000012303707047000008B501F04FFF034BA8
:1000C0001860BDE8084002F007B900BFCC0100206D
:1000D000F0B58FB001F042FF1A4B1B4E1A681F4655
:1000E00082422BD245230093A8220023C02102A8DC
:1000F00003F03CF8154B09AC03AD08930FCD0FC4CA
:100100002B681349237001220023496809A802F0D3
:100110002FF838B902F0FCFB06280CDD02F0F8FBE2
:10012000162808DC0023337001F018FF00F51C507E
:100130001030386002E001233370F5E730780FB0FB
:10014000F0BD00BFF8000020C800002000860A08AB
:10015000AC01002000000000F0B589B001F0FEFE07
:10016000454B464D1A681C4682423BD20A2003F09A
:10017000F9FA40F67363984205DD40F6147398422D
:10018000A8BF184601E040F67460642340F674622C
:1001900040F614710093082302F0F4FB06F008FE09
:1001A00006F0B0F90022364B06F02AFB2EA3D3E965
:1001B000002306F0FBF9064628680F4606F0A2F970
:1001C0002BA3D3E9002306F0F1F902460B46304693
:1001D000394606F039F806F0E1FC286001F0BEFE71
:1001E0006430206001F0BAFE264B1A681E46904229
:1001F00036D9254904A802F02CFA296804A802F08F
:1002000072FA224904A802F04EFA0A2003F0AAFA70
:10021000014604A802F056FA1D4B049A1B781D49AA
:100220008DF8003002A83C2302F0C6FD039C7CB18F
:100230006368013B63605BB9236820469B6898470D
:10024000A368013BA3601BB923682046DB6898477D
:1002500001F084FE00F57A70306004A802F0B2F973
:10026000286809B0F0BD00BF000000A09999B93F0F
:10027000000000CCCCCCEC3FC400002000000020EB
:1002800000005940F40000207A850A085C840A08BE
:10029000F00000205E840A0810B50121132003F04D
:1002A00048FA002422464FF480530321114800F0FD
:1002B000EFFB22464FF4805302210E4800F0E8FB8A
:1002C00022464FF4805301210A4800F0E1FB224608
:1002D0004FF480530021074800F0DAFB0134C820B6
:1002E00002F05CFB0A2CDDD1BDE810400021132098
:1002F00003F01FBACC000020C043C0B254280AD873
:1003000000EB4002A0EB800001380023D2B2194676
:10031000C0B201F0BFBDA9280CD85538C1B2A1EBBD
:100320008102013A01EB41010023D2B2C9B2184661
:1003300001F0B0BD5630C0B2A0EB8001013900EB36
:10034000400000231A46C9B2C0B201F0A3BD0000AC
:100350002DE9F3470546FFF7BBFE80B10024254693
:10036000434801F09EFD844272DA0023A1B2019558
:1003700000951A463E4801F0FDFC0134F0E74FF0CD
:100380007E51284606F0FCFE10B1FFF7E5FE05465B
:1003900001F0E4FD06F094F80022364B06F030FA46
:1003A0002FA3D3E9002306F001F903F0B7FB03F014
:1003B000FFFB2DA3D3E9002305F044FF00222E4BC1
:1003C00006F0F4F806F0EAFB82460024284801F023
:1003D00068FD84423CDA04EBC40006F0E9FC5146B7
:1003E00006F032FC06F024FFC6B23046FFF784FF69
:1003F00080463046FFF780FF81463046FFF77CFF9E
:10040000C0B206F0D5FC294606F026FD06F010FF26
:10041000C7B2C9F3074006F0CBFC294606F01CFD25
:1004200006F006FFC6B2C8F3072006F0C1FC294655
:1004300006F012FD06F0FCFE3A463146C0B201F06D
:1004400024FDA1B202460A4801F0D4FC0134BDE704
:10045000074802B0BDE8F04700F0D2BBAFF3008020
:10046000182D4454FB2109404BEEEA34568BD73FFC
:10047000DC0000200040AF4000005B4000000000B6
:100480002DE9F84301F06AFD06460020FFF760FF02
:100490000121132003F04DF901F060FD41F2873393
:1004A000801B984255D801F059FD801B06F07CFC5A
:1004B000714906F085FD06F025F867A3D3E900230E
:1004C00006F074F803F02AFB02460B4664A1D1E95A
:1004D000000103F0E9FB804689466848002100F0EE
:1004E00027FB00220546664B4046494605F0AAFE1A
:1004F0005DA3D3E9002306F059F806F04FFB06F0A0
:1005000071FE2A460446034600215C4800F0C0FA0A
:1005100001215A4800F00CFB2346024601215748AE
:1005200000F0B6FA0221554800F002FB23460246CD
:100530000221524800F0ACFA0321504800F0F8FACA
:100540002346024603214D4800F0A2FAFFF7B4FD0E
:10055000A2E701F003FD42F20F73801B984256D8C8
:1005600001F0FCFC801B06F01FFC434906F028FD4F
:1005700005F0C8FF38A3D3E9002306F017F803F00D
:10058000CDFA02460B4636A1D1E9000103F08CFBFF
:1005900004460D4602F0BCF900220746384B2046BF
:1005A000294605F04FFE30A3D3E9002305F0FEFFF6
:1005B00006F0F4FA06F016FE0A240546034697FBF9
:1005C000F4F200212D4800F063FA02F0A1F990FB4B
:1005D000F4F22B4602FB14020121284800F058FADD
:1005E00002F0A0F92B4690FBF4F20221234800F020
:1005F0004FFA02F097F990FBF4F22B4602FB14023B
:1006000003211E4800F044FAFFF756FDA1E7002140
:10061000132003F08EF84FF4FA7002F0BFF90024B3
:10062000FFF79AFD0146204606F0B4FD88B120464A
:10063000FFF78EFE0A2002F0B1F9204605F062FFB6
:100640000BA3D3E9002305F0FFFD06F0A7FA04464B
:10065000E6E7BDE8F88300BF182D4454FB210940AC
:1006600090F7AA9509BF05400000000000A0A24035
:10067000FCA9F1D24D62503F00401C46CC00002046
:100680000000F03F08B5FFF717FD02F04BF93B28DB
:1006900003D102F051F937280CD002F04DF9372878
:1006A00002D1FFF715FD50B1BDE808404FF07E5074
:1006B000FFF74EBEFFF7F0FDFFF7E2FEF4E7FFF7AE
:1006C000DFFEF1E72DE9F04FADF2144D01928046C7
:1006D0008B464FF480625E4904A8002407F096F828
:1006E00025465C4501DB002570E0002600275948BF
:1006F00001F0D7FB87423DDA564801F0D2FB3B02BE
:1007000093FBF0F03044C0B2FFF7F6FD8246284676
:1007100006F04EFB504906F053FC81465FFA8AF022
:1007200006F046FB494606F097FB06F05BFDC2B2B9
:10073000CAF30740039206F03BFB494606F08CFBE8
:1007400006F050FDC3B2CAF30720029306F030FB57
:10075000494606F081FB06F045FD029B039A1946C7
:10076000C0B201F092FBB9B202463A4801F042FB36
:100770000137BCE744B9284606F01AFB374906F0B2
:1007800009FD08B101350BE00BF1FF339C4207D1A5
:10079000304606F00DFB324906F01AFD00B1013D6E
:1007A0002C4800F02DFA0136404602F0F7F8B6F575
:1007B000807F9BD1013494E7404602F0EFF8254852
:1007C00000F01EFA14F1FF3426D20135019B9D4240
:1007D00039DA002400261F4801F063FBB7B28742D4
:1007E00006F101060DD2002204AB114613F82430A5
:1007F000104601F04FFB39460246164801F0FAFA5E
:10080000E9E7404602F0CAF80134124800F0F8F96E
:10081000B4F5807FDED1FF2400260E4801F041FBB5
:10082000B7B2874206F10106C6D2002204AB1146D8
:1008300013F82430104601F02DFB394602460548D6
:1008400001F0D8FAE9E70DF2144DBDE8F08F00BFD2
:100850005C800A08DC0000200000C8420000C6429C
:1008600000001B43F0B59DB002F0EEFC4FF41651B2
:1008700002F0DEFC0121132002F04AFF2F4800F0B5
:1008800085F82F4800F085F92D4800F0B9F9FFF7F9
:1008900003FD012204210320FFF714FF002001F0D3
:1008A00075FB4EF65F26044600250027002001F068
:1008B0006DFB001B61EB05018F4208BF864205D32B
:1008C00001F0FEFF10B901F007FDEFE701F0F8FFBE
:1008D00002F046F802280CDD02F042F8032804D0AA
:1008E00002F03EF80B2804DC07E002F02FF808289D
:1008F000F6DC144801F0C8FF0AE002F031F80B28DA
:1009000003D102F023F80028F3DC0F4801F0BCFF0C
:10091000FFF7B6FD6C22002101A806F082FF00223D
:100920000123114601A8019301F06AFC002211463F
:1009300001A8109201F05CFC1DB0F0BDCC000020BD
:10094000DC0000200000E0C00000C0C010B50B4B70
:1009500001241C7001F0B2FA2046094C002101F07C
:1009600027FC022204212046062300F037F9204606
:10097000BDE81040034A044902F064BFF0000020C3
:10098000DC000020C00000203F0B0A0808B502F080
:1009900033FF244902F09AFD02F02EFF02F09AFD87
:1009A00002F02AFF702102F09FFD02F025FF03688C
:1009B00000219B68984702F01FFF036831219B6864
:1009C000984702F019FF02F096FD02F015FF702122
:1009D00002F08AFD02F010FF0368FE219B68984731
:1009E00002F00AFF036803219B68984702F004FFA6
:1009F00002F081FD02F000FF702102F075FD02F0AF
:100A0000FBFE036800219B68984702F0F5FE03682F
:100A100021219B68984702F0EFFEBDE8084002F0F4
:100A20006ABD00BF801A0600F7B50E4607460A25C4
:100A300075430023019310238DF8073002F0DCFE8C
:100A400057F82630114C2B4414F8131002F048FDCF
:100A500002F0D2FE57F826301D4404EB45046178BD
:100A60000368890006319B6801F0FE01984702F097
:100A7000C3FE03680422DB680DEB0201984702F015
:100A8000BBFE02F038FD03B0F0BD00BF69840A0868
:100A90002DE9F3411C4650F82130074693420D469C
:100AA000164601D0FFF7C0FF0023B4F5805F019325
:100AB00006DB9DF8053043F010038DF805300DE09E
:100AC00034B99DF8073043F010038DF8073005E086
:100AD000BDF8063064F30B03ADF806304FF00A089A
:100AE00008FB0568114C02F087FE14F8181002F09C
:100AF000F7FC02F081FE04EB48046178036889008A
:100B000006319B6801F0FE01984702F075FE03680C
:100B10000422DB680DEB0201984702F06DFE02F043
:100B2000EAFC47F8256002B0BDE8F08169840A0854
:100B300050F82100704701F0C1B901F007BA10B5B3
:100B40000446C06808B101F0F7FB23781BB100210F
:100B5000E07902F0DDFD204610BD38B50446C068DE
:100B60000D4608B101F0E8FBA379062B0CBF042069
:100B70000320684380B2A08001F0D6FBE06028B17A
:100B8000A288002106F04DFE658038BDA0806080FF
:100B900038BD10B504460121C07902F0B9FD00212D
:100BA000E07902F0C6FD0123237010BD38B503784B
:100BB00005460C461BB10021C07902F0A9FD2B7837
:100BC000EC7153B1A4B22046012102F0A1FD2046F0
:100BD000BDE83840002102F0ACBD38BD70B5044618
:100BE00016460025837105700572C5600561FFF723
:100BF000B4FF20463146FFF7D9FF204670BD000004
:100C0000C368002B00F08E852DE9F04104468379FE
:100C100086B0023BDBB2042B96BF294A322552F83C
:100C20002350FFF78AFF2369C01AA842F9D372B68E
:100C3000A179A3880229ADF80A30D4F80CE000F0BD
:100C40007282072900F06F82062900F0328405299C
:100C500000F0AB83082900F0A883002940F06385E9
:100C6000184A4FF40006BDF80A309BB2002B00F082
:100C700095830496BDF80A300EF10305033B9BB241
:100C8000ADF80A309EF80030DBB28DF807309EF8E0
:100C90000130DBB28DF806309EF80230DBB28DF801
:100CA00008309DF807709DF806309DF808001B027B
:100CB00043EA0743034303938DF805101BE100BF8C
:100CC000BC840A08FC000020004600BF00BF00BF33
:100CD00000BF00BF00BF00BF00BF00BF00BF00BF1C
:100CE00000BF00BF00BF00BF00BF00BF00BF00BF0C
:100CF00000BF00BF00BF00BF00BF00BF00BF00BFFC
:100D000000BF00BF00BF00BF00BF00BF00BF00BFEB
:100D100000BF00BF00BF00BF00BF00BF00BF00BFDB
:100D200000BF00BF00BF00BF00BF00BF00BF00BFCB
:100D300000BF00BF00BF00BF00BF00BF00BF00BFBB
:100D400000BF00BF00BF00BF00BF00BF00BF00BFAB
:100D500000BF00BF00BF00BF00BF00BF00BF00BF9B
:100D600000BF00BF00BF00BF00BF00BF00BF00BF8B
:100D700000BF00BF00BF00BF00BF00BF00BF00BF7B
:100D800000BF00BF00BF00BF00BF00BF00BF00BF6B
:100D900000BF00BF00BF00BF00BF00BF00BF00BF5B
:100DA00000BF00BF00BF00BF00BF00BF00BF00BF4B
:100DB00000BF00BF00BF00BF00BF00BF00BF00BF3B
:100DC00000BF00BF00BF00BF00BF00BF00BF00BF2B
:100DD000E3791068C3EBC30300EB8307BF8850F8C7
:100DE00023305F83004600BF00BF00BF00BF00BFCD
:100DF00000BF00BF00BF00BF00BF00BF00BF00BFFB
:100E000000BF00BF00BF00BF00BF00BF00BF00BFEA
:100E100000BF00BF00BF00BF00BF00BF00BF00BFDA
:100E200000BF00BF00BF00BF00BF00BF00BF00BFCA
:100E300000BF00BF00BF00BF00BF00BF00BF00BFBA
:100E400000BF00BF00BF00BF00BF00BF00BF00BFAA
:100E500000BF00BF00BF00BF00BF00BF00BF00BF9A
:100E600000BF00BF00BF00BF00BF00BF00BF00BF8A
:100E700000BF00BF00BF00BF00BF00BF00BF00BF7A
:100E800000BF00BF00BF00BF00BF00BF00BF00BF6A
:100E900000BF00BF00BF00BF00BF00BF00BF00BF5A
:100EA00000BF00BF00BF00BF00BF00BF00BF00BF4A
:100EB00000BF00BF00BF00BF00BF00BF00BF00BF3A
:100EC00000BF00BF00BF00BF00BF00BF00BF00BF2A
:100ED00000BF00BF00BF00BF00BF00BF00BF049B3A
:100EE0005B0804939DF805300133DBB2172B8DF8B6
:100EF000053000F2DB82E3791068C3EBC30300EB3B
:100F00008307BF8850F823301F830398049B18423F
:100F10007FF4DAAE004600BF00BF00BF00BF00BFD5
:100F200000BF00BF00BF00BF00BF00BF00BF00BFC9
:100F300000BF00BF00BF00BF00BF00BF00BF00BFB9
:100F400000BF00BF00BF00BF00BF00BF00BF00BFA9
:100F500000BF00BF00BF00BF00BF00BF00BF00BF99
:100F600000BF00BF00BFE3791068C3EBC30300EB11
:100F70008307BF8850F823305F83004600BF00BF5F
:100F800000BF00BF00BF00BF00BF00BF00BF00BF69
:100F900000BF00BF00BF00BF00BF00BF00BF00BF59
:100FA00000BF00BF00BF00BF00BF00BF00BF00BF49
:100FB00000BF00BF00BF00BF00BF00BF00BF00BF39
:100FC00000BF00BF00BF00BF00BF00BF00BF00BF29
:100FD00000BF00BF00BF00BF00BF00BF00BF00BF19
:100FE00000BF00BF00BF00BF00BF00BF00BF00BF09
:100FF00000BF00BF00BF00BF00BF00BF00BF00BFF9
:1010000000BF00BF00BF00BF00BF00BF00BF00BFE8
:1010100000BF00BF00BF00BF00BF00BF00BF00BFD8
:1010200000BF00BF00BF00BF00BF00BF00BF00BFC8
:1010300000BF00BF00BF00BF00BF00BF00BF00BFB8
:1010400000BF00BF00BF00BF00BF00BF00BF00BFA8
:1010500000BF00BF00BF00BF00BF00BF00BF00BF98
:1010600000BF00BF00BF00BF00BF00BF00BF00BF88
:1010700000BF00BF00BF00BF00BF00BF00BF00BF78
:1010800000BF00BF00BF00BF00BF00BF00BF00BF68
:1010900000BF00BF00BF00BF00BF00BF00BF00BF58
:1010A00000BF00BF00BF00BF00BF00BF00BF00BF48
:1010B00000BF00BF00BF00BF00BF00BF00BF00BF38
:1010C00000BF00BF00BF00BF00BF00BF00BF00BF28
:1010D00000BF00BF00BF00BF00BF00BF00BF00BF18
:1010E00000BF00BF00BF00BF00BF00BF00BF00BF08
:1010F00000BF00BF00BF00BF00BF00BF00BF00BFF8
:1011000000BF00BF00BF00BF00BF00BF00BF00BFE7
:1011100000BF00BF00BF00BF00BF00BF00BF00BFD7
:1011200000BF00BFDBE6BDF80A30174A9BB24FF4A0
:1011300000050026002B00F031810495BDF80A302F
:101140000EF10301033B9BB2ADF80A309EF800306C
:10115000DBB28DF806309EF80130DBB28DF8073037
:101160009EF80230DBB28DF808309DF806309DF80D
:1011700007009DF80870000240EA03433B430393D5
:101180008DF8056080E000BFFC000020004600BF35
:1011900000BF00BF00BF00BF00BF00BF00BF00BF57
:1011A00000BF00BF00BF00BF00BF00BF00BF00BF47
:1011B00000BF00BF00BF00BF00BF00BF00BF00BF37
:1011C00000BF00BF00BF00BF00BF00BF00BF00BF27
:1011D00000BF00BF00BF00BF00BF00BF00BF00BF17
:1011E00000BF00BF00BF00BF00BF00BF00BF00BF07
:1011F00000BF00BF00BF00BF00BF00BF00BF00BFF7
:1012000000BF00BF00BF00BF00BF00BF00BF00BFE6
:1012100000BF00BF00BF00BF00BF00BF00BF00BFD6
:1012200000BF00BF00BFE3791068C3EBC30300EB4E
:101230008307BF8850F823305F83004600BF00BF9C
:1012400000BF00BF00BF00BF00BF00BF00BF00BFA6
:1012500000BF00BF00BF00BF00BF00BF00BF00BF96
:1012600000BF00BF00BF00BF00BF00BF00BF00BF86
:10127000049B5B0804939DF805300133DBB2172B08
:101280008DF8053000F28380E3791068C3EBC30367
:1012900000EB8307BF8850F823301F830398049B1B
:1012A00018427FF473AF004600BF00BF00BF00BF0D
:1012B00000BF00BF00BF00BF00BF00BF00BF00BF36
:1012C00000BF00BF00BF00BF00BF00BF00BFE37989
:1012D0001068C3EBC30300EB8307BF8850F82330CB
:1012E0005F83004600BF00BF00BF00BF00BF00BF5C
:1012F00000BF00BF00BF00BF00BF00BF00BF00BFF6
:1013000000BF00BF00BF00BF00BF00BF00BF00BFE5
:1013100000BF00BF00BF00BF00BF00BF00BF00BFD5
:1013200000BF00BF00BF00BF00BF00BF00BF00BFC5
:1013300000BF00BF00BF00BF00BF00BF00BF00BFB5
:1013400000BF00BF00BF00BF00BF00BF00BF00BFA5
:1013500000BF00BF00BF00BF00BF00BF00BF00BF95
:1013600000BF00BF00BF00BF00BF00BF00BF00BF85
:1013700000BF00BF00BF00BF00BF00BF00BF00BF75
:1013800000BF00BF00BF00BF00BF00BF70E7BDF8D7
:101390000A308E469BB2002B7FF4CFAE62B6FFF7C9
:1013A000CCFB206106B0BDE8F0815E4B5E4A18467A
:1013B00011684FF400080027BDF80A2092B2002AF5
:1013C000ECD0CDF81080BDF80A200EF10305033AE9
:1013D00092B2ADF80A209EF80020D2B28DF8062015
:1013E0009EF80120D2B28DF807209EF80220D2B2DA
:1013F0008DF808209DF806209DF807E09DF808C0AC
:101400004FEA0E2E4EEA024242EA0C0203928DF897
:101410000570E2795E68C2EBC20201EB820EBEF893
:1014200004E051F822200596A2F818E0039E049AE1
:10143000164223D05A68059E921B4F2AFAD9E279A8
:10144000C2EBC20201EB820EBEF804E051F822208A
:10145000A2F81AE0426805925A68059E921B072A74
:10146000FAD9049A520804929DF805200132D2B2AA
:10147000172A8DF80520CCD9AE469DE75A68059EFF
:10148000921B182AFAD9E279C2EBC20201EB820E52
:10149000BEF804E051F82220A2F81AE04268059252
:1014A0005A68059E921B452AFAD9DAE7AE46FFF73D
:1014B000DABB1D4A4FF000450026BDF80A309BB24A
:1014C000002B3FF46BAF0495BDF80A300EF1040118
:1014D000043B9BB2ADF80A309EF80030DBB28DF8C9
:1014E00007309EF80130DBB28DF806309EF80230EE
:1014F000DBB28DF808309EF80330DBB28DF809308E
:101500009DF807309DF806709DF808E03F049DF8AF
:10151000090047EA0363034343EA0E2303938DF86C
:1015200005607EE0001000E0FC000020004600BFE7
:1015300000BF00BF00BF00BF00BF00BF00BF00BFB3
:1015400000BF00BF00BF00BF00BF00BF00BF00BFA3
:1015500000BF00BF00BF00BF00BF00BF00BF00BF93
:1015600000BF00BF00BF00BF00BF00BF00BF00BF83
:1015700000BF00BF00BF00BF00BF00BF00BF00BF73
:1015800000BF00BF00BF00BF00BF00BF00BF00BF63
:1015900000BF00BF00BF00BF00BFE3791068C3EB0E
:1015A000C30300EB8307BF8850F823305F830046F6
:1015B00000BF00BF00BF00BF00BF00BF00BF00BF33
:1015C00000BF00BF00BF00BF00BF00BF00BF00BF23
:1015D00000BF00BF00BF00BF00BF00BF00BF00BF13
:1015E00000BF00BF00BF00BF00BF00BF00BF00BF03
:1015F00000BF00BF00BF00BF00BF00BF00BF00BFF3
:1016000000BF00BF00BF00BF00BF00BF049B5B085E
:1016100004939DF805300133DBB21F2B8DF80530A4
:101620007ED8E3791068C3EBC30300EB8307BF8860
:1016300050F823301F830398049B18427FF476AF41
:10164000004600BF00BF00BF00BF00BF00BF00BF1B
:1016500000BF00BF00BF00BF00BF00BF00BF00BF92
:1016600000BF00BF00BF00BFE3791068C3EBC30336
:1016700000EB8307BF8850F823305F83004600BF2C
:1016800000BF00BF00BF00BF00BF00BF00BF00BF62
:1016900000BF00BF00BF00BF00BF00BF00BF00BF52
:1016A00000BF00BF00BF00BF00BF00BF00BF00BF42
:1016B00000BF00BF00BF00BF00BF00BF00BF00BF32
:1016C00000BF00BF00BF00BF00BF00BF00BF00BF22
:1016D00000BF00BF00BF00BF00BF00BF00BF00BF12
:1016E00000BF00BF00BF00BF00BF00BF00BF00BF02
:1016F00000BF00BF00BF00BF00BF00BF00BF00BFF2
:1017000000BF00BF00BF00BF00BF00BF00BF00BFE1
:1017100000BF00BF00BF00BF00BF00BF00BF75E734
:101720008E46CAE67047032900F02E811E4A4FF408
:1017300000050026BDF80A309BB2002B3FF42EAE08
:101740000495BDF80A30E079033B9BB2ADF80A304E
:101750009EF800300EF10301DBB28DF807309EF8E1
:101760000130C0EBC000DBB28DF808309EF80230CB
:10177000D2F800E0DBB28DF806309DF807709DF8D6
:1017800008300EEB800C1B0243EA07439DF80670FD
:10179000BCF804C05EF820003B4303938DF805605D
:1017A000A0F81AC07DE000BFFC000020049B5B088D
:1017B0000493004600BF00BF00BF00BF00BF00BFD2
:1017C00000BF00BF00BF00BF00BF00BF00BF00BF21
:1017D00000BF00BF00BF00BF00BF00BF00BF00BF11
:1017E00000BF00BF00BF00BF00BF00BF00BF00BF01
:1017F00000BF00BF00BF00BF00BF00BF00BF00BFF1
:1018000000BF00BF00BF00BF00BF00BF00BF00BFE0
:1018100000BF00BF00BF00BF00BF00BF00BF00BFD0
:1018200000BF00BF00BF00BF00BF00BF00BF00BFC0
:1018300000BF00BF00BF00BFE07917689DF805300A
:10184000C0EBC00007EB800EBEF804E057F82000A4
:101850000133DBB28DF80530A0F818E0004600BF78
:1018600000BF00BF00BF00BF00BF00BF00BF00BF80
:1018700000BF00BF00BF00BF00BF00BF00BF00BF70
:1018800000BF00BF00BF9DF80530182B7AD0E37968
:101890001068C3EBC30300EB8307BF8850F8233005
:1018A0005F830398049B184280D1004600BF00BFAD
:1018B00000BF00BF00BF00BF00BF00BF00BF00BF30
:1018C00000BF00BF00BF00BF00BF00BFE3791068CA
:1018D000C3EBC30300EB8307BF8850F823301F839B
:1018E0009DF805300133DBB28DF80530049B5B08B1
:1018F0000493004600BF00BF00BF00BF00BF00BF91
:1019000000BF00BF00BF00BF00BF00BF00BF00BFDF
:1019100000BF00BF00BF00BF00BF00BF00BF00BFCF
:1019200000BF00BF00BF00BF00BF00BF00BF00BFBF
:1019300000BF00BF00BF00BF00BF00BF00BF00BFAF
:1019400000BF00BF00BF00BF00BF00BF00BF00BF9F
:1019500000BF00BF00BF00BF00BF00BF00BF00BF8F
:1019600000BF00BF00BF00BF00BF00BF00BF00BF7F
:1019700000BF00BF00BF00BF00BF00BF9DF8053023
:10198000182B84D18E46D5E6174A4FF40005002661
:10199000BDF80A309BB2002B3FF400AD0495BDF8B2
:1019A0000A300EF10301033B9BB2ADF80A309EF8FA
:1019B0000030DBB28DF807309EF80130DBB28DF8D5
:1019C00006309EF80230DBB28DF808309DF80770C3
:1019D0009DF806309DF808001B0243EA07430343C5
:1019E00003938DF80560E0E0FC000020004600BF96
:1019F00000BF00BF00BF00BF00BF00BF00BF00BFEF
:101A000000BF00BF00BF00BF00BF00BF00BF00BFDE
:101A100000BF00BF00BF00BF00BF00BF00BF00BFCE
:101A200000BF00BF00BF00BF00BF00BF00BF00BFBE
:101A300000BF00BF00BF00BF00BF00BF00BF00BFAE
:101A400000BF00BF00BF00BF00BF00BF00BF00BF9E
:101A500000BF00BF00BF00BF00BF00BF00BF00BF8E
:101A600000BF00BF00BF00BF00BF00BF00BF00BF7E
:101A700000BF00BF00BF00BF00BF00BF00BF00BF6E
:101A800000BF00BF00BF00BF00BF00BF00BF00BF5E
:101A900000BF00BF00BF00BF00BF00BF00BF00BF4E
:101AA00000BF00BF00BF00BF00BF00BF00BF00BF3E
:101AB00000BF00BF00BF00BF00BF00BF00BF00BF2E
:101AC00000BF00BF00BF00BF00BF00BF00BF00BF1E
:101AD00000BF00BF00BF00BF00BF00BF00BF00BF0E
:101AE00000BF00BF00BF00BF00BF00BF00BF00BFFE
:101AF00000BF00BF00BF00BF00BF00BF00BF00BFEE
:101B000000BF00BF00BF00BF00BF00BF00BFE37940
:101B10001068C3EBC30300EB8307BF8850F8233082
:101B20005F83004600BF00BF00BF00BF00BF00BF13
:101B300000BF00BF00BF00BF00BF00BF00BF00BFAD
:101B400000BF00BF00BF00BF00BF00BF00BF00BF9D
:101B500000BF00BF00BF00BF00BF00BF00BF00BF8D
:101B600000BF00BF00BF00BF00BF00BF00BF00BF7D
:101B700000BF00BF00BF00BF00BF00BF00BF00BF6D
:101B800000BF00BF00BF00BF00BF00BF00BF00BF5D
:101B900000BF049B5B0804939DF805300133DBB262
:101BA000172B8DF8053000F2E380E3791068C3EB62
:101BB000C30300EB8307BF8850F823301F830398CB
:101BC000049B18427FF412AF004600BF00BF00BF65
:101BD00000BF00BF00BF00BF00BF00BF00BF00BF0D
:101BE00000BF00BF00BF00BF00BF00BF00BF00BFFD
:101BF00000BF00BF00BF00BF00BF00BF00BF00BFED
:101C000000BF00BF00BF00BF00BF00BF00BF00BFDC
:101C100000BF00BF00BF00BF00BF00BF00BF00BFCC
:101C200000BF00BF00BF00BF00BF00BF00BF00BFBC
:101C300000BF00BF00BF00BF00BF00BF00BF00BFAC
:101C400000BF00BF00BF00BF00BFE3791068C3EB57
:101C5000C30300EB8307BF8850F823305F8300463F
:101C600000BF00BF00BF00BF00BF00BF00BF00BF7C
:101C700000BF00BF00BF00BF00BF00BF00BF00BF6C
:101C800000BF00BF00BF00BF00BF00BF00BF00BF5C
:101C900000BF00BF00BF00BF00BF00BF00BF00BF4C
:101CA00000BF00BF00BF00BF00BF00BF00BF00BF3C
:101CB00000BF00BF00BF00BF00BF00BF00BF00BF2C
:101CC00000BF00BF00BF00BF00BF00BF00BF00BF1C
:101CD00000BF00BF00BF00BF00BF00BF00BF00BF0C
:101CE00000BF00BF00BF00BF00BF00BF00BF00BFFC
:101CF00000BF00BF00BF00BF00BF00BF00BF00BFEC
:101D000000BF00BF00BF00BF00BF00BF00BF00BFDB
:101D100000BF00BF00BF00BF00BF00BF00BF00BFCB
:101D200000BF00BF00BF00BF00BF00BF00BF00BFBB
:101D300000BF00BF00BF00BF00BF00BF00BF00BFAB
:101D400000BF00BF00BF00BF00BF00BF00BF00BF9B
:101D500000BF00BF00BF00BF00BF00BF00BF00BF8B
:101D600000BF00BF00BF00BF00BF00BF00BF10E743
:101D70008E460DE6F0B545889DF814408D429DF8DD
:101D800018E036D9057A65B16A436B436C4305FBAD
:101D90000EF5C2F30722C3F30723C4F30724C5F3E8
:101DA000072E8579C668062D0CBF04200320414309
:101DB000082D06EB010019D80127AF4017F4D27F98
:101DC0000AD17D060CD4FD0610D5FF2A08BFFE22DD
:101DD000725444708370F0BD735442708470F0BDCF
:101DE00072544370847080F803E0F0BD7254437005
:101DF0008470F0BD4388F0B58B4245D9057AC2F3B3
:101E00000743C2F30724D6B245B16B436C436E431C
:101E1000C3F30723C4F30724C6F3072690F806C0CC
:101E2000C768BCF1060F0CBF042503256943BCF14C
:101E3000080F07EB010524D84FF0010E0EFA0CFE37
:101E40001EF4D27F0CD11EF0400F0DD11EF0100FEA
:101E500017D0FF2B08BFFE237B546E70AC70F0BD13
:101E60007C546B70AE70F0BD7B546C70AE70037AB6
:101E7000120E0BB9D2B202E05A43C2F30722EA7043
:101E8000F0BD7B546C70AE70F0BD42EA012242EAB4
:101E90000040704742EA012242EA004040EA036003
:101EA000704740887047000008B500F007F800F060
:101EB00005F8014B186008BDFC00002008B5024B76
:101EC0001B681B68019308BDB001060808B5024BEA
:101ED0001B685B68019308BDB001060808B5024B9A
:101EE0001B689B68019308BDB001060808B5024B4A
:101EF0001B68DB68019308BDB001060808B5024BFA
:101F00001B681B69019308BDB001060808B5024BA8
:101F10001B681B6B019308BDB001060808B5024B96
:101F20001B68DB69019308BDB401060808B5024BC4
:101F30001B681B6A019308BDB401060808B5024B73
:101F40001B685B68019308BD9C01060808B5024B3D
:101F50001B681B69019308BD9C01060808B5024B6C
:101F60001B685B69019308BD9C01060808B5024B1C
:101F70001B68DB69019308BD9C01060808B5024B8C
:101F80001B689B6D019308BD9C01060808B5024BB8
:101F90001B68DB6D019308BD9C01060808B5024B68
:101FA0001B685B6C019308BDD001060808B5024BA5
:101FB0001B689B6C019308BDD001060808B5024B55
:101FC0001B689B69019308BDC401060808B5024B54
:101FD0001B685B6A019308BDC401060808B5024B83
:101FE0001B689B6A019308BDC401060808B5024B33
:101FF0001B68DB6A019308BDC401060808B5024BE3
:102000001B681B6B019308BDC401060808B5024B91
:102010001B685B6B019308BDC401060808B5024B41
:102020001B689B6B019308BDC401060808B5024BF1
:102030001B681B6C019308BDC401060808B5024B60
:102040001B681B6C019308BDAC01060808B5024B68
:102050001B68DB6C019308BDAC01060808B5024B98
:102060001B689B6D019308BDAC01060808B5024BC7
:102070001B68DB6D019308BDAC01060808B5024B77
:102080001B681B6E019308BDAC01060808B5024B26
:102090001B685B6E019308BDAC01060808B5024BD6
:1020A0001B689B6E019308BDAC01060808B5024B86
:1020B0001B68DB6E019308BDAC01060808B5024B36
:1020C0001B681B6F019308BDAC01060808B5024BE5
:1020D0001B685B6F019308BDAC01060808B5034B94
:1020E0001B68D3F88030019308BD0000AC010608DE
:1020F00008B5024B1B681B68019308BDD801060890
:1021000008B5024B1B685B68019308BDD80106083F
:1021100008B5024B1B681B69019308BDD80106086E
:1021200008B5024B1B685B69019308BDD80106081E
:1021300008B5024B1B689B69019308BDD8010608CE
:1021400008B5024B1B68DB69019308BDD80106087E
:1021500008B5024B1B681B6A019308BDD80106082D
:1021600008B5024B1B689B6C019308BDC0010608B3
:1021700008B5024B1B68DB6C019308BDC001060863
:1021800008B5024B1B681B68019308BDA401060833
:1021900008B5024B1B685B68019308BDA4010608E3
:1021A00008B5024B1B685B69019308BDA4010608D2
:1021B00008B5024B1B68DB6A019308BDA401060841
:1021C00008B5024B1B68DB6C019308BDA40106082F
:1021D00008B5024B1B685B6D019308BDA40106089E
:1021E00008B5024B1B689B6D019308BDA40106084E
:1021F00008B5024B1B689B6F019308BDA40106083C
:1022000008B5024B1B68DB6F019308BDA4010608EB
:1022100008B5034B1B68D3F89030019308BD00004C
:10222000A401060808B5034B1B68D3F89C30019342
:1022300008BD0000A401060808B5024B1B685B68D6
:10224000019308BDC801060808B5024B1B689B68CE
:10225000019308BDC801060808B5024B1B68DB687E
:10226000019308BDC801060808B5024B1B681B692D
:10227000019308BDC801060808B5024B1B685B69DD
:10228000019308BDC801060808B5024B1B689B698D
:10229000019308BDC801060808B5024B1B68DB693D
:1022A000019308BDC801060808B5024B1B681B6AEC
:1022B000019308BDC801060808B5024B1B681B6BDB
:1022C000019308BDC801060808B5024B1B685B6B8B
:1022D000019308BDC801060808B5024B1B689B683E
:1022E000019308BDCC01060808B5024B1B685B6969
:1022F000019308BDCC01060808B5024B1B681B6A98
:10230000019308BDCC01060808B5024B1B681B6B86
:10231000019308BDCC01060808B5024B1B68DB6BB6
:10232000019308BDCC01060808B5024B1B681B6869
:10233000019308BDA001060808B5024B1B685B6845
:10234000019308BDA001060808B5024B1B689B68F5
:10235000019308BDA001060808B5024B1B689B69E4
:10236000019308BDA001060808B5024B1B68DB6A93
:10237000019308BDA001060808B5024B1B681B6B42
:10238000019308BDA001060808B5024B1B68DB6B72
:10239000019308BDA001060870B504460E4600254D
:1023A00040F8085FFFF7FAFD30462670FFF7B6FDEC
:1023B0006560204670BD0078FFF7B8BD10B50446D3
:1023C000006818B1FFF7B8FF0023236010BD10B5F7
:1023D0000446FFF7F3FF204610BD00004FF6FF73E1
:1023E00010B5084C00202060A080A071208163817E
:1023F000FFF7CEFE2046BDE81040034A034901F036
:1024000021BA00BF00010020C0000020CF230A082D
:1024100010B5044605F063FA0138231820469842A7
:1024200006D20278197800F8011B03F80129F6E7B3
:1024300010BD931E232B2DE9F041154634BF1546E0
:102440000A258CB000230A2D0C468DF82C3007D1BC
:10245000984205DA2D2301F101080B70404201E09A
:10246000A8B1A0460DF12B0601272A46014601A876
:1024700005F0B8F9029A0198092ACCBF3723302316
:10248000134406F8013901370028EED106E0A046D2
:1024900030238DF82B300DF12A0602273A46711CA5
:1024A000404605F0B3F920460CB0BDE8F08170B5A8
:1024B0000C46911E222920D82546294610B92344CE
:1024C00030220EE0B0FBF2F602FB1600C1B2092882
:1024D00005F8011B94BF3031573105F8011C304617
:1024E000EBE7994202D201F8012BFAE700232046DC
:1024F0000B70FFF78DFF204670BD002070BD0000FF
:102500002DE9F14F80460D4617461E460022002356
:102510004046294604F0BCFA20B12D23337005F162
:1025200000450136002301240A22D9B28F4202D984
:1025300054430133F9E7204603F0D2FF42462B46CD
:1025400004F034F882468B4604F0AAFE80468946A1
:1025500003F0F6FF02460B465046594603F072FE62
:102560000022174B04F0A8FA18B118F1010849F13C
:102570000009E51722462B464046494604F078FEFE
:1025800001230A223146FFF792FFAFB1304605F032
:10259000A6F92E2333540130064422462B464046EA
:1025A000494604F065FE3B46104631460A2201B01A
:1025B000BDE8F04FFFF77BBF01B0BDE8F08F00BF73
:1025C0000000E03F10B504460068FFF7B5FE204666
:1025D00010BD10B50446006808B1FFF7ADFE00233A
:1025E0002360A360636010BD38B504460D460068E3
:1025F0000131FFF7A9FE10B184E82100012038BDA8
:1026000010B50368044613B143688B4207D22046D5
:10261000FFF7EAFF20B1A3680BB92268137001200D
:1026200010BD70B50E46114604461546FFF7E8FF8B
:1026300018B92046FFF7CDFF09E02A463146A560CC
:10264000206805F0E3F82268A3680021D1542046F1
:1026500070BD38B500230446036043608360037394
:102660000D4639B1084605F03AF92946024620469A
:10267000FFF7D7FF204638BD70B504460E4609B9AE
:10268000002070BD6AB18368D5182946FFF7B8FFEE
:102690000028F5D02068A3683146184405F0FCF8FE
:1026A000A560012070BD38B505460C46084641B10D
:1026B00005F015F9214602462846BDE83840FFF7E7
:1026C000DBBF38BD1FB504460A22084601A9FFF743
:1026D000B0FE01A805F003F901A902462046FFF764
:1026E000CBFF04B010BD10B5044686B0084603F019
:1026F00009FF01AB0622FFF703FF01A805F0EFF881
:1027000001A902462046FFF7B7FF06B010BDF8B595
:1027100006460D468F180024BD420CD0336815F8CC
:10272000011B9B6830469847002801DB0444F3E70F
:10273000002C08BF04462046F8BD70B505460C467F
:10274000084649B105F0CBF82B68024621462846D9
:10275000BDE87040DB68184770BD03689B68184788
:10276000012A98BF0A2230B50B468BB000218DF8A4
:1027700024100DF12304B3FBF2F505FB1233DBB299
:10278000092B94BF30333733DBB2214604F80139CB
:102790002B46002DEFD1FFF7D0FF0BB030BD00234B
:1027A0001A4619464068FFF767BD38B50468054604
:1027B0007CB16368013B63605BB9236820469B681A
:1027C0009847A368013BA3601BB923682046DB68D8
:1027D0009847284638BD0B68036013B15A68013228
:1027E0005A607047014A024B1A60704746850A08D2
:1027F0000C010020F0B5144B144F1E68144B064416
:1028000018683B6806449E428BB01BD00AA840F86B
:10281000286D04F0EFFE0446436901AD03F26C73CA
:1028200043610FCC0FC50FCC0FC5D4F800E0094CA5
:10283000C5F800E001AD0FCD0FC40FCD0FC43E6051
:10284000C4F800E00BB0F0BD400100203C010020C6
:10285000380100201001002008B50020FFF754FDCA
:1028600028B1FFF741FD80F00100C0B208BD012092
:1028700008BD000008B5FFF7BDFF024B1869013025
:1028800008BD00BF1001002010B50949044604F03E
:1028900081FC60B90749204604F09AFC38B9064922
:1028A000204604F0D9FA04F09DFC044B186010BDDA
:1028B000000040C10000604100006145400100206F
:1028C00010B50020FFF75AFB044668B9FFF758FC23
:1028D00001280BD12046FFF783FC38B9FFF7BCFF76
:1028E00030B9FFF7F9FCF9E7012010BD002010BD59
:1028F000FFF7B2FF0020FFF741FB003018BF0120B7
:1029000010BD08B5FFF7DCFFBDE80840FFF72EBBA0
:1029100008B5FFF7F6FFFFF76DFF014B986808BD9C
:102920001001002008B5FFF7ECFFFFF763FF014B34
:10293000586808BD1001002008B5FFF7E2FFFFF757
:1029400059FF014B186808BD1001002008B5FFF7BA
:10295000D8FFFFF74FFF014BD86808BD10010020DA
:1029600008B5FFF7CEFFBDE80840FFF783BF0000C2
:10297000024B1A68024B1A60704700BF0400002027
:10298000340100208A4230B507D0039D441AED1A65
:102990006C43521A94FBF2F4E01830BD0021FFF7AB
:1029A000FFBB10B58368044613B103220146984764
:1029B000204610BD10B50446FFF7F3FF204610BDBA
:1029C00013B50B46044603C88DE8030093E80300E3
:1029D00084E803009DE8030083E8030002B010BD13
:1029E000034800238360034A034900F02BBF00BF64
:1029F00044010020C0000020B5290A0808B5144B86
:102A000033B100F021FC03681B699847002816DCED
:102A1000104B33B100F0C8FC03681B6998470028CD
:102A200010DC0D4B0BB1AFF300800C4B7BB100F011
:102A300039FC03681B699847002806DC08BDAFF322
:102A40000080E5E7AFF30080EBE7AFF3008008BD5F
:102A50000000000000000000000000000000000076
:102A600008B5FFF7CBFFFFF779FA014B186008BDF7
:102A7000CC0100200248034A0349121A04F0C6BEE2
:102A80000040024004400240788B0A0807B500234A
:102A900000931A466FF07701FFF7C4FB03B05DF8AF
:102AA00004FB000007B543880A2B08D0502B09D13E
:102AB000094B1B683BB103B05DF804EB1847FFF707
:102AC000E5FF06E0002300931A466FF07701FFF759
:102AD000A9FB03B05DF804FB5401002038B5104C8D
:102AE000104D2368AB42104B0CBF012200221A701C
:102AF00002D0FFF7BFFF2560FFF720FA044604F07D
:102B000099FE0A4B13B12046AFF30080002107481D
:102B1000FFF702FCBDE8384000210548FFF778BB0D
:102B2000004002401E1C279A5801002000000000AF
:102B3000A52A0A0870470020704710B504461021E6
:102B400000F08EFE204610BD08B508B1FFF7F5FF76
:102B500008BD002202604FF69C72828010B5B1F968
:102B6000044084808A8002680C6804600A6010BD9A
:102B700010B504460068FFF7DFFB204610BD38B5EE
:102B8000C468F4B12378022B03D104F10C00FFF7E1
:102B9000EFFF656835B12846FFF703FF102128468F
:102BA00000F05EFEA56835B12846FFF7FAFE102159
:102BB000284600F055FE2046BDE83840142100F0BC
:102BC0004FBE38BD13B5044691E8050000234B60A5
:102BD0000B602060626001A801930093FFF7E5FDA0
:102BE000204602B010BDF7B50C4606460F4654F815
:102BF000043B02AD45F8083D214601A8FFF7EBFD77
:102C000029463046FFF7DEFF01A8FFF7CEFD20463C
:102C1000FFF7CBFD3846082100F022FE304603B016
:102C2000F0BD000038B500230446036010200D46B7
:102C3000FDF735FA28B1012343608360024BC5607C
:102C400003602060204638BDE4850A08826810B51C
:102C50000AB900F018FEC368BDE81040184708B56F
:102C6000006800F11001FFF7F1FF08BD826810B5A0
:102C70000AB900F008FEC368BDE81040184708B55F
:102C8000006800F11001FFF7F1FF08BD38B500231F
:102C900083608B6804460D462BB102229847EB688F
:102CA000E360AB68A360204638BD0000F0B589B092
:102CB00004686846FFF74DFF4FF0020200238DF8CD
:102CC0000830D4E84F3F002B03D1C4E8412F00293E
:102CD000F7D102D08DF8083063E014F10C0503D071
:102CE00069462846FFF735FFBFF35F8F0123637006
:102CF000BFF35F8F04F10803002053E8006F43E83F
:102D00000002002AF9D1BFF35F8F002E49D0FFF7F0
:102D100057FA20B129463046FFF798FF3AE031468E
:102D200002A8FFF7B3FFE068B4F9105008B104F04F
:102D3000BBFD06901020ADF81C50FDF7B0F905461C
:102D4000E8B1002787601820FDF7A9F9044688B18B
:102D50000146876002A8FFF733FE049BA268A360C8
:102D6000059B0492E26806A9E36004F11000059255
:102D7000FFF7EFFE0D4B2C60EB600D4BAB6006A830
:102D8000FFF7F6FE02A8FFF70CFE002229460948CD
:102D9000FFF71EFA3046FFF704FE1021304600F020
:102DA0005FFD6846FFF7E4FE09B0F0BD5F2C0A083E
:102DB000D52E0A0829340A082DE9F04F8BB00646B3
:102DC0000F46904699469DF850A0FFF78DFA07AD43
:102DD000834630BB4FF62E73059005A92846ADF803
:102DE0001830FFF7B6FE1420FDF759F9044658B124
:102DF0000223037001234370C0F804B0C0F808B088
:102E000029460C30FFF7A5FE3046214640F8044B1A
:102E1000FFF708FF2846FFF7ABFE05A8FFF7A8FE5F
:102E200052E000240C2314206C60AC600793FDF783
:102E300036F9014618B1047044704460846004A8F7
:102E40000391FFF7EFFE224B08200893FDF727F9C7
:102E5000044628B1039B04A940F8043BFFF7BBFCE0
:102E600000955FFA8AF34A46414638460994FFF7CF
:102E700043FA20B9039B5B7803F0FF0283B1039B05
:102E800004A906A80593FFF7A6FC05A93046FFF79D
:102E900099FE06A8FFF789FC04A8FFF786FC13E05B
:102EA0004FF69C7305A903A80592ADF81830FFF7FB
:102EB000FDFE05A8FFF75CFE05A80999FFF793FE44
:102EC00006A8FFF772FCDAE730460BB0BDE8F08FDA
:102ED00045300A08022AF8B5044606D0032A17D05E
:102EE000012A22D10B6803601FE018200E68FDF74D
:102EF000D6F8054650B13146FFF7C8FE3069B6F93D
:102F0000147008B104F0D0FC2861AF8225600CE099
:102F1000046854B104F11000FFF72AFE2046FFF7C1
:102F200040FD1821204600F09BFC0020F8BD38B57C
:102F3000002383608B6804460D462BB1022298471C
:102F4000EB68E360AB68A360204638BD022A70B529
:102F5000044606D0032A11D0012A18D10B68036059
:102F600015E014200E68FDF79AF8054620B13146A9
:102F7000FFF7DDFF337C2B74256008E0046834B173
:102F80002046FFF70EFD1421204600F069FC0020CA
:102F900070BD0000F0B50C46BFF35F8F87B0002313
:102FA00050E8006F40E80032002AF9D1BFF35F8F8C
:102FB000002E3FD01846FFF703F9074620B12146FF
:102FC0003046FFF753FE2EE0314601A8FFF7AFFF72
:102FD000237810208DF81430FDF761F80546D0B144
:102FE00087601420FDF75BF8044678B187600146DE
:102FF00001A8FFF7E5FC039BA268A360049B039272
:10300000E268E3609DF81430049223740A4B2C604C
:10301000EB600A4BAB6001A8FFF7C3FC0022294616
:103020000748FFF7D5F83046FFF7BBFC10213046C4
:1030300000F016FC07B0F0BD7F2C0A084D2F0A08DF
:1030400029340A0830B5044685B00D466846114655
:10305000FFF7C9FD7CB124B228460DB104F024FC71
:10306000029002A96846ADF80C40FFF71FFE02A8C7
:10307000FFF77EFD1DE04FF0010200988DF808403B
:10308000D0E84F3FA34203D1C0E8412F0029F7D138
:1030900002D08DF808300CE010F10C014FF0010364
:1030A00018BF0373BFF35F8F043000F8033CFFF7D2
:1030B00071FF01A8FFF779FB05B030BD704710B56F
:1030C0000446182100F0CCFB204610BDF8B50F4691
:1030D00000F10806051D002416F8011D0A223846D5
:1030E000FFF73EFBAE42044407D0002CF4D02E2163
:1030F0003846FFF732FB0444EEE72046F8BD0000F7
:1031000010B50446044B112240F8043B002104F0A2
:1031100088FB204610BD00BF00860A080346074A08
:1031200010B543F8042B01F1100251F8044B914201
:1031300043F8044BF9D10A781A7010BD00860A08CA
:10314000024A4160026004220275704700860A0844
:1031500010B59DF8084044EA032343EA024242EADC
:10316000016104234160037510BD000037B5044DB3
:1031700005609DF818500095FFF7EAFF03B030BDD9
:1031800000860A0841747047704708B50021007C2A
:10319000FEF7CEFF30EA200028BF4FF0FF3008BD19
:1031A00008B50121007CFEF7C3FF30EA200028BFEC
:1031B0004FF0FF3008BD08B5007CFEF7B1FF20EAF4
:1031C000E07008BD08B5007CFEF7A2FF20EAE070C1
:1031D00008BD007CFEF7BCBF10B50446142100F00A
:1031E0003FFB204610BD38B50446007C0D46FEF777
:1031F00097FF002801DC607C28B12946207CFEF77F
:103200009FFF20EAE07038BD10B5044600236360DC
:103210004FF47A73A360054B0846236001232174A1
:1032200063741146FEF764FF204610BD14860A0839
:103230000022007CFEF764BF10B504461422002172
:1032400004F0EFFA204610BD30B50E4D87B001A84E
:10325000FFF7F2FF296811F0010410D12846FCF7AE
:1032600022FF60B101AA21460748FFF7CDFF28469B
:10327000FCF71EFF054A0649034800F0E3FA02483E
:1032800007B030BD5C01002064010020C0000020B8
:1032900089310A0810B504461422002104F0C1FA4D
:1032A000204610BD10B50E4C86B001A8FFF7F2FF06
:1032B0002368DB0710D42046FCF7F5FE60B101AAB5
:1032C00001210848FFF7A0FF2046FCF7F1FE064A5F
:1032D0000649044800F0B6FA024806B010BD00BF27
:1032E0006001002078010020C000002089310A0818
:1032F00070474174704708B5007CFEF797FE20EADE
:10330000E07008BD08B5007CFEF768FE20EAE070BA
:1033100008BD08B5007CFEF771FE30EA200028BF2A
:103320004FF0FF3008BD08B5007CFEF75FFE30EAC5
:10333000200028BF4FF0FF3008BD007CFEF766BEBE
:1033400010B50446142100F08BFA204610BD70B56C
:10335000457C04460E4625B9007CFEF767FE002832
:1033600005DD3146207CBDE87040FEF72FBE2846C3
:1033700070BD000010B50446084611460022626088
:103380004FF47A72A260054A2074226001226274AE
:103390001A46FEF713FE204610BD00BF44860A08F9
:1033A000007CFEF73BBE0000F8B5194C25684DB90E
:1033B0008420FCF774FE064618B18422294604F0E6
:1033C00030FA2660134D2E684EB98420FCF767FE54
:1033D000074618B18422314604F023FA2F600E4FBD
:1033E000396811F0010611D13846FCF75CFE68B16E
:1033F000226831462B680948FFF7BCFF3846FCF7C6
:1034000057FE074A0749054800F01CFA0348F8BD73
:10341000A8010020A0010020A40100208C010020B0
:10342000C0000020F1320A0810B5836804460BB9C9
:1034300000F029FAC3689847A3681BB1032221460C
:10344000204698472046BDE81040102100F008BAF9
:103450007047F8B5064615460C468F18BC4206D094
:10346000336814F8011B9B6830469847F6E72846F6
:10347000F8BD0022007CFEF701BE0021007CFEF7B3
:1034800005BE0021007CFEF709BE0021007CFEF78E
:103490000DBE0021007CFEF711BE10B504461421BC
:1034A00000F0DEF9204610BD10B50446002363602D
:1034B0004FF47A73A360044B2174084623601146CD
:1034C000FEF70CFE204610BD74860A080022007C20
:1034D000FEF7B4BD00231A461946007CFEF7B6BDC0
:1034E0000022007CFEF7BABDC9B2FFF7F9BF002287
:1034F000007CFEF7BBBD0121FFF7F9BF0021007C76
:10350000FEF7E4BD002211464068FEF7ADBEF0B5FF
:10351000164689B011220F460446002103A804F084
:1035200080F9304604F0DBF90025009581B27B6814
:1035300003AA3046FEF714FE20B129462046FFF7C5
:10354000FFFD03E003A92046FFF7E8FD204609B090
:10355000F0BD002211464068FEF7A6BE00221146CB
:103560004068FEF7B1BE00224068FEF7A5BE00220B
:1035700081F001014068FEF78FBE00231A4619460C
:103580004068FEF781BE002211464068FEF75CBE2F
:10359000002202214068FEF75FBE00231A46406801
:1035A000FEF74ABE024B04225A60024A1A60704774
:1035B000AC0100209C860A0800231A464068FEF7EA
:1035C0003BBE002202214068FEF746BE00221146A3
:1035D0004068FEF739BE002211464068FEF744BE3F
:1035E00000231A4619464068FEF746BE00231A46D5
:1035F00019464068FEF748BE002281F0010140688C
:10360000FEF74ABE00224068FEF756BE0022114671
:103610004068FEF759BE002211464068FEF744BEDE
:1036200070B516468EB0044608A8FFF769FD112252
:10363000002103A804F0F5F8304604F050F9002505
:103640000A4B009581B25B6803AA3046FEF788FDFD
:1036500020B129462046FFF773FD03E003A9204669
:10366000FFF75CFD20460EB070BD00BFAC0100202E
:10367000024B034A1A6000225A607047B4010020CE
:10368000D0860A0810B50446806808B1FEF78EFCA3
:10369000204610BD70B51A4E0446316811F0010580
:1036A0000FD13046FCF7FFFC58B129461548FEF70C
:1036B00073FE3046FCF7FCFC134A1449114800F035
:1036C000C1F81048FEF777FE28B1A4F10D03022BD4
:1036D00001D8002070BD00F08FF8FFF70FFF08B190
:1036E000012CF6D9FFF760FEFFF75AFE18B1A4F1DE
:1036F0001203012BEDD9172C8CBF0020012070BDC7
:10370000BC010020C0010020C000002085360A084E
:10371000172838B504460D460AD8FF2908D0FFF708
:10372000B9FF28B129462046BDE83840FEF7D6BB90
:1037300038BD38B504460D46FEF7D8FBFF2810D03B
:10374000062804D84D2323FA00F0C30709D42046E5
:10375000FFF7A0FF28B129462046BDE83840FEF714
:10376000CDBB38BD10B5044609289CBF0A34A4B2AD
:103770002046FFF78FFF50B103212046FEF7A6FB3E
:10378000032804D12046BDE81040FEF7BFBB00204F
:1037900010BD000013B5084C00231A4619460093CB
:1037A0002046FFF7E3FC2046044A054902B0BDE885
:1037B000104000F047B800BFD0010020C00000203A
:1037C000BD300A0870B5044614252A46094E00216A
:1037D00004F027F8258020253146A560256128467C
:1037E00000F040F831466060284600F03BF8E060A9
:1037F000204670BDFC860A0830B50E4D87B029689A
:1038000011F0010413D12846FCF74DFC78B101A852
:10381000FFF7D8FF01AA21460748FFF745FE2846D3
:10382000FCF746FC054A0649034800F00BF802483D
:1038300007B030BDE8010020EC010020C0000020EE
:1038400051340A080B460146184603F0C5BE000075
:10385000024B1868BFF35F8F704700BF0002002063
:10386000FCF71FBC00F000B810B5002814BF0446D8
:1038700001242046FEF758FD20B9FFF7E9FF08B103
:103880008047F6E710BD08B5FEF76EFD184B1A68C5
:10389000D1075CBF01221A60164B1A68D2075CBFC1
:1038A00001221A60144B1A68D0075CBF01221A600B
:1038B000124B1A68D1075CBF01221A60104B1A68BC
:1038C000D2075CBF01221A600E4B1A68D0075CBF9A
:1038D00001221A600C4B1A68D1075CBF01221A60E2
:1038E0000A4B1A68D2075CBF01221A60704700BFFA
:1038F000200200201C0200201802002014020020D8
:10390000100200200C020020080200200402002007
:10391000244B1A68D0075CBF01221A60224B1A6838
:10392000D1075CBF01221A60204B1A68D2075CBF26
:1039300001221A601E4B1A68D0075CBF01221A6070
:103940001C4B1A68D1075CBF01221A601A4B1A6817
:10395000D2075CBF01221A60184B1A68D0075CBFFF
:1039600001221A60164B1A68D1075CBF01221A6047
:10397000144B1A68D2075CBF01221A60124B1A68F6
:10398000D0075CBF01221A60104B1A68D1075CBFD8
:1039900001221A600E4B1A68D2075CBF01221A601E
:1039A000704700BF500200204C0200204802002057
:1039B00044020020400200203C0200203802002087
:1039C00034020020300200202C02002028020020B7
:1039D00024020020244B1A68D0075CBF01221A6021
:1039E000224B1A68D1075CBF01221A60204B1A686B
:1039F000D2075CBF01221A601E4B1A68D0075CBF59
:103A000001221A601C4B1A68D1075CBF01221A60A0
:103A10001A4B1A68D2075CBF01221A60184B1A6849
:103A2000D0075CBF01221A60164B1A68D1075CBF31
:103A300001221A60144B1A68D2075CBF01221A6077
:103A4000124B1A68D0075CBF01221A60104B1A682B
:103A5000D1075CBF01221A600E4B1A68D2075CBF07
:103A600001221A60704700BF800200207C02002003
:103A70007802002074020020700200206C020020F6
:103A80006802002064020020600200205C02002026
:103A90005802002054020020184B1A68D1075CBF5E
:103AA00001221A60164B1A68D2075CBF01221A6005
:103AB000144B1A68D0075CBF01221A60124B1A68B7
:103AC000D1075CBF01221A60104B1A68D2075CBF95
:103AD00001221A600E4B1A68D0075CBF01221A60DF
:103AE0000C4B1A68D1075CBF01221A600A4B1A6896
:103AF000D2075CBF01221A60704700BFA0020020FD
:103B00009C020020980200209402002090020020D5
:103B10008C020020880200208402002030B5214A57
:103B200021F00043934287B01BDD1F4A934205DD1D
:103B300002460B4602F086FB07B030BD02AA01F038
:103B400027F900F0030001281ED0022811D0DDE97A
:103B5000042300B3DDE9020101F0F6FB01F10041AD
:103B6000EAE7002300930022002302F00DF907B0DA
:103B700030BD01230093DDE90201DDE9042302F0F9
:103B800003F901F10041D7E7DDE90423DDE9020192
:103B900001F0DAFBD0E70124DDE90201009402F034
:103BA000F3F8C9E7FB21E93FFFFFEF7F00000000CA
:103BB0002DE9F0438BB006460F4600F00DFADFF812
:103BC000E480044698F900300D46013337D0304682
:103BD000394602F093F9002831D02BA3D3E9002312
:103BE0003046394602F072FF814668BB28A3D3E90C
:103BF00000233046394602F04BFF00B398F90030FD
:103C0000254C002000210422022BCDF82090CDE984
:103C10000467CDE90267CDE906018DE814002CD0D8
:103C2000684602F0F9F940B3089B1BB1FEF7ACFB04
:103C3000089B0360DDE906010BB0BDE8F083204678
:103C400029460BB0BDE8F083134898F900300321F2
:103C50000022CDE90467CDE9026701900091089246
:103C60002BB90E4B4FF06042CDE90623D8E70C4943
:103C70000020022BCDE90601D2D1FEF785FB2223DD
:103C80000360D1E7AFF30080EF39FAFE422E8640A1
:103C900051302DD5104987C000870A08FFFFEF4734
:103CA0000000F07F080000202DE9F04F8DB006469F
:103CB0000F4614461D4600F007FBDFF81093CDE9D0
:103CC000000199F90080B8F1FF3F46D022462B460B
:103CD0002046294602F004FF834600283DD13246A3
:103CE0003B463046394602F0FBFE8246002874D13E
:103CF000304639460022002302F0C0FE002833D0AF
:103D0000002200232046294602F0B8FE8346B8B1BF
:103D1000A94A012300200021CDF828A0CDE904679D
:103D2000CDE90645CDE9080103920293B8F1000FF1
:103D30006CD0A24B0022104619460DB0BDE8F08FA2
:103D40002046294602F0DAF838B100220023204646
:103D5000294602F09DFE00286AD1DDE900231046C5
:103D600019460DB0BDE8F08FDDE9000102F0C6F89C
:103D7000804600287DD0DDE900014FF0000A4FF0B9
:103D8000000B52465B4602F079FE0028E5D0304633
:103D9000394602F0B3F80028DFD02046294602F069
:103DA000ADF80028D9D099F90030834804210022C9
:103DB000022BCDE90467CDE90645CDE908AB0390B8
:103DC00002910A9204D002A802F026F9002847D1F5
:103DD000FEF7DAFA2223036042E0002200232046A5
:103DE000294602F04BFE0028B7D0744B72480022DF
:103DF0000121B8F1020FCDF828B0CDE90467CDE973
:103E00000645CDE9082303900291A8D002A802F04C
:103E100003F900287ED00A9B43B3FEF7B5FADDE92B
:103E200008230A990160104619460DB0BDE8F08FCD
:103E3000614999F900300122CDF828B0CDE9046735
:103E4000CDE9064503910292002B68D05C49002021
:103E5000022BCDE9080166D1FEF796FA2123036013
:103E60000A9B1BB1FEF790FA0A9B0360DDE9082369
:103E700075E73046394602F041F800283FF47BAF41
:103E80002046294602F03AF800283FF474AFDDE9F5
:103E900000231046194602F023FE00286FD1464B3E
:103EA00099F90080039303230A90CDE90467CDE9D3
:103EB00006450293B8F1000F3BD1DFF814B14FF083
:103EC000604A0022002330463946CDE908AB02F0B3
:103ED000DFFD00283FF477AF00223A4B2046294609
:103EE00002F064FB04460D4602F09EF802460B46C3
:103EF0002046294602F0C2FD00283DD1324B4FF04A
:103F00006042CDE9082399F90080B8F1020F7FF4EF
:103F10005AAF5DE7FEF738FA212303607BE7002301
:103F20000024CDE9083402A802F076F8002897D1E1
:103F300092E7DFF8A0B04FF0000A002200233046DD
:103F40003946CDE908AB02F0A3FD0028DDD0002200
:103F50001C4B2046294602F029FB04460D4602F080
:103F600063F802460B462046294602F087FD18B941
:103F7000134B0022CDE9082399F90080C5E70E4ACA
:103F800099F900900123CDF82880CDE90467CDE9A7
:103F9000064503920293B9F1000FC0D0002200231E
:103FA0001046194602F02CFCB9F1020FCDE90801C8
:103FB0003FF452AFB7E700BF04870A080000F03FA4
:103FC0000000F0FF0000E03FFFFFEFC70800002007
:103FD000FFFFEF470000F07F2DE9F04FB04F21F0D9
:103FE0000042BA4283B00C464FEAD17605460DD95D
:103FF000AC4FBA4225D9C1F31303034340F0EF801D
:104000000EB10020014603B0BDE8F08FA64B9A42E6
:1040100000F2CC80A54B9A4200F2DE808AA3D3E95D
:10402000002302F011F90022A14B02F04FFD0028FD
:1040300000F005812846214600229D4B02F004F93C
:10404000E1E783A3D3E9002302F040FD002840F01C
:10405000CB8081A3D3E900232846214602F018FD36
:104060000028CED17EA3D3E90023924F284607EB48
:10407000C608214602F09AFAD8E9002302F0E4F8D3
:1040800002F044FD804602F02BFA77A3D3E9002327
:1040900006460F4602F08AFA02460B46284621469B
:1040A00002F0D0F872A3D3E90023CDE90001304635
:1040B000394602F07BFA82468B46DDE90001524622
:1040C0005B4602F0BFF805460C462A4623462846C2
:1040D000214602F06BFA68A3D3E9002306460F4697
:1040E00002F064FA66A3D3E9002302F0ABF832468B
:1040F0003B4602F05BFA64A3D3E9002302F0A4F884
:1041000032463B4602F052FA61A3D3E9002302F0A3
:1041100099F832463B4602F049FA5FA3D3E90023FF
:1041200002F092F832463B4602F040FA02460B4655
:104130002846214602F086F806460F4628462146C4
:1041400032463B46B8F1000F56D002F02FFA324605
:1041500004460D463B4600204FF0804102F072F8C5
:1041600002460B462046294602F04AFB02460B4611
:104170005046594602F066F8DDE9002302F062F885
:104180000B4602464A49002002F05CF86FF47F7348
:1041900098454FDA08F57A7801EB085100224FF084
:1041A000B87302F003FA03B0BDE8F08F424B9A42B5
:1041B0003FF658AF414BF4002344D3E9002302F00B
:1041C00041F83F4BC6F101081C44CDE90001D4E998
:1041D00000ABC6EB080870E74FF0000875E7024631
:1041E0000B4602F031F80EE717A3D3E9002310467F
:1041F000194602F0DBF906E702F0D8F90022804602
:1042000089464FF080433046394602F01BF802469B
:104210000B464046494602F0F3FA2A46234602F08E
:1042200011F802460B460020214902F00BF803B0BA
:10423000BDE8F08F01EB085103B0BDE8F08F804678
:1042400043E700BFAFF300809C7500883CE4377EF5
:10425000EF39FAFE422E864051302DD5104987C0E5
:10426000FE822B654715F73F0000E0FE422EE63F39
:10427000763C7935EF39EA3DD0A4BE726937663EA7
:10428000F16BD2C541BDBB3E2CDE25AF6A56113F56
:1042900093BDBE166CC1663F3E5555555555C53F3D
:1042A000412E8640FFFFEF7F422ED63FFFFF2F3E7D
:1042B0000000F03F08870A08B1A2F03F28870A08EB
:1042C00018870A08000000002DE9F04F23F000488D
:1042D00058EA020993B03CD0714C21F00046A64246
:1042E00083460D460CDD06F1404606F5801656EA7B
:1042F0000B0038D183466B49584613B0BDE8F08FA8
:104300009A4696462BD0A045EDDC654CA04578D06A
:10431000002D0F468146CDE9002376DB0024BEF157
:10432000000F27D15E4B984500F08B805D4B984580
:1043300052D0BAF1804F00F0C9835B4B9A4519D136
:10434000002D17DB4846394613B0BDE8F04F00F0AA
:1043500035BFCB465846534913B0BDE8F08F00280F
:10436000C1D1B045D1DD514813B0BDE8F04F01F0E7
:1043700055BE00244846394601F0BCFDBBF1000F94
:104380001CD0ED0F013D54EA050370D0484B984511
:1043900040F3948003F10473984540F30D84454B3A
:1043A0009E4270DDBAF1000F70DD3BA3D3E900231C
:1043B0001046194602F0FAF883469DE726B1394BBC
:1043C00025F040429A42DCD1BAF1000FC0F2B78327
:1043D000002D08DB83468FE7BAF1000FC0F25E8440
:1043E000CB46394688E706F1404606F5801656EA80
:1043F000040300F08384012CECD101F100418346D9
:104400007AE7BEF1000F83D06DE72B4B98452CDC8B
:10441000A3F15473984581DD4FEA2853A3F2FF338B
:10442000142B40F35384C3F134032EFA03F202FA3F
:1044300003F39E457FF472AF02F00102C2F1020461
:104440006DE706F1404303F5801353EA0B0300F0D8
:104450003A83184B9E4240F36783BAF1000F15DB95
:10446000DDE900349B46214646E7022457E74A46E9
:1044700048463B46394601F0E5FE02460B4602F04F
:10448000BFF9834638E7BAF1000F8EDB4FF0000B1F
:10449000594631E7AFF300809C7500883CE4377ED5
:1044A0000000F07F0000F03F0000E03F38870A087E
:1044B0000000E041FFFFEF3FFFFF3F43B6F5801FE5
:1044C0004FF0000205DAD04B02F070F80E466FF0A4
:1044D0003402DFF844E33315C6F31306A3F2FF33C7
:1044E00046F07F57764503EB020A47F4401740F346
:1044F000C983C64B00229E4240F304840023CDE9C9
:104500000823CDE90C23C24B0022CDE906230AF192
:10451000010AA7F5801700263946DDE90623CDE913
:104520000A0101F08FFEDDE9062380468946DDE9B8
:104530000A0101F089FE02460B460020B44902F050
:104540005FF90A4601461346CDE90E120246494676
:10455000404602F02BF88C4683467B1043F0005314
:1045600003F5002399190020CDE904BC06460F4647
:104570004FF0000B6146584632463B46CDE910BC31
:10458000CDE9020102F012F802460B4640464946C8
:1045900001F058FEDDE9062380468946304639465B
:1045A00001F050FE02460B46DDE90A0101F04AFE29
:1045B000DDE9022301F0FAFF02460B464046494678
:1045C00001F040FEDDE90E2301F0F0FFDDE90478A3
:1045D000CDE906013A4643463846414601F0E6FF3A
:1045E00077A3D3E9002306460F4601F0DFFF76A349
:1045F000D3E9002301F028FE32463B4601F0D6FF06
:1046000073A3D3E9002301F01FFE32463B4601F0BD
:10461000CDFF71A3D3E9002301F016FE32463B46DD
:1046200001F0C4FF6EA3D3E9002301F00DFE324672
:104630003B4601F0BBFF6CA3D3E9002301F004FE6D
:104640003246804689463B463046394601F0AEFF49
:1046500002460B464046494601F0A8FFDDE9022329
:1046600006460F46DDE9040101F0EEFDDDE9062313
:1046700001F09CFF32463B4601F0E6FDDDE90267B2
:104680008046894632463B463046394601F08EFF29
:104690000022604BCDE90A0101F0D6FD42464B46AF
:1046A00001F0D2FDDDE910BC0F46DDE902015A46FA
:1046B0003B46CDE90EBC5E4601F078FF0022CDE915
:1046C0000201544B3046394601F0BCFDDDE90A23B6
:1046D00001F0B8FD02460B464046494601F0B2FDE6
:1046E000DDE9042301F062FF324680468946DDE9B8
:1046F00006013B4601F05AFF02460B46404649463A
:1047000001F0A2FD8046894602460B46DDE9020122
:1047100001F09AFDDDE90EBC35A3D3E9002358462C
:10472000CDE906BC5E460F4601F040FFDDE90223FD
:10473000CDE904013046394601F084FD02460B46BE
:104740004046494601F07EFD2BA3D3E9002301F04A
:104750002DFF2BA3D3E900238046894630463946F6
:1047600001F024FF02460B464046494601F06CFD2D
:10477000DDE90C2301F068FD80465046894601F0D2
:10478000AFFE06460F46DDE9040142464B4601F006
:104790005BFDDDE9082301F057FD32463B4601F0A1
:1047A00053FDDDE906BC324658463B46DA468B46A9
:1047B00001F048FDDDE9082330E000BFAFF30080E1
:1047C000EF4E454A287ECA3F65DBC9934A86CD3FF6
:1047D00001411DA96074D13F4D268F515555D53FDC
:1047E000FFAB6FDBB66DDB3F033333333333E33F74
:1047F000000000E009C7EE3FFD033ADC09C7EE3FC9
:10480000F5015B14E02F3EBE0000404379B60B007B
:104810000000F03F000008408E98030001F012FDF8
:10482000DDE9042301F00EFD02460B4640464946F1
:1048300001F008FD80468946DDE90012013C54EA9A
:10484000050314BFD64CD74C0023CDE904340B46E6
:104850001446CDE9023400230293DDE902450846FF
:104860002B461146224601F0EDFC52465B4601F014
:104870009DFEDDE9002306460F464046494601F00D
:1048800095FE02460B463046394601F0DDFC0646F1
:104890000F4622462B4650465946CDE9006701F0A7
:1048A00085FE0B460246804689463046394601F071
:1048B000CBFCBD4B064699420D460C4640F30E819B
:1048C00001F13F4303F5E003034340F0F081A0A36F
:1048D000D3E90023DDE9000101F0B6FC424682463F
:1048E0008B464B463046294601F0ACFC02460B464F
:1048F0005046594602F0EAF8002840F0D8812F4689
:104900003B154FF48012A3F2FE3342FA03F3234423
:10491000C3F30A52A54EA2F2FF321641C3F3130BA2
:104920000020C2F1140523EA06014BF4801B024665
:104930000B46002C4BFA05FB40464946B8BFCBF16D
:10494000000B01F07FFC02460B4680468946DDE9FC
:10495000000101F079FC4FEA0B5A00247EA3D3E951
:10496000002320460D4601F021FE424606460F4632
:104970004B462046294601F065FC02460B46DDE920
:10498000000101F05FFC76A3D3E9002301F00EFEE5
:1049900075A3D3E90023804689462046294601F0C5
:1049A00005FE02460B464046494601F04DFC804656
:1049B000894602460B463046394601F045FC3246F0
:1049C0003B4604460D4601F03DFC02460B46404680
:1049D000494601F037FC2246804689462B46204650
:1049E000294601F0E3FD62A3D3E9002306460F4602
:1049F00001F0DCFD60A3D3E9002301F023FC324683
:104A00003B4601F0D3FD5EA3D3E9002301F01CFC7B
:104A100032463B4601F0CAFD5BA3D3E9002301F017
:104A200011FC32463B4601F0C1FD59A3D3E90023F6
:104A300001F00AFC32463B4601F0B8FD02460B4647
:104A40002046294601F0FEFB06460F4602460B466D
:104A50002046294601F0AAFD0022CDE900014FF0D1
:104A600080433046394601F0EDFB02460B46DDE956
:104A7000000101F0C5FE424606460F464B46204661
:104A8000294601F093FD42464B4601F0DDFB02460C
:104A90000B463046394601F0D5FB22462B4601F045
:104AA000D1FB02460B4600203D4901F0CBFB8A4476
:104AB000BAF5801FC0F237815146DDE9042301F0C9
:104AC00075FD834618E4F346354915E44A464846E1
:104AD0003B46394601F06AFD83460DE4344B21F034
:104AE00000479F4240F30181324B0B4403430CD1FA
:104AF00042464B4601F0A6FB02460B46DDE90001AB
:104B000001F0D0FF00283FF4FBAE23A3D3E900233C
:104B1000DDE9040101F04AFD1FA3D3E9002301F000
:104B200045FD8346FFF7E8BBBAF1000FBFF6AEAC18
:104B3000DDE900349B4604F10041FFF7DDBB02468E
:104B40000B460020164901F05BFE41E4AFF3008004
:104B5000FE822B654715973C00000000432EE63F80
:104B6000EF39FAFE422EE63F396CA80C615C20BE9C
:104B7000D0A4BE726937663EF16BD2C541BDBB3E63
:104B80002CDE25AF6A56113F93BDBE166CC1663F41
:104B90003E5555555555C53F59F3F8C21F6EA501F1
:104BA0000000F03F0000F0BFFFFF8F40FFFF0F004D
:104BB000FFCB904000346F3F6F4B9E427FF763AC5A
:104BC0006E4B9E423FF7EEAB00226C4B01F03AFB7E
:104BD0005BA3D3E9002306460F4601F0E7FC5AA386
:104BE000D3E90023804689463046394601F0DEFC91
:104BF000002282468B46624B3046394601F0D6FC95
:104C000002460B4652A1D1E9000101F01BFB3246DE
:104C10003B4601F0CBFC02460B460020594901F00F
:104C200011FB3246CDE902013B463046394601F0E0
:104C3000BDFC02460B46DDE9020101F0B7FC46A3CC
:104C4000D3E9002301F0B2FC02460B465046594618
:104C500001F0F8FA02460B4606460F464046494622
:104C600001F0F2FA42464B46002082468B4601F0A4
:104C7000E9FA02460B463046394601F0E3FA80462F
:104C80008946D9E500220023CDE90823CDE90C238C
:104C90003A4B00220026CDE906233DE44A463B4636
:104CA0000020364901F0ACFD8346FFF725BB2CA35D
:104CB000D3E90023DDE9040101F078FC28A3D3E95E
:104CC000002301F073FC8346FFF716BBBEF1000F13
:104CD0007FF44FABC3F1140348FA03F202FA03F373
:104CE000984524D07446FFF721BB264B9F423FF7DF
:104CF00007AEDDE902349A469B462EE602460B4695
:104D0000FFF7B9BB204B4FF48026CDE9062316A34D
:104D1000D3E90023CDE9082315A3D3E90023CDE986
:104D20000C23FFF7F9BB5A4601F00EFAC5E602F074
:104D30000102C2F10204FFF7F9BA00BFAFF300802D
:104D4000000000604715F73F44DF5DF80BAE543EAE
:104D5000555555555555D53FFE822B654715F73F9F
:104D60009C7500883CE4377E0000004003B8E23FB9
:104D700006D0CF43EBFD4C3EFEFFEF3F0000F03F7F
:104D80000000D03F0000E03F0000F83F00000000BE
:104D90002DE9F04F944C21F00047A7428FB040F32B
:104DA00081801446914A0E46974226DC84A3D3E9BB
:104DB0000023002940F3A08101F044FA8C4B804687
:104DC0009F42894600F083807FA3D3E9002301F04E
:104DD00039FA02460B464046C4E90023494601F031
:104DE00031FA79A3D3E9002301F02CFA0125C4E9B3
:104DF000020128460FB0BDE8F08F7E4A974240F38B
:104E000083807D4A974258DC3D15A5F21645A7EBF5
:104E100005518B46824601F079FE01F061FB804628
:104E2000894642464B4650465946CDE9088901F02D
:104E300009FA0022714B01F0B9FB8B46824601F062
:104E400065FE01F04DFB8046894642464B46504682
:104E50005946CDE90A8901F0F5F90022674B01F0C6
:104E6000A5FB00220023CDE90C0101F007FE00287C
:104E700000F06A81002340464946002201F0FEFD11
:104E8000002814BF012302235D48022101900091F4
:104E90002A46214608A800F07BFB002EC0F24A817A
:104EA000054606E0C2E9000100250024C2E90245EA
:104EB000002528460FB0BDE8F08F02460B4601F0F2
:104EC000C1F90025C4E90201C4E90001F1E740A3EA
:104ED000D3E9002301F0B6F93FA3D3E90023064646
:104EE0000F4601F0AFF902460B463046C4E90023F5
:104EF000394601F0A7F938A3D3E9002301F0A2F95C
:104F00000125C4E90201D4E700F0F4FF34A3D3E99A
:104F100000238046894601F049FB0022394B01F00D
:104F200093F901F0F3FD054601F0DAFA24A3D3E981
:104F30000023CDE9040101F039FB02460B4640464F
:104F4000494601F07FF920A3D3E9002382468B462E
:104F5000DDE9040101F02AFB1F2DCDE9020155DC3A
:104F6000294B6A1E53F822309F424FD002460B460F
:104F70005046594601F066F902460B46814688467E
:104F8000C4E900234A4643465046594601F05AF9BF
:104F9000DDE9022301F056F902460B46002EC4E972
:104FA000022386DA4A4608F1004301F1004184E811
:104FB0000C00E160A0606D427BE700BFAFF30080B2
:104FC00000004054FB21F93F3163621A61B4D03DC7
:104FD0000000601A61B4D03D7370032E8A19A33BA0
:104FE00083C8C96D305FE43FFB21E93F7BD90240B4
:104FF000FB21F93FFB213941FFFFEF7F00007041AA
:10500000BC870A080000E03F3C870A08DDE902236C
:105010005046594601F016F93F15C1F30A53FB1AE1
:10502000102B81468846C4E90001ABDD58A3D3E9C3
:105030000023DDE9040101F0B9FA80468946024601
:105040000B465046594601F0FDF8CDE906010246EF
:105050000B465046594601F0F5F842464B4601F0E2
:10506000F1F84DA3D3E9002380468946DDE9040128
:1050700001F09CFA42464B4601F0E4F802460B462A
:10508000CDE90201DDE9060101F0DCF80B4602463C
:105090008846C1F30A517F1A312F8146C4E90023A3
:1050A00072DD3FA3D3E90023DDE9040101F07EFABC
:1050B0008046894602460B46DDE9060101F0C2F84A
:1050C00002460B4682468B46DDE9060101F0BAF83E
:1050D00042464B4601F0B6F833A3D3E9002380469D
:1050E0008946DDE9040101F061FA42464B4601F0D0
:1050F000A9F8CDE9020139E701F0A6F82E4B804668
:105100009F42894622D02AA3D3E9002301F09CF8CC
:1051100002460B464046C4E90023494601F092F896
:1051200023A3D3E9002301F08FF84FF0FF35C4E942
:105130000201BEE66268E36802F1004203F1004347
:1051400045426260E360B4E603239DE610A3D3E921
:10515000002301F079F810A3D3E9002306460F4697
:1051600001F072F802460B463046C4E90023394686
:1051700001F068F808A3D3E9002301F065F84FF0C7
:10518000FF35C4E9020194E6DDE906ABFAE600BFAB
:105190000000601A61B4D03D7370032E8A19A33BDE
:1051A0000000002E8A19A33BC14920259A837B3930
:1051B0003163621A61B4D03DFB21F93F2DE9F04122
:1051C0005F4E0C46B6460E407645054600F0988088
:1051D00000290B46024674DD5FEA215E7FD0AEF205
:1051E000FF3EC3F313031EF0010F43F4801363D19A
:1051F00000273E4603EBD2710B444FEA6E0E52007D
:1052000016204FF4001174189C424FEAD2754FEAF1
:10521000420202DC1B1B66180F44013805EB4303F6
:105220004FEA5101EFD1844620244FF0004109E0BC
:1052300020D003EBD275013C4FEA51012B444FEAD9
:10524000420220D09E4201EB0C05F1DA002D05EB65
:10525000010C09DBB0469542A3EB060300D9013BE4
:105260004646521B0844E4E7BCF1000FF2DB06F1AE
:105270000108F0E7954217D8002D05EB010C49DB3A
:1052800098460023ECE7134310D140087B1003F14C
:105290007F5303F50013FA0703EB0E57394648BF57
:1052A00040F00040BDE8F0813346C2E7411C35D0F4
:1052B00000F001031844E8E75B0003EBD2735200EF
:1052C00096E721F000460643ECD079BB8E46D30A20
:1052D000AEF1150E5205002BF9D0DD0221D40021CC
:1052E00000E001465B00DC0201F10100F9D5C0F1EC
:1052F000200422FA04F42343C1EB0E0E82406EE731
:1053000002460B4601F052F92A46234600F09CFF64
:10531000BDE8F081BCF1000FA9DAB1E70137204602
:10532000B4E720244FF0FF310020E2E702460B46AD
:1053300000F088FF02460B4601F062FAB2E700BFB8
:105340000000F07F000000002DE9F04F21F0004642
:10535000B6F1795F85B00C4692469B4605466BDAFE
:1053600001F0D4FB002800F0E7802A4623462846B7
:10537000214601F01BF974A3D3E900238046894636
:1053800001F014F972A3D3E9002300F05DFF424657
:105390004B4601F00BF970A3D3E9002300F052FF54
:1053A00042464B4601F002F96DA3D3E9002300F019
:1053B0004BFF42464B4601F0F9F86BA3D3E90023BB
:1053C00000F040FF42464B4601F0F0F868A3D3E9F5
:1053D000002300F039FF42464B4601F0E7F8CDE9E3
:1053E00000010022644B4046494601F0DFF8DDE948
:1053F000002306460F464046494601F0D7F852467C
:10540000804689465B462846214601F0CFF8024691
:105410000B464046494600F015FF02460B46304613
:10542000394600F00FFF02460B460020534900F0BA
:1054300009FF05B0BDE8F08F02460B4601F0B6F853
:1054400041A3D3E900238046894601F0AFF840A389
:10545000D3E9002300F0F8FE42464B4601F0A6F8DF
:105460003DA3D3E9002300F0EDFE42464B4601F098
:105470009DF83BA3D3E9002300F0E6FE42464B46ED
:1054800001F094F838A3D3E9002300F0DBFE424694
:105490004B4601F08BF836A3D3E9002300F0D4FE8D
:1054A0004B46424601F082F8354BCDE900019E4261
:1054B00097DD344B00229E4238DCA6F50013002015
:1054C0002E4916461F4600F0BDFECDE9020100221E
:1054D000294B4046494601F069F832463B4600F008
:1054E000B1FEDDE9002306460F464046494601F07D
:1054F0005DF85246804689465B462846214601F0C3
:1055000055F802460B464046494600F09BFE0246CF
:105510000B463046394600F095FE02460B46DDE963
:10552000020100F08FFE05B0BDE8F08F164B00269B
:10553000CDE90223154FCAE71049002005B0BDE8A8
:10554000F08F00BFAFF30080D43888BEE9FAA8BD61
:10555000C4B1B4BD9EEE213EAD529C804F7E923EC2
:105560009015CB19A001FA3E7751C1166CC1563F78
:105570004C5555555555A53F0000E03F0000F03F04
:105580003233D33F0000E93F0000E73F0000D23F45
:105590002DE9F04F7A4CADF51D7D1F460C93D31EBF
:1055A00084FB0354DB17C3EBA403A69E754C23EACC
:1055B000E37554F826406B1C26460994A3EB83033D
:1055C0007C1E0D95029402EBC3032D1B341904902D
:1055D0000A91089316D42C44013422AEA79F08E008
:1055E00057F8250000F07CFF0135A542E6E90201ED
:1055F00008D0002DF4DA013500200021A542E6E9AB
:105600000201F6D1099B002B31DB099A0C9B74A98E
:1056100001EBC20BC3EB4373029A24A9DB0001EB3D
:10562000C20901930DF5E47A029B002BC0F2908130
:105630004C46049B0026A3F10805019B002709EBBB
:105640000308F5E9022374E8020100F0AFFF024607
:105650000B463046394600F0F7FD444506460F46F6
:10566000EFD1EAE90267DA4509F10809DCD1099BC3
:1056700010A91D4603F18043023B9B001A1D0A44FA
:105680000B440F920E939CAB03EBC503002D53E923
:1056900028672BDD9CAB03EBC504A83C0DF13C0A4D
:1056A0000DF5E47B0022384B3046394600F07EFF92
:1056B00001F02CFA00F014FF0022344B804689469A
:1056C00000F074FF02460B463046394600F0BAFD42
:1056D00001F01CFA74E802234AF8040F49464046D8
:1056E00000F0B2FD5C4506460F46DBD1089C304613
:1056F0003946224600F028FD00224FF07F5306462F
:105700000F4600F053FF00F0FFFB0022204B00F09B
:105710004DFF02460B463046394600F093FD0F46DA
:10572000064601F0F3F9814600F0DAFE02460B4628
:105730003046394600F086FD002C06460F4640F301
:10574000EE80681E10AB53F82030C4F1180243FA03
:1057500002F101FA02F29B1AC4F1170810AA42F8EA
:105760002030894443FA08F8B8F1000F3DDD002DE0
:1057700009F1010940F3D582002214460FA911E076
:10578000ABAAAA2AC4880A080000703E0000704133
:1057900000002040C3F180700BB108600124013289
:1057A00095420DDD51F8043F002CF3D0C3F1FF13F7
:1057B000013203F57F4395420B604FF00104F1DCA9
:1057C000089B002B0DDD012B00F0B180022B08D1CE
:1057D0006A1E10AB53F8223010A9C3F3150341F829
:1057E0002230B8F1020F00F0818000220023304601
:1057F000394601F043F9002800F05D82099B05F16C
:10580000FF3B5B4510DC05F1804310AA013B0F987C
:1058100002EB8303002253F80419834242EA010297
:10582000F9D1002A40F0B180099B10AA013B52F83F
:105830002330002B40F073820E9A012352F8041992
:1058400001330029FAD0E9186A1C8A420B914BDC1B
:105850000D990C985118DB0001F180410593A79B2D
:1058600005440139E80003EB810A24ABD20003EBC5
:10587000000B74AB13440193A2F108030690079345
:105880004FF000095AF8040F00F02AFE029BEBE8E3
:105890000201002B4FF000064FF000071BDB069BB8
:1058A00003EB0904079B09EB030824AB1C44984451
:1058B000049BA3F10805F5E9022374E8020100F056
:1058C00075FE02460B463046394600F0BDFC4445A5
:1058D00006460F46EFD1019B09F10809E3E802678C
:1058E0000193059B9945CDD10B9DCCE632463B46B5
:1058F0000020B14900F0A6FC06460F46002C3FF4FC
:1059000074AF089A0020AC4900F01EFC02460B461A
:105910003046394600F096FC06460F4665E710D142
:105920006B1E10AA52F823304FEAE3581CE76A1E98
:1059300010AB53F8223010A9C3F3160341F82230FC
:105940004FE700229D4B01F0B7F858B980464CE76D
:1059500000260027EAE90267DA4509F108097FF421
:1059600063AE84E6002D09F10109C8BF4FF00208BB
:105970003FF702AF32463B4600208F4900F062FC01
:105980004FF0020806460F462FE7089A10AB53F86F
:105990002B30183ACDF81490CDF8048008926BB9EA
:1059A0000BF18043013B10A901EB830353F8041969
:1059B0000BF1FF3B183A0029F8D00892089A002012
:1059C0007D4900F0C1FBBBF1000F04460D46C0F25B
:1059D000B8814FEACB030DF5E87810AA02EB8B06ED
:1059E00008EB03090493043609F1080756F8040D7F
:1059F00000F076FD22462B4600F0D8FD002267E934
:105A000002016F4B2046294600F0D0FDB845044600
:105A10000D46EBD14B46CDF818B09B460DF5987A64
:105A2000CDF808A0DDF824A04FF00009BAF1000F6E
:105A3000C0F228815EA3D3E90023DFF888815D46A8
:105A400000260027002403E0A14510DBF8E902232B
:105A5000F5E8020100F0AAFD02460B463046394641
:105A600000F0F2FB0134A24506460F46ECDA029B39
:105A7000ABF1080B03EBC903C3E9006772AB5B45ED
:105A800009F10109D2D1A69BDDF818B0DDF808A014
:105A9000032B00F28380DFE813F0D3009700970018
:105AA0000400BBF1000F40F35681049BCDF808B011
:105AB00053449846D3E90067D34658E9029A3246E0
:105AC0003B464846514600F0BFFB04460D460246A1
:105AD0000B464846514600F0B5FB32463B4600F0C7
