:02000004080AE8
:1000000000000A0800B40A08000006000600050106
:080010000402810C0000000055
:0400180070A40A08BE
:1000200009480A4908B5884205D0094A824202D0E7
:10003000121A07F007FE0748074A0021121A07F0B4
:100040000FFE064808BD00BF000000208CB10A0862
:100050004C02002050020020442C0020442C0020A0
:1000600070B503F043FB0025054E064CA41BA40805
:10007000AC4200D170BD56F8043B98470135F7E714
:1000800054B10A0878B10A0800F044BD08B500F080
:100090004FFCBDE8084003F0E1BA02F033BF02F0C4
:1000A00031BF02F037BF0078B0FA80F040097047E6
:1000B000012303707047000010B50446024B036033
:1000C00002F0AEF8204610BDACA40A0810B50446F4
:1000D000FFF7F2FF204642F2E441FFF7E2FF20463D
:1000E00010BD000008B502F007FD034B1860BDE825
:1000F000084002F0D7BE00BF542B002010B50446C4
:1001000002F0FAFC2368C01A10BD000030B585B0BB
:1001100002F0F2FC154D2B68C01A154B98421ED9FF
:10012000144B154A1B7815498DF8003002A83C2362
:1001300003F03AFC039C7CB16368013B63605BB9EC
:10014000236820469B689847A368013BA3601BB9BE
:1001500023682046DB68984702F0CEFC28600848F8
:1001600005B0BDE8304002F0A9B800BF6002002031
:1001700000DD6D00540200205DA90A0892A40A085F
:100180007C02002010B502F0B7FC114C23688342BA
:100190000DD203F0EBF902280ADC0E4803F06AF9ED
:1001A00002F0AAFC00F55B1000F53A50206010BD8B
:1001B00003F0DCF9032805D003F0D8F90A28ECDCB9
:1001C0000548EBE703F0C6F90828E6DDF4E700BFD1
:1001D0005C0200200000E0C00000C0C038B502F0A2
:1001E0008BFC0D4D0D4C2B68834210D203F08EF921
:1001F00006280EDC03F08AF91628D4BF002001205F
:10020000207002F079FC00F51C5010302860207836
:1002100038BD0020F4E700BF68020020640200201F
:10022000F7B502F069FC244D244C2B68834235D28B
:100230000A2004F063F840F6EC61884240F67462EC
:10024000A8BF084664239042B8BF10460093082315
:1002500003F09EF906F0E0FF06F084FB0022184B45
:1002600006F002FD10A3D3E9002306F0D3FB0646F7
:1002700020680F4606F076FB0DA3D3E9002306F0B5
:10028000C9FB02460B463046394606F00DFA06F029
:10029000B9FE206002F030FC64302860206803B0B2
:1002A000F0BD00BFAFF30080000000A09999A93F06
:1002B000000000666666EE3F580200200000002045
:1002C00000005940C043C0B2542809D80023194641
:1002D00000EB4002A0EB80000138D2B2C0B20CE0CB
:1002E000A9280CD800235538C1B21846A1EB8102C9
:1002F000013A01EB4101D2B2C9B201F039BF00238A
:100300005630C0B2A0EB800101391A4600EB400024
:10031000C9B2E3E70000000073B50446FFF75EFFD3
:1003200088B1002426463A4D284601F028FFA04215
:1003300056DD0023A1B21A462846CDE9006601F039
:1003400095FE0134F0E74FF07E51204607F04CF95E
:1003500010B1FFF765FF0446204606F003FB24A317
:10036000D3E9002306F056FB06F02CFEC1B2284864
:1003700001F007FF02F0C0FB06F0D2FA1EA3D3E99A
:10038000002306F071FC1EA3D3E9002306F042FB14
:1003900004F05AF800221F4B06F086F91AA3D3E99D
:1003A000002306F037FB06F02DFE00240546184E0C
:1003B000304601F0E4FEA04212DD04EBC40006F07A
:1003C0002BFF294606F074FE07F066F9C0B2FFF76E
:1003D00079FFA1B20246304601F082FE0134E7E720
:1003E0000B4802B0BDE8704000F094BDAFF3008050
:1003F0000000000000E06F40000000000070C740F7
:10040000182D4454FB2109400000000000E05F402B
:10041000602700200000F03F2DE9F74F0FF2E819A8
:10042000D9E900897AA7D7E9006702F065FB0121C5
:100430000190132003F049FFDFF8E4B101A8FFF7B2
:100440005DFE41F2873398427BD90FF2BC19D9E99E
:1004500000896FA7D7E90067DFF8C4A101A8FFF7FB
:100460004DFE42F20F73984200F2C48001A8FFF7DC
:1004700045FE06F0CDFE514606F0D6FF06F072FAB4
:1004800042464B4606F0C6FA03F0DEFF02460B4634
:100490003046394604F030F80022624B06F002F98B
:1004A0005DA3D3E9002306F0B5FA06F0ABFD07F033
:1004B000CDF8DFF874B105465C49DBF8000006F0C2
:1004C000B3FF0A2407F0C2F890FBF4F22B4602FBBC
:1004D00014020021564800F077FCDBF8000007F01A
:1004E000B5F890FBF4F22B4602FB140202215048AF
:1004F00000F06AFC4D49DBF8000006F0E1FE07F071
:10050000A5F890FBF4F22B4602FB140202214848A6
:1005100000F05AFC4749DBF8000006F0D1FE07F076
:1005200095F890FBF4F22B4602FB1402032140489D
:1005300000F04AFCFFF7D6FD4FF07E50FFF7ECFECF
:100540008CE701A8FFF7DAFD06F062FE594606F0D7
:100550006BFF06F007FA42464B4606F05BFA03F0E3
:1005600073FF02460B463046394603F0C5FF04468A
:100570000D4602F0CBFF0022824629462046294B39
:1005800006F090F824A3D3E9002306F043FA06F01E
:1005900039FD07F05BF80A24054603469AFBF4F29E
:1005A0000021234800F010FC02F0B0FF90FBF4F2B1
:1005B0002B4602FB140201211D4800F005FC02F04D
:1005C000B1FF2B4690FBF4F20221194800F0FCFB2E
:1005D00002F0A8FF90FBF4F22B4602FB1402032169
:1005E000134800F0F1FBFFF77DFD4FF07E50FFF761
:1005F00093FE23E70021132003F067FE03B0BDE85C
:10060000F08F00BFAFF30080182D4454FB21094048
:1006100090F7AA9509BF05400000000000A0A24085
:1006200000401C460000F03F500200200000204126
:100630006C0200200000C8422DE9F74F0FF2C819E4
:10064000D9E9008972A7D7E9006702F055FA0121BC
:100650000190132003F039FEDFF8C4B101A8FFF7C1
:100660004DFD41F28733984269D90FF29C19D9E9BF
:10067000008967A7D7E90067DFF8A4B101A8FFF7F1
:100680003DFD42F20F73984200F2B18001A8FFF7DE
:1006900035FD06F0BDFD594606F0C6FE06F062F9CE
:1006A00042464B4606F0B6F903F0CEFE02460B4634
:1006B0003046394603F020FF04460D4602F026FF7F
:1006C0000022824629462046564B05F0EBFF52A3F6
:1006D000D3E9002306F09EF906F094FC06F0B6FF7D
:1006E0000A24054603469AFBF4F200214E4800F026
:1006F0006BFB02F00BFF90FBF4F22B4602FB1402A3
:100700000121494800F060FB02F00CFF2B4690FBF2
:10071000F4F20221444800F057FB02F003FF90FB83
:10072000F4F22B4602FB140203213F4800F04CFB7D
:10073000FFF7D8FC4FF07E50FFF7EEFD9EE701A8D3
:10074000FFF7DCFC06F064FD594606F06DFE06F08E
:1007500009F942464B4606F05DF903F075FE024684
:100760000B463046394603F0C7FE04460D462E4878
:10077000002100F079FB0022824629462046294BC1
:1007800005F090FF24A3D3E9002306F043F906F017
:1007900039FC06F05BFF524604460346002122481E
:1007A00000F012FB0121204800F05EFB23460246C8
:1007B00001211D4800F008FB02211B4800F054FBFA
:1007C000234602460221184800F0FEFA032116488B
:1007D00000F04AFB234602460321134800F0F4FAD6
:1007E000FFF780FC4FF07E50FFF796FD36E70021C3
:1007F000132003F06AFD4FF4FA7002F0D5FE03B047
:10080000BDE8F08FAFF30080182D4454FB21094060
:1008100090F7AA9509BF05400000000000A0A24083
:1008200000401C460000F03F6C02002038B502F08A
:1008300063F90020FFF770FD0121132003F045FD4F
:1008400018250A21002003F012FC4FF480530246C1
:100850000021364800F0B8FA5021052003F007FCCB
:1008600002F0A2FE0A21002003F001FC4FF48053A5
:10087000024601212D4800F0A7FA5021052003F07F
:10088000F6FB02F091FE0A21002003F0F0FB4FF48A
:10089000805302460221254800F096FA5021052097
:1008A00003F0E5FB02F080FE0A21002003F0DFFBED
:1008B0004FF48053024603211C4800F085FA502172
:1008C000052003F0D4FB02F06FFE013DB9D10A24EC
:1008D00002F01CFE294690FBF4F20523134800F0B9
:1008E00073FA02F013FE90FBF4F2052302FB1402EC
:1008F00001210E4800F068FA02F014FE052390FB77
:10090000F4F20221094800F05FFA02F00BFE90FBBE
:10091000F4F2052302FB14020321044800F054FA08
:100920002946BDE83840132003F0CFBC6C020020FC
:1009300008B5FFF7D7FBFFF725FC4FF07E50FFF718
:10094000EBFC02F0FBFD372808D1FFF747FC28B984
:10095000FFF7DCFBBDE80840FFF75EBD08BD000007
:100960002DE9F04F0024ADF2144DCDE900120646FA
:100970004FF48062624904A807F064F92546009BA1
:1009800000279C426CDADFF87CB14FF00008584633
:1009900001F0F5FB404540DD584601F0F0FB4FEA21
:1009A0000823B3FBF0F03844C0B2FFF78BFC81465C
:1009B000284606F031FC544906F036FD82465FFABF
:1009C00089F006F029FC514606F07AFC06F03EFE5E
:1009D000C2B2C9F30740039206F01EFC514606F06E
:1009E0006FFC06F033FEC3B2C9F30720029306F092
:1009F00013FC514606F064FC06F028FEDDE90232E5
:100A0000C0B2194601F0AFFB1FFA88F10246584602
:100A100001F066FB08F10108B9E79CB9284606F029
:100A2000FBFB3A4906F0EAFD60B10135584600F09B
:100A300071FA0137304602F0B7FDB7F5807FA4D1D7
:100A400001349CE7009B013BA342EFD1384606F0FE
:100A5000E3FB2F4906F0F0FD0028E7D0013DE5E774
:100A6000284C019B9F4247DA00254FF000082046A2
:100A700001F085FB1FFA88F948450FD9002204AB25
:100A80001146104613F8253001F072FB4946024624
:100A9000204601F025FB08F10108E8E7304602F0A6
:100AA00083FD0135204600F035FAB5F5807FDCD1B5
:100AB000FF254FF00008204601F061FB1FFA88F97E
:100AC00048450FD9002204AB1146104613F82530D3
:100AD00001F04EFB49460246204601F001FB08F1B9
:100AE0000108E8E7304602F05FFD204600F012FA08
:100AF000013DDED20137B4E70DF2144DBDE8F08FB1
:100B0000B4A40A08602700200000C8420000C642C2
:100B100000001B4370B500249EB003F085F94FF42C
:100B2000165103F067F9234622462F49CDE90044C8
:100B30002E4802F0CFF90121132003F0B5FB0A2063
:100B400002F032FD6822214604A807F089F801234B
:100B50002246214603A8039302F028F922462146A3
:100B600003A8129402F01AF9214800F09CF92646D5
:100B70001F4D1F4801F003FBA0420CDD0023A1B272
:100B80001A462846CDE9006601F070FA284600F0C2
:100B9000C1F90134EDE7002001F0BEFF4EF66025FB
:100BA0000446002001F0B8FF001B61F10001A842DB
:100BB00071F1000305D202F07BFC10B902F072F96A
:100BC000EFE702F075FCFFF7DDFA0A4800F07AF86B
:100BD000FFF72CFE012204210320FFF7C1FEFFF7DF
:100BE0002BFD1EB070BD00BF450C0A0884A40A0886
:100BF000602700206C02002013B501200D4B00215E
:100C0000187002F0ABF80623022204210A4800F013
:100C10006FF94FF4C872094B0092A3F6E434A3F6BF
:100C2000B83140F6B832204601F052FB044B236045
:100C300002B010BD5402002060270020600E00208A
:100C4000ACA40A0810B508468AB00C4607F0A9F80B
:100C500021460246174801F014FB164801F0BCFE7D
:100C600028B307A8134901F043FB07A904A8124AB7
:100C700001F0B0FC114A04A901A801F0ABFC00216D
:100C800001A801F0A7FB0E4C206001A801F0A8FA12
:100C900004A801F0A5FA07A801F0A2FA03F0C4F82D
:100CA000022221680AB0BDE8104002F063BB0AB01E
:100CB00010BD00BF7C02002097A40A089FA40A0868
:100CC0005002002008B503F095FB244903F0ACF96D
:100CD00003F090FB03F0ACF903F08CFB702103F000
:100CE000B1F903F087FB036800219B68984703F084
:100CF00081FB036831219B68984703F07BFB03F07D
:100D0000A8F903F077FB702103F09CF903F072FB64
:100D10000368FE219B68984703F06CFB036803217E
:100D20009B68984703F066FB03F093F903F062FBBE
:100D3000702103F087F903F05DFB036800219B68D5
:100D4000984703F057FB036821219B68984703F0FD
:100D500051FBBDE8084003F07CB900BF801A0600D3
:100D60000023F7B50D460A240746019310236C4370
:100D70008DF8073003F03EFB57F82530114E234421
:100D800016F8131003F05AF903F034FB57F8253026
:100D90001C4406EB440461780368890006319B68B3
:100DA00001F0FE01984703F025FB042203680DEBD8
:100DB0000201DB68984703F01DFB03F04AF903B01A
:100DC000F0BD00BFB4A80A082DE9F3411E4650F853
:100DD0002130074693420C46154601D0FFF7C0FF6D
:100DE0000023B6F5805F01932DDB9DF8053043F0BD
:100DF00010038DF805304FF00A0808FB0458194E0F
:100E000003F0F8FA16F8181003F018F903F0F2FAE4
:100E100006EB480671780368890006319B6801F08B
:100E2000FE01984703F0E6FA042203680DEB020185
:100E3000DB68984703F0DEFA03F00BF947F824501B
:100E400002B0BDE8F08136B99DF8073043F01003D9
:100E50008DF80730CFE7BDF8063066F30B03ADF829
:100E60000630C8E7B4A80A0850F82100704738B522
:100E70000446C0680D4608B102F04CF8A379062B71
:100E80000CBF04200320684380B2A08002F03AF82F
:100E9000E06028B10021A28806F0E2FE658038BD3E
:100EA000A0806080FBE710B504460121C07903F003
:100EB000FBF90021E07903F008FA0123237010BD4B
:100EC00038B5037805460C461BB10021C07903F004
:100ED000EBF92B78EC7153B1A4B22046012103F059
:100EE000E3F92046BDE83840002103F0EEB938BDF3
:100EF00070B50025044616468371C0E90355057098
:100F00000572FFF7B4FF20463146FFF7D9FF2046B0
:100F100070BD0000C368002B00F04184F0B58379F8
:100F20000446023BDBB2042B8CBF3225284A87B033
:100F300098BF52F8235001F0D7FD2369C01AA84288
:100F4000F9D372B6A388A579ADF80A30BDF80A3096
:100F5000022DE1689BB200F06E82072D00F06B82DB
:100F6000062D00F01D84052D00F0A183082D00F052
:100F70009E83002D40F04F85002B00F092834FF4AC
:100F80000006144A0496BDF80A300331033B9BB2B5
:100F9000ADF80A3011F8033CDBB28DF8073011F8D8
:100FA000023CDBB28DF8063011F8013CDBB28DF863
:100FB00008309DF807009DF806301B0243EA004305
:100FC0009DF80800034303938DF805501BE100BF13
:100FD00004A90A0874270020004600BF00BF00BF14
:100FE00000BF00BF00BF00BF00BF00BF00BF00BF09
:100FF00000BF00BF00BF00BF00BF00BF00BF00BFF9
:1010000000BF00BF00BF00BF00BF00BF00BF00BFE8
:1010100000BF00BF00BF00BF00BF00BF00BF00BFD8
:1010200000BF00BF00BF00BF00BF00BF00BF00BFC8
:1010300000BF00BF00BF00BF00BF00BF00BF00BFB8
:1010400000BF00BF00BF00BF00BF00BF00BF00BFA8
:1010500000BF00BF00BF00BF00BF00BF00BF00BF98
:1010600000BF00BF00BF00BF00BF00BF00BF00BF88
:1010700000BF00BF00BF00BF00BF00BF00BF00BF78
:1010800000BF00BF00BF00BF00BF00BF00BF00BF68
:1010900000BF00BF00BF00BF00BF00BF00BF00BF58
:1010A00000BF00BF00BF00BF00BF00BF00BF00BF48
:1010B00000BF00BF00BF00BF00BF00BF00BF00BF38
:1010C00000BF00BF00BF00BF00BF00BF00BF00BF28
:1010D00000BF00BF00BF00BF00BF00BF00BF00BF18
:1010E000E3791068C3EBC30300EB830750F82330A8
:1010F000B8885883004600BF00BF00BF00BF00BFD4
:1011000000BF00BF00BF00BF00BF00BF00BF00BFE7
:1011100000BF00BF00BF00BF00BF00BF00BF00BFD7
:1011200000BF00BF00BF00BF00BF00BF00BF00BFC7
:1011300000BF00BF00BF00BF00BF00BF00BF00BFB7
:1011400000BF00BF00BF00BF00BF00BF00BF00BFA7
:1011500000BF00BF00BF00BF00BF00BF00BF00BF97
:1011600000BF00BF00BF00BF00BF00BF00BF00BF87
:1011700000BF00BF00BF00BF00BF00BF00BF00BF77
:1011800000BF00BF00BF00BF00BF00BF00BF00BF67
:1011900000BF00BF00BF00BF00BF00BF00BF00BF57
:1011A00000BF00BF00BF00BF00BF00BF00BF00BF47
:1011B00000BF00BF00BF00BF00BF00BF00BF00BF37
:1011C00000BF00BF00BF00BF00BF00BF00BF00BF27
:1011D00000BF00BF00BF00BF00BF00BF00BF00BF17
:1011E00000BF00BF00BF00BF00BF00BF00BF049B27
:1011F0005B0804939DF805300133DBB2172B8DF8A3
:10120000053000F22387E3791068C3EBC30300EBDA
:10121000830750F82330B88818830398049B18423A
:101220007FF4DAAE004600BF00BF00BF00BF00BFC2
:1012300000BF00BF00BF00BF00BF00BF00BF00BFB6
:1012400000BF00BF00BF00BF00BF00BF00BF00BFA6
:1012500000BF00BF00BF00BF00BF00BF00BF00BF96
:1012600000BF00BF00BF00BF00BF00BF00BF00BF86
:1012700000BF00BF00BFE3791068C3EBC30300EBFE
:10128000830750F82330B8885883004600BF00BF5A
:1012900000BF00BF00BF00BF00BF00BF00BF00BF56
:1012A00000BF00BF00BF00BF00BF00BF00BF00BF46
:1012B00000BF00BF00BF00BF00BF00BF00BF00BF36
:1012C00000BF00BF00BF00BF00BF00BF00BF00BF26
:1012D00000BF00BF00BF00BF00BF00BF00BF00BF16
:1012E00000BF00BF00BF00BF00BF00BF00BF00BF06
:1012F00000BF00BF00BF00BF00BF00BF00BF00BFF6
:1013000000BF00BF00BF00BF00BF00BF00BF00BFE5
:1013100000BF00BF00BF00BF00BF00BF00BF00BFD5
:1013200000BF00BF00BF00BF00BF00BF00BF00BFC5
:1013300000BF00BF00BF00BF00BF00BF00BF00BFB5
:1013400000BF00BF00BF00BF00BF00BF00BF00BFA5
:1013500000BF00BF00BF00BF00BF00BF00BF00BF95
:1013600000BF00BF00BF00BF00BF00BF00BF00BF85
:1013700000BF00BF00BF00BF00BF00BF00BF00BF75
:1013800000BF00BF00BF00BF00BF00BF00BF00BF65
:1013900000BF00BF00BF00BF00BF00BF00BF00BF55
:1013A00000BF00BF00BF00BF00BF00BF00BF00BF45
:1013B00000BF00BF00BF00BF00BF00BF00BF00BF35
:1013C00000BF00BF00BF00BF00BF00BF00BF00BF25
:1013D00000BF00BF00BF00BF00BF00BF00BF00BF15
:1013E00000BF00BF00BF00BF00BF00BF00BF00BF05
:1013F00000BF00BF00BF00BF00BF00BF00BF00BFF5
:1014000000BF00BF00BF00BF00BF00BF00BF00BFE4
:1014100000BF00BF00BF00BF00BF00BF00BF00BFD4
:1014200000BF00BF00BF00BF00BF00BF00BF00BFC4
:1014300000BF00BFDBE6002B00F033814FF4000556
:101440004FF0000C124A08460495BDF80A300331EB
:10145000033B9BB2ADF80A3011F8033CDBB28DF8C8
:10146000063011F8023CDBB28DF807308378DBB22E
:101470008DF808309DF806609DF807309DF808004B
:101480001B0243EA0643034303938DF805C07FE044
:1014900074270020004600BF00BF00BF00BF00BF90
:1014A00000BF00BF00BF00BF00BF00BF00BF00BF44
:1014B00000BF00BF00BF00BF00BF00BF00BF00BF34
:1014C00000BF00BF00BF00BF00BF00BF00BF00BF24
:1014D00000BF00BF00BF00BF00BF00BF00BF00BF14
:1014E00000BF00BF00BF00BF00BF00BF00BF00BF04
:1014F00000BF00BF00BF00BF00BF00BF00BF00BFF4
:1015000000BF00BF00BF00BF00BF00BF00BF00BFE3
:1015100000BF00BF00BF00BF00BF00BF00BF00BFD3
:1015200000BF00BF00BF00BF00BF00BF00BFE37926
:101530001068C3EBC30300EB830650F82330B08878
:101540005883004600BF00BF00BF00BF00BF00BF00
:1015500000BF00BF00BF00BF00BF00BF00BF00BF93
:1015600000BF00BF00BF00BF00BF00BF00BF00BF83
:1015700000BF00BF00BF00BF049B5B0804939DF841
:1015800005300133DBB2172B8DF8053000F2838074
:10159000E3791068C3EBC30300EB830650F82330F4
:1015A000B08818830398049B18427FF473AF0046F9
:1015B00000BF00BF00BF00BF00BF00BF00BF00BF33
:1015C00000BF00BF00BF00BF00BF00BF00BF00BF23
:1015D00000BF00BF00BFE3791068C3EBC30300EB9B
:1015E000830650F82330B0885883004600BF00BF00
:1015F00000BF00BF00BF00BF00BF00BF00BF00BFF3
:1016000000BF00BF00BF00BF00BF00BF00BF00BFE2
:1016100000BF00BF00BF00BF00BF00BF00BF00BFD2
:1016200000BF00BF00BF00BF00BF00BF00BF00BFC2
:1016300000BF00BF00BF00BF00BF00BF00BF00BFB2
:1016400000BF00BF00BF00BF00BF00BF00BF00BFA2
:1016500000BF00BF00BF00BF00BF00BF00BF00BF92
:1016600000BF00BF00BF00BF00BF00BF00BF00BF82
:1016700000BF00BF00BF00BF00BF00BF00BF00BF72
:1016800000BF00BF00BF00BF00BF00BF00BF00BF62
:1016900000BF00BF70E7BDF80A309BB2002B7FF49B
:1016A000D2AE62B601F020FA206107B0F0BD002B87
:1016B000F7D04FF400054FF0000C544B1868544B12
:1016C0000495BDF80A200331033A92B2ADF80A201E
:1016D00011F8032CD2B28DF8062011F8022CD2B2E8
:1016E0008DF8072011F8012CD2B28DF808209DF852
:1016F00006609DF80720120242EA06429DF8086043
:10170000324303928DF805C0E2795F68C2EBC202F2
:1017100000EB8206B68850F8222005971683039EB8
:10172000049A164225D05A68059E921B4F2AFAD970
:10173000E279C2EBC20200EB8206B68850F82220A2
:1017400056835A6805925A68059E921B072AFAD951
:10175000049A520804929DF805200132D2B2172A49
:101760008DF80520D0D9BDF80A2092B2002AA7D161
:1017700097E75A68059E921B182AFAD9E279C2EBBC
:10178000C20200EB8206B68850F8222056835A68BF
:1017900005925A68059E921B452AFAD9D8E77047E8
:1017A000002B3FF47EAF4FF000450026174A04950A
:1017B000BDF80A300431043B9BB2ADF80A3011F891
:1017C000043CDBB28DF8073011F8033CDBB28DF836
:1017D000063011F8023CDBB28DF8083011F8013CFC
:1017E000DBB28DF809309DF807009DF806301B0428
:1017F00043EA00639DF808009DF809703B4343EA03
:10180000002303938DF805607FE000BF742700205C
:10181000001000E0004600BF00BF00BF00BF00BFD7
:1018200000BF00BF00BF00BF00BF00BF00BF00BFC0
:1018300000BF00BF00BF00BF00BF00BF00BF00BFB0
:1018400000BF00BF00BF00BF00BF00BF00BF00BFA0
:1018500000BF00BF00BF00BF00BF00BF00BF00BF90
:1018600000BF00BF00BF00BF00BF00BF00BF00BF80
:1018700000BF00BF00BF00BF00BF00BF00BF00BF70
:1018800000BFE3791068C3EBC30300EB830750F894
:101890002330B8885883004600BF00BF00BF00BF98
:1018A00000BF00BF00BF00BF00BF00BF00BF00BF40
:1018B00000BF00BF00BF00BF00BF00BF00BF00BF30
:1018C00000BF00BF00BF00BF00BF00BF00BF00BF20
:1018D00000BF00BF00BF00BF00BF00BF00BF00BF10
:1018E00000BF00BF00BF00BF00BF00BF00BF00BF00
:1018F00000BF00BF049B5B0804939DF805300133D3
:10190000DBB21F2B8DF805307ED8E3791068C3EB6E
:10191000C30300EB830750F82330B888188303987B
:10192000049B18427FF476AF004600BF00BF00BFA3
:1019300000BF00BF00BF00BF00BF00BF00BF00BFAF
:1019400000BF00BF00BF00BF00BF00BF00BF00BF9F
:10195000E3791068C3EBC30300EB830750F823302F
:10196000B8885883004600BF00BF00BF00BF00BF5B
:1019700000BF00BF00BF00BF00BF00BF00BF00BF6F
:1019800000BF00BF00BF00BF00BF00BF00BF00BF5F
:1019900000BF00BF00BF00BF00BF00BF00BF00BF4F
:1019A00000BF00BF00BF00BF00BF00BF00BF00BF3F
:1019B00000BF00BF00BF00BF00BF00BF00BF00BF2F
:1019C00000BF00BF00BF00BF00BF00BF00BF00BF1F
:1019D00000BF00BF00BF00BF00BF00BF00BF00BF0F
:1019E00000BF00BF00BF00BF00BF00BF00BF00BFFF
:1019F00000BF00BF00BF00BF00BF00BF00BF00BFEF
:101A000000BF00BF00BF75E7BDF80A309BB2002BD6
:101A10007FF4CDAE45E6032D00F02881002B3FF486
:101A200040AE4FF400050026164A0495BDF80A3072
:101A3000E079033B9BB2ADF80A300B781768DBB254
:101A40008DF807304B78C0EBC000DBB28DF8083062
:101A50008B780331DBB28DF806309DF807C09DF816
:101A600008301B0243EA0C439DF806C043EA0C030E
:101A700007EB800C039357F820308DF80560BCF815
:101A800004007AE074270020049B5B08049300465E
:101A900000BF00BF00BF00BF00BF00BF00BF00BF4E
:101AA00000BF00BF00BF00BF00BF00BF00BF00BF3E
:101AB00000BF00BF00BF00BF00BF00BF00BF00BF2E
:101AC00000BF00BF00BF00BF00BF00BF00BF00BF1E
:101AD00000BF00BF00BF00BF00BF00BF00BF00BF0E
:101AE00000BF00BF00BF00BF00BF00BF00BF00BFFE
:101AF00000BF00BF00BF00BF00BF00BF00BF00BFEE
:101B000000BF00BF00BF00BF00BF00BF00BF00BFDD
:101B100000BF00BFE07917689DF80530C0EBC0003A
:101B200007EB800C013357F82000BCF80470DBB2DF
:101B30008DF805300783004600BF00BF00BF00BF1F
:101B400000BF00BF00BF00BF00BF00BF00BF00BF9D
:101B500000BF00BF00BF00BF00BF00BF00BF00BF8D
:101B60009DF80530182B7AD0E3791068C3EBC303D6
:101B700000EB830750F82330B88858830398049B00
:101B8000184281D1004600BF00BF00BF00BF00BFA8
:101B900000BF00BF00BF00BF00BF00BF00BF00BF4D
:101BA00000BF00BF00BFE3791068C3EBC30300EBC5
:101BB000830750F82330B88818839DF80530013327
:101BC000DBB28DF80530049B5B080493004600BF30
:101BD00000BF00BF00BF00BF00BF00BF00BF00BF0D
:101BE00000BF00BF00BF00BF00BF00BF00BF00BFFD
:101BF00000BF00BF00BF00BF00BF00BF00BF00BFED
:101C000000BF00BF00BF00BF00BF00BF00BF00BFDC
:101C100000BF00BF00BF00BF00BF00BF00BF00BFCC
:101C200000BF00BF00BF00BF00BF00BF00BF00BFBC
:101C300000BF00BF00BF00BF00BF00BF00BF00BFAC
:101C400000BF00BF00BF00BF00BF00BF00BF00BF9C
:101C500000BF00BF00BF9DF80530182B84D1BDF830
:101C60000A309BB2002B7FF4E0AE1AE5002B3FF464
:101C700018AD4FF400050026124A0495BDF80A304D
:101C80000331033B9BB2ADF80A3011F8033CDBB2E1
:101C90008DF8073011F8023CDBB28DF8063011F8F0
:101CA000013CDBB28DF808309DF807009DF8063046
:101CB0001B0243EA00439DF80800034303938DF899
:101CC0000560E0E074270020004600BF00BF00BFB1
:101CD00000BF00BF00BF00BF00BF00BF00BF00BF0C
:101CE00000BF00BF00BF00BF00BF00BF00BF00BFFC
:101CF00000BF00BF00BF00BF00BF00BF00BF00BFEC
:101D000000BF00BF00BF00BF00BF00BF00BF00BFDB
:101D100000BF00BF00BF00BF00BF00BF00BF00BFCB
:101D200000BF00BF00BF00BF00BF00BF00BF00BFBB
:101D300000BF00BF00BF00BF00BF00BF00BF00BFAB
:101D400000BF00BF00BF00BF00BF00BF00BF00BF9B
:101D500000BF00BF00BF00BF00BF00BF00BF00BF8B
:101D600000BF00BF00BF00BF00BF00BF00BF00BF7B
:101D700000BF00BF00BF00BF00BF00BF00BF00BF6B
:101D800000BF00BF00BF00BF00BF00BF00BF00BF5B
:101D900000BF00BF00BF00BF00BF00BF00BF00BF4B
:101DA00000BF00BF00BF00BF00BF00BF00BF00BF3B
:101DB00000BF00BF00BF00BF00BF00BF00BF00BF2B
:101DC00000BF00BF00BF00BF00BF00BF00BF00BF1B
:101DD00000BF00BF00BF00BF00BF00BF00BF00BF0B
:101DE00000BF00BF00BF00BF00BFE3791068C3EBB6
:101DF000C30300EB830750F82330B88858830046AC
:101E000000BF00BF00BF00BF00BF00BF00BF00BFDA
:101E100000BF00BF00BF00BF00BF00BF00BF00BFCA
:101E200000BF00BF00BF00BF00BF00BF00BF00BFBA
:101E300000BF00BF00BF00BF00BF00BF00BF00BFAA
:101E400000BF00BF00BF00BF00BF00BF00BF00BF9A
:101E500000BF00BF00BF00BF00BF00BF00BF00BF8A
:101E600000BF00BF00BF00BF00BF00BF00BF049B9A
:101E70005B0804939DF805300133DBB2172B8DF816
:101E8000053000F2EB80E3791068C3EBC30300EB8D
:101E9000830750F82330B88818830398049B1842AE
:101EA0007FF412AF004600BF00BF00BF00BF00BFFD
:101EB00000BF00BF00BF00BF00BF00BF00BF00BF2A
:101EC00000BF00BF00BF00BF00BF00BF00BF00BF1A
:101ED00000BF00BF00BF00BF00BF00BF00BF00BF0A
:101EE00000BF00BF00BF00BF00BF00BF00BF00BFFA
:101EF00000BF00BF00BF00BF00BF00BF00BF00BFEA
:101F000000BF00BF00BF00BF00BF00BF00BF00BFD9
:101F100000BF00BF00BF00BF00BF00BF00BF00BFC9
:101F200000BF00BF00BFE3791068C3EBC30300EB41
:101F3000830750F82330B8885883004600BF00BF9D
:101F400000BF00BF00BF00BF00BF00BF00BF00BF99
:101F500000BF00BF00BF00BF00BF00BF00BF00BF89
:101F600000BF00BF00BF00BF00BF00BF00BF00BF79
:101F700000BF00BF00BF00BF00BF00BF00BF00BF69
:101F800000BF00BF00BF00BF00BF00BF00BF00BF59
:101F900000BF00BF00BF00BF00BF00BF00BF00BF49
:101FA00000BF00BF00BF00BF00BF00BF00BF00BF39
:101FB00000BF00BF00BF00BF00BF00BF00BF00BF29
:101FC00000BF00BF00BF00BF00BF00BF00BF00BF19
:101FD00000BF00BF00BF00BF00BF00BF00BF00BF09
:101FE00000BF00BF00BF00BF00BF00BF00BF00BFF9
:101FF00000BF00BF00BF00BF00BF00BF00BF00BFE9
:1020000000BF00BF00BF00BF00BF00BF00BF00BFD8
:1020100000BF00BF00BF00BF00BF00BF00BF00BFC8
:1020200000BF00BF00BF00BF00BF00BF00BF00BFB8
:1020300000BF00BF00BF00BF00BF00BF00BF00BFA8
:1020400000BF00BF00BF00BF00BF10E7BDF80A30EF
:102050009BB2002B7EF496AFFFF723BBBDF80A308E
:102060009BB2002B7FF409AEFFF71BBBF0B5064611
:1020700040889DF8144088429DF818C026D9357ACA
:102080004DB16A436B436C4305FB0CF5120A1B0A06
:10209000240A4FEA152CF768B679062E0CBF0420E7
:1020A00003204843023E3918062E16D8DFE806F012
:1020B000041508040F0404003B544A708C7005E0BA
:1020C000FE2A28BFFE223A544C708B70F0BD3A5461
:1020D0004B708C7081F803C0F8E73A544B70EDE711
:1020E0004388F0B58B422DD9067AC2F30743C2F379
:1020F0000724D5B23EB1734374437543C3F307233A
:10210000C4F307242D0A90F806C0C768BCF1060F77
:102110000CBF042603264E43ACF1020CB919BCF1E6
:10212000060F1DD8DFE80CF0041C08040F0404009F
:10213000BC554B708D7005E0FE2B28BFFE23BB55B0
:102140004D708C70F0BDBB554C708D70037A120EC3
:1021500013B9D2B2CA70F5E75A43C2F30722F9E7BE
:10216000BB554C70E6E742EA012242EA0040704764
:1021700042EA012242EA004040EA03607047408898
:102180007047037A4A1CD2B2934270B51ED0013B0D
:1021900013F0FF03C4680CD0FF290FBF4FF6FF7187
:1021A000110201F1FF31B1FBF3F30CBFB1FBF3F30B
:1021B0009BB225468688291B89B28E4205D929788B
:1021C0005943091205F8011BF4E7027270BD0000C3
:1021D00008B500F051FC014B186008BD74270020C1
:1021E000704710B504460C21FDF75BFF204610BD7B
:1021F00010B5054B04460360037C1BB9406808B169
:1022000000F088FE204610BD28A90A0810B5044633
:10221000FFF7EEFF20461421FDF743FF204610BDD7
:1022200010B5074B04460360037C1BB9406908B135
:1022300000F070FE2046FFF7DBFF204610BD00BF18
:1022400038A90A0810B50446FFF7EAFF20462C21FA
:10225000FDF727FF204610BD38B5037C04460D4628
:102260000BB1002038BD406838B100F05BFE00289B
:10227000F7D0C4E901050120F4E7084600F042FE6A
:10228000F5E770B5C3680E46D11843680446154695
:1022900073B183688B420BD36068E3682A4631468A
:1022A000184405F0CFFC0120E2682A44E26070BDCA
:1022B0002046FFF7D1FF0028EED1F8E700210346C2
:1022C000C160406818B19A680AB105F0C9BC70478E
:1022D000C0E901120022C260012210B502744361FC
:1022E000024A029B0260C36110BD00BF38A90A0800
:1022F000D1E905239A42044B38BF8260C0E900311E
:1023000024BF00238360704748A90A0870B513688A
:102310009D68136803F1100414608669B4420AD200
:102320009B698C68A34201DAAB42F2DDA342CCBFC9
:102330000020012000E0002070BD2DE9F34104469B
:10234000174600269846089D01F110030193019855
:10235000A36983421AD982688B689A4216DAAE4220
:102360000BD1386001AA2046FFF7D0FF28B1019BAE
:10237000C8F8003002B0BDE8F081204601AAFFF79E
:10238000C5FF20460136FFF7C1FFE0E70020F1E777
:10239000F0B50024013BD1E90176F61BA64208DD29
:1023A000A34206DD45683D442D5D013402F8015B22
:1023B000F1E700231370F0BD1FB5144610236A46E1
:1023C000FFF7E6FF0021684606F012FB20600120BF
:1023D00004B010BD07B50191816819B1406801AA28
:1023E000FFF7EAFF019803B05DF804FB10B504465F
:1023F00000680B4628B100F07CFEE3680133E3601F
:1024000010BD60680028F8D0D4E90221013A8A4260
:1024100088BF4354F1E77F2870B50C46C1B204D899
:102420002046BDE87040FFF7E1BF01F03F01B0F585
:10243000006FC0F3871641F0800506D246F0C00158
:102440002046FFF7D3FF2946EAE7030B43F0E001FC
:102450002046FFF7CBFF06F03F0141F08001EFE798
:102460002DE9FF47002480460F461546A1464E68D9
:10247000DFF8C4A0B868B0425ADDD8F80430995DDE
:102480009A19002C4BD0752905D86D2907D86229D7
:102490001ED066291ED02846FFF7A8FF3DE0A1F117
:1024A0006E04072CF7D80FF2080C5CF824F000BF7C
:1024B000D9240A0897240A0897240A0897240A08A6
:1024C000DD240A0897240A08E1240A08E5240A08FA
:1024D0000821E0E70C21DEE70A21DCE70D21DAE73D
:1024E0000921D8E7311D884217DD02A908460433C7
:1024F000334412F8014F9A4201F8014BF9D1514689
:1025000001AA8DF80C9000F015FD012805D129468F
:10251000BDF80400FFF77FFF0536002404E05C29C6
:1025200004D02846FFF762FF0136A3E70124FBE74A
:10253000012004B0BDE8F08718A90A087FB50C4651
:10254000154606460B49104600F0ABFDD4E90131B3
:10255000C91A2846013100F065FD00236A4621466C
:102560003046CDE9013300950393FFF779FF04B0BE
:1025700070BD00BF5DA90A082DE9F04389B005468A
:10258000884604A8124916469946002700F076FDB1
:102590004B4641462846009703AAFFF7CEFE044665
:1025A00070B12846039904AAFFF7C8FF044608B98A
:1025B0000137EDE7314604A800F0A8FD0028F7D068
:1025C00004A800F011FD204609B0BDE8F08300BF6B
:1025D0005DA90A0873B50D4689680446094E61B1C4
:1025E000686801ABFFF7C8FF38B16B68C4E90063E6
:1025F000019B2046A36002B070BD6B68C4E9006314
:102600000023F6E748A90A082DE9F04F4FF0010C26
:102610004FF0FF36002704464068D4F800E09645A6
:1026200080F0C38111F80E80B8F1000F00F0BD8179
:10263000B8F13A0F00F09C8033D8B8F1220F00F0C7
:10264000AB8010D8A8F109085FFA88F8B8F1170F25
:102650000DD8A34D0CFA08F818EA050F07D0256825
:1026600001352560D9E7B8F12C0F00F03B81D4F893
:10267000008042450ED911F808505DB13A2D00F2A4
:1026800073811F2D00F25A810A2D00F26A81082DF4
:1026900040F26081002B40F06C8108F1FF3525602D
:1026A000A9E0B8F17B0F3AD031D8B8F15B0F36D042
:1026B000B8F15D0FDBD1002BD1D04FF00209656876
:1026C000013D03EB0518002D59DBD8F804A0BAF141
:1026D000FF3F50D0D8F808A0BAF1FF3F4BD198F88F
:1026E00000B0CB454ED10EF1010EC4F808A0C8F8D9
:1026F00008E003EB051EDEF80480B8F1FF3F44D08C
:10270000DEF80880B8F1FF3F3FD1A560A7E7B8F138
:102710007D0FACD1002BA2D04FF00109CFE70130E3
:10272000002B9CD06568DDF824E0AE454CD905F15E
:10273000010EC4F804E003EB051ECEE90166CEF8F5
:102740000C704FEA051AA568B5F1FF3F1FBF03EBF8
:102750000519D9F80C500135C9F80C50B8F17B0FA8
:102760000CBF0125022503F80A502568CEF8045055
:102770006568013DC9E7013DA8F11008A3E70135EF
:102780007FF46DAF6FF0010020E0013DB5F1FF3F38
:10279000AEF1100EAFD162E70EF10109C4F800905E
:1027A000D4F80080424540F2958011F80850002D81
:1027B00000F09080222D2FD1EBB16568DDF82480E8
:1027C000A84505D8C4F800E04FF0FF30BDE8F08F11
:1027D0004FF0030A05F1010E4FEA051803EB05154A
:1027E000C4F804E0C5E90166EF60D4F800E003F83E
:1027F00008A0C5E9019EA5680130B5F1FF3F3FF48F
:102800002EAF002B3FF42BAF03EB051EDEF80C5070
:102810000135CEF80C5022E75C2D11D108F10105ED
:10282000AA420DD925604D5D752D2ED86D2D0BD882
:10283000662D2AD85B2D1FD8222D01D02F2D24D113
:10284000256801352560ABE76E3D072D1DD80FF2D9
:10285000080A5AF825F000BF41280A088B280A0800
:102860008B280A088B280A0841280A088B280A089E
:1028700041280A0891280A0840F241485C3DEDB21F
:102880000CFA05F515EA080FDAD1C4F800E079E78B
:102890004FF0040A08F102052560D4F80080424593
:1028A00003D82568013D2560CAE711F80850002DBE
:1028B000F7D0A5F1300BBBF1090F04D925F02005A5
:1028C000413D052DE1D808F10105BAF1010A256065
:1028D000E3D1E6E7C4F800E06FF0020076E700BF5E
:1028E00013008000002B3FF4BAAEA568B5F1FF3F9E
:1028F0003FF4B5AE2D015D5D013D012D7FF6AFAE1C
:10290000656805F1FF3803EB051EB8F1000FFFF60F
:10291000A6AE1EF8105C013D012D0AD85EF80C5CD5
:10292000013506D05EF8085C013502D1C4F8088094
:1029300095E608F1FF38AEF1100EE6E7A5F12009A3
:10294000DFF890A05FFA89F90CFA09F919EA0A0F81
:102950007FF4A0AE203D5E2D97D808F101052560DB
:1029600085E60D2DF6D195E605F0DF09B9F15D0F8D
:10297000F8E76568DDF82480A8457FF623AF4FF0BF
:10298000040A05F101084FEA051903EB0515C4F81F
:102990000480C5E90166EF60D4F8008003F809A05F
:1029A000C5E901E82568013D79E6002B3FF40EAF4B
:1029B0006268511E03EB02130029FFF607AF53F8BC
:1029C0000C2C013203D053F8082C013284D0013989
:1029D000103BF1E701100004F7B5C268044612B9D4
:1029E000002003B0F0BD436900F12006ABB1002127
:1029F000C0E908114FF0FF318162C169009141685F
:102A00003046FFF701FE431C2CD1257C002DE7D179
:102A1000606900F07FFA6561E56100254FF0FF37DE
:102A20002B463046C4E90855E2686168A762009504
:102A3000FFF7EAFD0028D3DBE0611BD0000100F0C6
:102A400061FAE2690346606100923046C4E90855C4
:102A5000E2686168A762FFF7D7FD636903EB0013C3
:102A6000A36105E00028BBDB636903EB0010A061F4
:102A70000120B6E76369F3E708B5024B1B681B68E2
:102A8000019308BDB001060808B5024B1B685B68DE
:102A9000019308BDB001060808B5024B1B689B688E
:102AA000019308BDB001060808B5024B1B68DB683E
:102AB000019308BDB001060808B5024B1B681B69ED
:102AC000019308BDB001060808B5024B1B681B6BDB
:102AD000019308BDB001060808B5024B1B685B688E
:102AE000019308BD9C01060808B5024B1B681B69D1
:102AF000019308BD9C01060808B5024B1B685B6981
:102B0000019308BD9C01060808B5024B1B689B6D2C
:102B1000019308BD9C01060808B5024B1B68DB6DDC
:102B2000019308BD9C01060808B5024B1B685B6E4B
:102B3000019308BD9C01060808B5024B1B685B6C3D
:102B4000019308BDD001060808B5024B1B689B6CB9
:102B5000019308BDD001060808B5024B1B685B6AEB
:102B6000019308BDC401060808B5024B1B689B6AA7
:102B7000019308BDC401060808B5024B1B68DB6A57
:102B8000019308BDC401060808B5024B1B681B6B06
:102B9000019308BDC401060808B5024B1B685B6BB6
:102BA000019308BDC401060808B5024B1B689B6B66
:102BB000019308BDC401060808B5024B1B681B6CD5
:102BC000019308BDC401060808B5024B1B681B6EC3
:102BD000019308BDC401060808B5024B1B681B6CB5
:102BE000019308BDAC01060808B5024B1B68DB6CFD
:102BF000019308BDAC01060808B5024B1B689B6D2C
:102C0000019308BDAC01060808B5024B1B68DB6DDB
:102C1000019308BDAC01060808B5024B1B681B6E8A
:102C2000019308BDAC01060808B5024B1B685B6E3A
:102C3000019308BDAC01060808B5024B1B689B6EEA
:102C4000019308BDAC01060808B5024B1B68DB6E9A
:102C5000019308BDAC01060808B5024B1B681B6F49
:102C6000019308BDAC01060808B5024B1B685B6FF9
:102C7000019308BDAC01060808B5034B1B68D3F8E7
:102C80008030019308BD0000AC01060808B5024B76
:102C90001B68DB69019308BDB401060808B5024B47
:102CA0001B681B6A019308BDB401060808B5024BF6
:102CB0001B681B68019308BDD801060808B5024BC4
:102CC0001B685B68019308BDD801060808B5024B74
:102CD0001B681B69019308BDD801060808B5024BA3
:102CE0001B685B69019308BDD801060808B5024B53
:102CF0001B689B69019308BDD801060808B5024B03
:102D00001B68DB69019308BDD801060808B5024BB2
:102D10001B681B6A019308BDD801060808B5024B61
:102D20001B689B6C019308BDC001060808B5024BE7
:102D30001B681B68019308BDA401060808B5024B77
:102D40001B685B68019308BDA401060808B5024B27
:102D50001B685B69019308BDA401060808B5024B16
:102D60001B68DB6A019308BDA401060808B5024B85
:102D70001B68DB6C019308BDA401060808B5024B73
:102D80001B685B6D019308BDA401060808B5024BE2
:102D90001B689B6D019308BDA401060808B5024B92
:102DA0001B689B6F019308BDA401060808B5024B80
:102DB0001B68DB6F019308BDA401060808B5034B2F
:102DC0001B68D3F89030019308BD0000A4010608E9
:102DD00008B5034B1B68D3F89C30019308BD000075
:102DE000A401060808B5024B1B685B68019308BD87
:102DF000C801060808B5024B1B689B68019308BD13
:102E0000C801060808B5024B1B68DB68019308BDC2
:102E1000C801060808B5024B1B681B69019308BD71
:102E2000C801060808B5024B1B685B69019308BD21
:102E3000C801060808B5024B1B689B69019308BDD1
:102E4000C801060808B5024B1B68DB69019308BD81
:102E5000C801060808B5024B1B681B6A019308BD30
:102E6000C801060808B5024B1B681B6B019308BD1F
:102E7000C801060808B5024B1B685B6B019308BDCF
:102E8000C801060808B5024B1B681B6C019308BDFE
:102E9000C801060808B5024B1B685B6C019308BDAE
:102EA000C801060808B5024B1B689B68019308BD62
:102EB000CC01060808B5024B1B685B69019308BD8D
:102EC000CC01060808B5024B1B681B6A019308BDBC
:102ED000CC01060808B5024B1B685B6A019308BD6C
:102EE000CC01060808B5024B1B681B6B019308BD9B
:102EF000CC01060808B5024B1B68DB6B019308BDCB
:102F0000CC01060808B5024B1B681B68019308BD7D
:102F1000A001060808B5024B1B685B68019308BD59
:102F2000A001060808B5024B1B689B68019308BD09
:102F3000A001060808B5024B1B685B69019308BD38
:102F4000A001060808B5024B1B689B69019308BDE8
:102F5000A001060808B5024B1B68DB6A019308BD97
:102F6000A001060808B5024B1B681B6B019308BD46
:102F7000A001060808B5024B1B68DB6B019308BD76
:102F8000A001060808B5024B1B681B6C019308BD25
:102F9000A001060808B5024B1B685B6C019308BDD5
:102FA000A001060870B5002604460D4640F8086FDB
:102FB000FFF7C2FD28462570FFF768FE20466660D1
:102FC00070BD000002220020044B1A60044B054A29
:102FD000C3E900009A60FFF7B1BE00BF842700205C
:102FE000782700200000FFFF10B504460068FFF7B7
:102FF00091FF204610BD10B50446006808B1FFF7E8
:1030000089FF0023C4E90133236010BD38B50446AD
:103010000D4600680131FFF785FF10B1C4E90005D6
:10302000012038BD10B50368044623B143688B42C4
:1030300001D3012010BD2046FFF7E8FF0028F9D09A
:10304000A368002BF5D122681370F2E770B50E4625
:10305000114604461546FFF7E5FF20B92046FFF765
:10306000CAFF204670BD2A4631462068A56004F09C
:10307000E9FD00212268A368D154F2E738B50023A6
:1030800004460D46C0E900338360037339B1084636
:1030900004F087FE294602462046FFF7D7FF204668
:1030A00038BD38B505460C4649B1084604F079FEEE
:1030B000214602462846FFF7C9FF284638BDFFF7DC
:1030C0009AFFFAE770B505460E4609B9002070BDB3
:1030D0006AB1846814442146FFF7A4FF0028F5D0A4
:1030E0002868AB683146184404F038FEAC60012013
:1030F000EDE7002307B501228DF8041001A98DF832
:103100000530FFF7DFFF03B05DF804FB08B5826808
:103110003AB921B10878B0FA80F0400900E0012006
:1031200008BD006809B90078F5E704F00DFEF2E784
:10313000F8B506460D4600248F18BD420CD0336802
:1031400030469B6815F8011B9847031E01DB1C44A1
:10315000F3E7002C08BF1C462046F8BD70B50546B5
:103160000C46084649B104F01CFE2B680246214675
:103170002846BDE87040DB68184770BD03689B684F
:10318000184738B50D210546FFF7F8FF0A21044618
:103190002846FFF7F3FF204438BD0023012A98BFDB
:1031A0000A2230B58BB00C468DF8243009A925468B
:1031B000B4FBF2F404FB1253DBB2092B94BF30339F
:1031C0003733DBB2AA4201F8013DF0D9FFF7C6FF61
:1031D0000BB030BD2DE9F74F054619461046924613
:1031E0001F469DF8306003F0AFFE40B151492846BC
:1031F000FFF7B4FF0446204603B0BDE8F08F27F088
:1032000000444FF0FF32504621464B4B03F09CFEEA
:1032100048B94FF0FF3250462146474B03F076FE47
:1032200008B94649E3E74FF0604250463946444BFF
:1032300003F080FE08B14349D9E74FF060425046A1
:103240003946414B03F058FE0028F4D100220023F8
:103250005046394603F050FE044630B12D21284631
:10326000FFF78CFF044607F100474FF0000B0020EA
:103270004FF000083549DFF8D8905FFA8BF39E4293
:1032800006D942464B4603F0EFFC0BF1010BF4E785
:103290003B46524603F008FA8946804603F092FE08
:1032A000074603F03DFB02460B464046494603F005
:1032B000F9F90A228046894628463946FFF76DFF0C
:1032C0000444002E97D028462249FFF747FF4FF0CD
:1032D000000ADFF87CB00444002E8CD052465B46D6
:1032E0004046494603F096FB8046894603F042FE7D
:1032F000071E1BDA2D212846FFF740FF03467942BF
:103300000A2228460193FFF748FF019B013E034430
:1033100038461C4403F014FB02460B46404649461F
:1033200003F0C0F9F6B280468946D5E73946002356
:10333000E6E700BF50A90A08FFFFEF7F54A90A087B
:10334000FFFFEF4158A90A08FFFFEFC10000E03F6F
:10335000000024405CA90A0837B59DF818100546FE
:103360000091FFF737FF04462846FFF70AFF204485
:1033700003B030BD37B504460846154603F0F2FAEF
:10338000009502460B462046FFF7E6FF03B030BD2E
:10339000002340681A461946FFF744BD38B5046853
:1033A00005467CB16368013B63605BB923682046D6
:1033B0009B689847A368013BA3601BB9236820461C
:1033C000DB689847284638BD014B024A1A607047AF
:1033D000882700205EA90A082DE9F041154BDFF887
:1033E0005880D3E90067154B801947EB0107D3E9F3
:1033F0000061861947EB0107D8E90023BB4208BFEB
:10340000B2428CB013D003A96846CDE9006704F03E
:1034100027FB089B0A4D03F26C7303AC08930FCC97
:103420000FC50FCC0FC5C8E9006723682B600CB02F
:10343000BDE8F081C0270020C8270020B827002061
:103440009027002008B50020FFF74CFD28B1FFF7BA
:1034500031FD80F00100C0B208BD0120FCE7000092
:1034600008B5FFF7B9FF024B1869013008BD00BF6E
:103470009027002010B50A49044604F0BFF868B947
:103480002046084904F0D8F840B90749204603F01F
:1034900017FF04F021F9054BC3E9000110BD00BF7F
:1034A000000040C10000604100006145C0270020CD
:1034B00010B50020FFF728FB0446A0B9FFF736FC43
:1034C000012810D12046FFF761FC60B9FFF7BAFF71
:1034D00010B9FFF7E7FCF9E7FFF7B4FFBDE81040CC
:1034E0000020FFF711BB204610BD1FB5FFF7E0FF1E
:1034F00010220021684604F0B3FB00216846FFF764
:1035000013FB009805B05DF804FB000008B5FFF759
:10351000ECFFC117FFF760FF014B986808BD00BFC3
:103520009027002008B5FFF7E0FFC117FFF754FF11
:10353000014B586808BD00BF9027002008B5FFF771
:10354000D4FFC117FFF748FF014B186808BD00BF43
:103550009027002008B5FFF7C8FFC117FFF73CFF11
:10356000014BD86808BD00BF9027002008B5FFF7C1
:10357000BCFFBDE80840C117FFF772BF024B1A68D5
:10358000024B1A60704700BF040000208C27002007
:103590008A4210B507D0029C401AE41A6043521ABE
:1035A00090FBF2F0184410BD0021FFF7CFBB10B51F
:1035B0008368044613B1032201469847204610BD94
:1035C00013B56C460B46024603C884E8030093E833
:1035D000030082E8030094E8030083E8030002B0DC
:1035E00010BD00000022014B9A607047D0270020D8
:1035F000014B1860704700BF0C00002008B5134B4A
:1036000043B100F011FC03681B699847002801DDF5
:10361000AFF300800E4B43B100F0A2FE03681B69BC
:103620009847002801DDAFF300800A4B0BB1AFF3E0
:103630000080094B43B100F031FC03681B699847D7
:10364000002801DDAFF3008008BD00BF00000000CE
:1036500000000000000000000000000008B5FFF7B7
:10366000CDFFFFF749FA014B186008BD542B00202D
:103670000548064A08B5121A054904F0E3FA054B55
:10368000054A1A6008BD00BF0040024004400240E5
:1036900088B10A08004002401E1C279A002307B583
:1036A0001A466FF077010093FFF792FB03B05DF8C5
:1036B00004FB000007B543880A2B08D0502B0BD120
:1036C000094B1B684BB103B05DF804EB1847FFF7DB
:1036D000E5FF03B05DF804FB00231A466FF07701A5
:1036E0000093FFF775FBF4E7E4270020002110B5F5
:1036F0001148FFF74FFC114B1A68114B9A420CBF4F
:10370000012200220F4B1A7001D0FFF7B1FFFFF723
:10371000E3F9044604F0ACFA0B4B13B12046AFF3C7
:10372000008000210848FFF7E5FBBDE810400021BC
:103730000648FFF743BB00BFF1350A0800400240CE
:103740001E1C279AE027002000000000B5360A085A
:1037500070470020704710B504461021FCF7A1FC0B
:10376000204610BD08B5FFF7F6FF08BD002230B5B2
:103770004FF69C74026084808D888C800C688580F4
:1037800004600A6030BD10B504460068FFF7C2FB54
:10379000204610BD38B5C468F4B12378022B03D19C
:1037A00004F10C00FFF7EFFF656835B12846FFF71D
:1037B000FEFE10212846FCF774FCA56835B12846AA
:1037C000FFF7F5FE10212846FCF76BFC2046BDE80C
:1037D00038401421FCF765BC38BD0B6803604B68AA
:1037E000436013B15A6801325A60704737B50446D6
:1037F00068460D46FFF7F1FF009B019A2360002306
:10380000626001A801930093FFF7C8FD35B1281D40
:10381000FFF7C4FD08212846FCF743FC204603B00F
:1038200030BD826810B50AB900F00AFEC368BDE871
:103830001040184708B5006800F11001FFF7F1FFCC
:1038400008BD826810B50AB900F0FAFDC368BDE88A
:103850001040184708B5006800F11001FFF7F1FFAC
:1038600008BD000038B500230446036010200D4653
:10387000FCF713FC28B10123C0E90133024BC560FA
:1038800003602060204638BD88A90A0838B50023A7
:1038900083608B6804460D462BB102229847EB6883
:1038A000E360AB68A360204638BD0000F0B589B086
:1038B00004686846FFF75AFF4FF00203D4E84F2F21
:1038C000002A03D1C4E8413F0029F7D125D104F1F2
:1038D0000C0569462846FFF749FF0123BFF35B8FBC
:1038E00063700020BFF35B8F04F1080353E8006F9F
:1038F00043E80002002AF9D1BFF35B8F6EB1FFF7F6
:1039000035FA78B129463046FFF78BFF3046FFF78E
:103910004EFE10213046FCF7C4FB6846FFF733FF2C
:1039200009B0F0BD314602A8FFF7B0FFE068B4F976
:10393000105008B104F01AFA06901020ADF81C508F
:10394000FCF7ABFB0546E8B1002787601820FCF7C1
:10395000A4FB044688B10146876002A8FFF730FE49
:10396000049BA268A360059B0492E26806A9E36039
:1039700004F110000592FFF7F9FE084B2C60EB6094
:10398000074BAB6006A8FFF7FEFE02A8FFF70FFE8D
:10399000002229460348FFF7F1F9B7E735380A084E
:1039A000C13A0A08853F0A082DE9F0478AB0054662
:1039B0000C46174698469DF84890FFF77BFA07AEED
:1039C000824638BB4FF62E73059005A93046ADF8F8
:1039D0001830FFF7CBFE1420FCF75FFB044648B11C
:1039E000022303700123C0E901AA437031460C3061
:1039F000FFF7BCFE2846214640F8044BFFF732FF94
:103A00003046FFF7C0FE05A8FFF7BDFE28460AB006
:103A1000BDE8F0870C234FF0000A1420CDE908AA76
:103A20000793FCF73AFB014628B1C0E901AA80F8E8
:103A300000A080F801A004A80391FFF713FF1F4B1B
:103A400008200893FCF729FB824610B103A9FFF771
:103A5000C4FE42463946204600965FFA89F3CDF807
:103A600024A0FFF72FFAB8B9039B5B7803F0FF029D
:103A700093B94FF69C7305A903A80592ADF81830C9
:103A8000FFF714FF05A8FFF77EFE05A80999FFF7C9
:103A9000ADFE06A8FFF782FC03A905A8FFF79DFE6F
:103AA000059B069A2B6000236A6006A8069305937F
:103AB000FFF774FC04A8FFF771FCA7E73D3B0A0879
:103AC000012AF8B5054603D10B6803600020F8BD54
:103AD000022A10D0032AF9D10468002CF6D004F190
:103AE0001000FFF750FE2046FFF761FD1821204629
:103AF000FCF7D7FAEAE718200E68FCF7CEFA04467E
:103B000050B13146FFF7C2FE3069B6F9147008B102
:103B100004F02CF92061A7822C60D7E738B5002388
:103B200083608B6804460D462BB102229847EB68F0
:103B3000E360AB68A360204638BD0000F0B50446E2
:103B400089B00D4601A81146FFF750FEA4B124B27A
:103B50001DB1284604F00AF9054601A803A90395FA
:103B6000ADF81040FFF7A2FE03A8FFF70CFE02A875
:103B7000FFF714FC09B0F0BD0123019DD5E84F2FDC
:103B8000002A03D1C5E8413F0029F7D1EFD12B73BB
:103B9000BFF35B8F6B70BFF35B8F2B1D53E8006F20
:103BA00043E80042002AF9D1BFF35B8F002EDED03C
:103BB0002046FFF7DBF8074660B1304605F10C01FF
:103BC000FFF73FFE3046FFF7F2FC10213046FCF7CE
:103BD00068FACCE7314603A8FFF7A0FF2B7B102043
:103BE0008DF81C30FCF759FA0546D0B187601420D7
:103BF000FCF753FA044678B10146876003A8FFF743
:103C0000DFFC059BA268A360069B0592E268E36067
:103C10009DF81C3006922374064B2C60EB60064B1B
:103C2000AB6003A8FFF7C3FC002229460348FFF757
:103C3000A5F8C7E755380A08413C0A08853F0A0835
:103C4000012A70B5044603D10B680360002070BDE3
:103C5000022A0CD0032AF9D10468002CF6D02046A1
:103C6000FFF7A5FC14212046FCF71BFAEEE7142011
:103C70000E68FCF712FA054620B13146FFF74EFFF9
:103C8000337C2B742560E1E77047F8B50E460024BD
:103C900000F10807051D17F8011D0A223046FFF73D
:103CA0007CFAAF42044401D12046F8BD002CF2D08A
:103CB0002E213046FFF762FA0444ECE710B50446C3
:103CC0001821FCF7EEF9204610BD000010B504469F
:103CD000044B1122002140F8043B03F0C1FF2046B1
:103CE00010BD00BFA4A90A080346074A10B543F84F
:103CF000042B01F1100251F8044B914243F8044B9C
:103D0000F9D10A781A7010BDA4A90A08024AC0E9BC
:103D10000021042202757047A4A90A0810B59DF875
:103D2000084044EA0324042344EA024444EA0164C8
:103D30004460037510BD000013B5044C04609DF889
:103D400010400094FFF7EAFF02B010BDA4A90A08D2
:103D5000417470477047704708B50021007CFEF73A
:103D6000C5FF40EAE07008BD08B50121007CFEF700
:103D7000BDFF40EAE07008BD08B5007CFEF7AEFF6D
:103D800020EAE07008BD08B5007CFEF79FFF20EA3E
:103D9000E07008BD38B50446007C0D46FEF79EFF76
:103DA000002801DC607C28B12946207CFEF7A6FFB4
:103DB00020EAE07038BD007CFEF7A8BF10B50446CD
:103DC0001421FCF76EF9204610BD704710B54FF472
:103DD0007A73044608460021C4E90113044B207499
:103DE0002360012311466374FEF760FF204610BD77
:103DF000B8A90A080022007CFEF760BF10B504468F
:103E00001422002103F02CFF054B20466360054B74
:103E1000E36040F2011323818123238210BD00BFA0
:103E2000182800201929002030B50E4D87B001A8B0
:103E3000FFF7E4FF2978BFF35B8F11F001040ED187
:103E40002846FCF730F950B1214601AA0648FFF791
:103E5000BDFF2846FCF72CF9044803F0FBFD02489F
:103E600007B030BDE8270020F0270020553D0A08A4
:103E700010B504461422002103F0F2FE054B204643
:103E80006360054BE36040F20113238181232382A9
:103E900010BD00BF9A2900209B2A002010B50E4CAF
:103EA00086B001A8FFF7E4FF2378BFF35B8FDB0741
:103EB0000ED42046FCF7F7F850B1012101AA0748BB
:103EC000FFF784FF2046FCF7F3F8054803F0C2FD36
:103ED000024806B010BD00BFEC27002004280020D7
:103EE000CB3D0A0870474174704708B5007CFEF767
:103EF00063FE20EAE07008BD08B5007CFEF734FEE2
:103F000020EAE07008BD08B5007CFEF73DFE40EAFF
:103F1000E07008BD08B5007CFEF72EFE40EAE070B8
:103F200008BD007CFEF738BE70B5467C04460D46E1
:103F30002EB12946207CBDE87040FEF70DBE007C06
:103F4000FEF73AFE0028F4DC304670BD10B504469A
:103F50001421FCF7A6F8204610BD000010B54FF460
:103F60007A730446084611460022C4E90123044B33
:103F70002074236001236374FEF726FE204610BDE3
:103F8000E8A90A0810B5836804460BB900F058FA8E
:103F9000C3689847A3681BB103222146204698476F
:103FA0002046BDE810401021FCF77BB87047F8B5FB
:103FB000064615460C468F18BC4206D0336830467C
:103FC0009B6814F8011B9847F6E72846F8BD0022C5
:103FD000007CFEF721BE0021007CFEF725BE0021FB
:103FE000007CFEF729BE0021007CFEF72DBE0021DB
:103FF000007CFEF731BE10B504461421FCF751F8E1
:10400000204610BD10B54FF47A73044608460021CF
:10401000C4E90113034B114623602074FEF72CFE04
:10402000204610BD18AA0A080022007CFEF7D4BD65
:104030000023007C1A461946FEF7D6BD0022007CFC
:10404000FEF7DABDC9B2FFF7F9BF0022007CFEF728
:10405000DBBD0121FFF7F9BF10B5044628B103F01D
:1040600035FE90FBF4F303FB1404204610BD884298
:1040700010B5044603DA081AFFF7EEFF04442046A1
:1040800010BD002240681146FEF7C4BEF0B51546CB
:1040900089B011220E460446002103A803F0E0FD7A
:1040A000284603F07EFE002781B2736828460097F9
:1040B00003AAFEF733FE30B139462046FFF726FE4D
:1040C000204609B0F0BD204603A9FFF70DFEF7E733
:1040D000002240681146FEF7BDBE0022406811462E
:1040E000FEF7C8BE00224068FEF7BCBE0022406852
:1040F00081F00101FEF7A6BE002340681A4619466A
:10410000FEF798BE002240681146FEF773BE0022FB
:1041100002214068FEF776BE002340681A46FEF78B
:1041200061BE00000422024B5A60024A1A607047C6
:104130001C2B002040AA0A08002340681A46FEF7FC
:1041400051BE002202214068FEF75CBE002240689A
:104150001146FEF74FBE002240681146FEF75ABED8
:10416000002340681A461946FEF75CBE00234068EB
:104170001A461946FEF75EBE00214068FEF782BE71
:1041800000214068FEF786BE0022406881F00101F0
:10419000FEF758BE00224068FEF764BE0022406869
:1041A0001146FEF767BE002240681146FEF752BE78
:1041B00070B515468EB0044608A8FFF787FD11229A
:1041C000002103A803F04CFD0026284603F0E9FD7A
:1041D0000A4B009681B25B68284603AAFEF79EFD53
:1041E00030B131462046FFF791FD20460EB070BD3C
:1041F000204603A9FFF778FDF7E700BF1C2B00203E
:10420000024B034A1A6000225A607047242B002098
:104210007CAA0A08024B986808B1FEF795BC704763
:10422000302B0020172870B5044601D9002070BD3E
:10423000A0F10D03022B0BD9012824D800F0DAF8E5
:104240000021007CFEF710FD80F00100C0B2EEE717
:10425000124E3178BFF35B8F11F001050DD130465E
:10426000FBF721FF48B129460D48FEF79BFE30467B
:10427000FBF71EFF0B4803F0EDFB094B1878FEF728
:104280000DFD0028D2D1123C012C05D800F068F8B1
:10429000007CFEF789FCD7E70120C8E72C2B002023
:1042A000302B002015420A08172838B504460D4661
:1042B0000AD8FF2908D0FFF7B5FF28B129462046C4
:1042C000BDE83840FEF7E8BB38BD38B504460D46BA
:1042D000FEF7EAFBFF2810D0062804D84D2323FA66
:1042E00000F0C30709D42046FFF79CFF28B12946F8
:1042F0002046BDE83840FEF7DFBB38BD10B50446A8
:1043000009289CBF0A34A4B22046FFF78BFF50B1A6
:1043100003212046FEF7B8FB032804D12046BDE860
:104320001040FEF7D1BB002010BD704770B51425BA
:1043300004462A46002103F093FC25808025074E81
:10434000284631462581258200F078F831466060A4
:10435000284600F073F8E060204670BDB0AA0A0855
:1043600030B50E4D87B02978BFF35B8F11F0010493
:1043700011D12846FBF797FE68B101A8FFF7D6FFD9
:10438000214601AA0648FFF7E9FD2846FBF790FE03
:10439000044803F05FFB024807B030BD3C2B00200F
:1043A000402B00202B430A08002307B51A46194664
:1043B00000930348FFF7C0FC03B05DF804FB00BFA7
:1043C000582B00207047000070B514232025084E9C
:1043D00004460360314685600561284600F02EF8EA
:1043E00031466060284600F029F8E060204670BD44
:1043F000B0AA0A0830B50E4D87B02978BFF35B8F9D
:1044000011F0010411D12846FBF74DFE68B101A857
:10441000FFF7DAFF214601AA0648FFF7F3FD284619
:10442000FBF746FE044803F015FB024807B030BD19
:10443000702B0020742B0020C5430A08FBF72FBE09
:1044400008B5FEF787FD000010B5294C21F00043A8
:10445000A34286B020DD274A934209DD02460B467F
:1044600002F020F902460B461046194606B010BD70
:1044700002AA00F069FE00F00300012818D002280B
:104480002AD0F0B1DDE90423DDE9020101F04CF9A5
:10449000024601F10043E7E70024002200230094D4
:1044A00001F092FE02460B461046194606B010BDBA
:1044B000DDE90423DDE9020101F036F902460B468D
:1044C000D2E70124DDE90423DDE90201009401F0D3
:1044D0007BFE02460B46C7E70124DDE90423DDE944
:1044E0000201009401F070FE024601F10043BBE7B7
:1044F000FB21E93FFFFFEF7F2DE9F8431D4606460C
:104500000F46144600F0B8F8574B804693F9003038
:10451000894601332AD022462B462046294602F0FE
:1045200013FD18BB32463B463046394602F00CFDBF
:10453000002841D1002200233046394602F0D2FC47
:10454000C0B1002200232046294602F0CBFC0028FF
:104550003AD12046294601F0FDFE38B120462946D1
:104560000022002302F0C8FC002859D140464946E9
:10457000BDE8F8834046494601F0ECFE60B30022F6
:1045800000234046494602F0ADFC0028EED03046FC
:10459000394601F0DFFE0028E8D02046294601F028
:1045A000D9FE0028E2D0FEF7E5FC22234FF00008F8
:1045B0004FF000090360D9E7204629460022002376
:1045C00002F090FC0028D1D04FF00008DFF89C905A
:1045D00040464946BDE8F8833046394601F0BAFE08
:1045E0000028CCD02046294601F0B4FE0028C6D0D1
:1045F00042464B464046494602F0A6FC30BBFEF719
:10460000B9FC2222034639461A60304600220023B4
:1046100002F072FC4FF0000858B9DFF85490A5E79B
:10462000FEF7A8FC21234FF00008DFF84890036054
:104630009CE72046294601F015FF22462B4602F052
:1046400051FC0028E9D1DFF82C908FE7FEF792FCAF
:1046500000220023212101601046194602F004FBCC
:104660008046894682E700BF080000200000F03F36
:104670000000F07F0000F0FF2DE9F04F99469046D2
:1046800029F000451E46134655EA080293B035D07E
:104690006B4A21F00044944283468A460F460090BC
:1046A00025DC34D0954222DC654A95421DD0002F8E
:1046B00036DB00220292002B4CD1614B9D4200F070
:1046C0009780604B9D4200F0A580B6F1804F00F0CE
:1046D000A3845D4B9E423DD1002F3BDB58465146A3
:1046E00013B0BDE8F04F00F059BF002BDFD0009BA6
:1046F00004F1404404F5801423430BD10023514CB2
:10470000CDE90034DDE9000113B0BDE8F08F08B950
:10471000A542C9DD4D4813B0BDE8F04F01F09CBE85
:104720004B4A95427EDCA2F1547295420EDD2A1569
:10473000A2F2FF32142A40F37984C2F1340223FA40
:1047400002F101FA02F29A4200F0C58400220292BC
:10475000002BB6D05846514601F0F8FD5B46CDE936
:10476000000133BB24B1374B27F040429A4220D19D
:10477000002E07DADDE900230020324902F074FA46
:10478000CDE90001002FBDDA029B04F1404404F59D
:104790008014234340F06F84DDE90023104619465E
:1047A00001F080FF02460B4602F05EFACDE90001FF
:1047B000A8E7029AFB0F013B0A93134335D0254B20
:1047C0009D424BDD03F104739D42234B40F3BC83B8
:1047D0009C4240F34F83002E40F34F8316A3D3E94E
:1047E00000231046194602F015F9CDE9000189E7CA
:1047F000009A04F1404303F5801313433FF47EAF66
:10480000154B9C4240F36383002EC0F23683CDE902
:10481000008977E7002EC0F2F58358465146CDE96E
:1048200000016FE70222029245E75A465846534676
:104830005146B5E7AFF300809C7500883CE4377EB5
:104840000000F07F0000F03F0000E03FB4AA0A083B
:10485000FFFF3F430000E041FFFFEF3FD44B3B40F1
:10486000002B40F0CD83DDE900010022D14B02F0A6
:10487000D1F86FF034050C46CDE900012315A3F201
:10488000FF335919CC4BC4F3130242F07F549A42C0
:104890000B9144F4401407DDC84B9A4240F3F8836F
:1048A00001310B91A4F58014002200230020002583
:1048B000C349CDE90823CDE90601CDE91023DDE99F
:1048C0000001DDE906232146824601F0EBFEDDE929
:1048D0000623A34606460F4650462146CDE90CABBB
:1048E00001F0E2FE02460B460020B54902F0BCF999
:1048F0008C46834663465A4630463946CDE90EBC5F
:1049000002F088F882468B46631043F0005303F5AB
:10491000002359190D465A46514600230020CDE97F
:1049200000120093044602462B46CDE904ABDDE9B4
:1049300000AB5046594602F06DF802460B46304631
:10494000394601F0AFFEDDE9062306460F46204654
:10495000294601F0A7FE02460B46DDE90C0101F0F5
:10496000A1FE52465B4602F055F802460B46304621
:10497000394601F097FEDDE90E2302F04BF8DDE940
:104980000445CDE9060122462B462046294602F081
:1049900041F875A3D3E9002304460D4602F03AF826
:1049A00073A3D3E9002301F07FFE22462B4602F0D9
:1049B00031F871A3D3E9002301F076FE22462B469D
:1049C00002F028F86EA3D3E9002301F06DFE224621
:1049D0002B4602F01FF86CA3D3E9002301F064FE1C
:1049E00022462B4602F016F869A3D3E9002301F012
:1049F0005BFE224606460F462B462046294602F01D
:104A000009F802460B463046394602F003F80446E0
:104A10000D46DDE9040152465B4601F045FEDDE945
:104A2000062301F0F7FF22462B4601F03DFE5246D9
:104A300006460F465B465046594601F0EBFF0246DC
:104A40000B46CDE90C2300225E4B01F02DFE3246D1
:104A50003B4601F029FE00240D4622462B465046D7
:104A6000594601F0D7FF002282468B462046294650
:104A7000544B01F017FEDDE90C2301F013FE024652
:104A80000B463046394601F00DFEDDE9042301F006
:104A9000C1FF224606460F46DDE906012B4601F01E
:104AA000B9FF02460B463046394601F0FDFD064689
:104AB0000F46002432463B465046594601F0F4FD6D
:104AC00035A3D3E9002320460D4601F0A3FF52464B
:104AD0005B4682468B462046294601F0E3FD0246AE
:104AE0000B463046394601F0DDFD2DA3D3E9002306
:104AF00001F090FF02460B462046294614461D460B
:104B000029A3D3E9002301F085FF02460B46204686
:104B1000294601F0C9FDDDE9102301F0C5FD064677
:104B20000B980F4601F00CFF04460D4632463B46FB
:104B30005046594601F0B8FDDDE9082301F0B4FD07
:104B400022462B4601F0B0FD224600242B4620468B
:104B50000D4601F0A7FDDDE9082301F0A3FD524653
:104B60005B4631E0AFF30080EF4E454A287ECA3FF6
:104B700065DBC9934A86CD3F01411DA96074D13FD1
:104B80004D268F515555D53FFFAB6FDBB66DDB3FE3
:104B9000033333333333E33F000000E009C7EE3F14
:104BA000FD033ADC09C7EE3FF5015B14E02F3EBE82
:104BB0000000F07F000040438E98030079B60B00A0
:104BC0000000F03F0000084001F06CFD02460B467B
:104BD0003046394601F066FD029B0A9A013B1343B9
:104BE0004FF000020CBFD24BD24BCDE90089CDE98A
:104BF000022300230093DDE900ABCDE90401524616
:104C0000404649465B4601F04DFD22462B4601F0E9
:104C100001FF424606460F46DDE904014B4601F01E
:104C2000F9FE02460B463046394601F03DFD52463C
:104C300006460F465B462046294601F0EBFE044639
:104C40000D4630462B463946224601F02DFDBA4B23
:104C50008046994289468A4640F3148101F13F43D8
:104C600003F5E003034340F0F6819DA3D3E900235D
:104C70003046394601F018FD02460B46404649468B
:104C80009046994622462B4601F00CFD02460B4603
:104C90004046494602F04EF9002840F0DC81CAF354
:104CA0000A534FF480120020A3F2FE3342FA03F3BA
:104CB0005344A249C3F30A52A2F2FF3241FA02FC62
:104CC000C3F3130B23EA0C01C2F114024BF4801B53
:104CD000BAF1000F0B464BFA02FB2946024620466A
:104CE000B8BFCBF1000B01F0DDFC04460D463046A9
:104CF000394622462B4601F0D7FC89464FEA0B5A2B
:104D00004FF0000878A3D3E900234046494601F05C
:104D100081FE22462B4604460D464046494601F098
:104D2000C1FC02460B463046394601F0BBFC70A37D
:104D3000D3E9002301F06EFE6FA3D3E900230646FA
:104D40000F464046494601F065FE02460B46304696
:104D5000394601F0A9FC8046894642464B4620462A
:104D6000294601F0A1FC22462B4606460F4601F0DB
:104D700099FC02460B464046494601F093FC3246F8
:104D8000804689463B463046394601F043FE5CA3E7
:104D9000D3E9002304460D4601F03CFE5AA3D3E9B3
:104DA000002301F07FFC22462B4601F033FE58A37E
:104DB000D3E9002301F078FC22462B4601F02AFEBD
:104DC00055A3D3E9002301F06DFC22462B4601F0E8
:104DD00021FE53A3D3E9002301F066FC22462B46B3
:104DE00001F018FE02460B463046394601F05AFCE7
:104DF00004460D4622462B463046394601F00AFE4F
:104E000002460B462046294614461D4600224FF016
:104E1000804301F047FC02460B462046294601F03C
:104E200023FF424604460D464B463046394601F0C4
:104E3000F1FD42464B4601F037FC02460B46204648
:104E4000294601F02FFC32463B4601F02BFC02467E
:104E50000B460020374901F025FC8A44BAF5801F33
:104E6000C0F235815146DDE9022301F0D3FDCDE9E1
:104E7000000147E4002EFFF6B1AC00230024CDE989
:104E800000343FE4DFF8B8C021F00043634540F34D
:104E9000DA802C4B0B4403430AD122462B4601F007
:104EA00001FC32463B4602F03BF800283FF4F7AEE7
:104EB0001DA3D3E90023DDE9020101F0ABFD1AA334
:104EC000D3E9002301F0A6FDCDE900011AE4002E8C
:104ED000D3DA09F10043CDF80080019312E400BF5A
:104EE000FE822B654715973C00000000432EE63FED
:104EF000EF39FAFE422EE63F396CA80C615C20BE09
:104F0000D0A4BE726937663EF16BD2C541BDBB3ECF
:104F10002CDE25AF6A56113F93BDBE166CC1663FAD
:104F20003E5555555555C53F59F3F8C21F6EA5015D
:104F30000000F0BF0000F03FFFFF8F40FFFF0F00B9
:104F4000FFCB904000346F3F9C4293DB7A4B9C42F6
:104F50003FF741ACDDE900010022774B01F0A2FBF5
:104F600067A3D3E9002304460D4601F053FD66A371
:104F7000D3E9002382468B462046294601F04AFDAC
:104F80000022CDE900016D4B2046294601F042FD8B
:104F900002460B465EA1D1E9000101F083FB2246E7
:104FA0002B4601F037FD02460B460020644901F014
:104FB00079FB224606460F462B462046294601F03D
:104FC00029FD02460B463046394601F023FD52A327
:104FD000D3E9002301F01EFD02460B46DDE9000186
:104FE00001F060FB06460F4632463B4650465946A6
:104FF00001F05AFB002452465B460D462046E3E58D
:1050000000253BE45A46002053464B4901F02CFE54
:10501000CDE90001FFF776BB5A4658465346514644
:1050200001F0F8FCCDE90001FFF76CBB002B40D18B
:10503000C2F1140245FA02F101FA02F2AA4254D076
:105040000293FFF73EBB3E4A934255DCDDE9002365
:105050009246934654E632A3D3E90023DDE90201E8
:1050600001F0D8FC2EA3D3E9002301F0D3FCCDE955
:105070000001FFF747BB029B012B7FF443ABDDE947
:105080000045224605F10043CDE90023FFF73ABB76
:1050900000222C4B4FF48025CDE9062322A3D3E92F
:1050A0000023CDE9082322A3D3E90023CDE910236F
:1050B00005E45846514601F049F95B46CDE9000147
:1050C000002B7FF4B2ABCDF808B0FFF74BBB5A46CC
:1050D00001F066FAC7E601F00101C1F10202029295
:1050E000002B3FF4EEAAFFF735BB01F00101C1F13F
:1050F00002030293FFF7E5BA1B15D2E5AFF3008078
:10510000000000604715F73F44DF5DF80BAE543EEA
:10511000555555555555D53FFE822B654715F73FDB
:105120009C7500883CE4377E0000004003B8E23FF5
:1051300006D0CF43EBFD4C3E0000F03F0000D03FD7
:105140000000E03F0000F83F2DE9F04FDFF838C2E3
:1051500021F000456545064614468FB040F3858032
:105160008A4A0F46954226DC7DA3D3E90023002915
:1051700040F3C08101F096FA854B80469D428946F6
:1051800000F08A8078A3D3E9002301F08BFA02466D
:105190000B464046C4E90023494601F083FA72A356
:1051A000D3E9002301F07EFA0126C4E9020130466A
:1051B0000FB0BDE8F08F774A954240F38D80764A74
:1051C00095425FDC4FEA2558A8F21648A5EB085136
:1051D0008B4601F0CFFE01F0B3FB02460B46304692
:1051E0005946CDE9082301F05DFA00226B4B01F02E
:1051F00011FC8B46824601F0BDFE054601F0A0FB86
:1052000002460B4650465946CDE90A2301F04AFAB8
:105210000022624B01F0FEFB02460B46CDE90C2357
:105220000022002301F05EFE002800F06181002DC5
:105230000CBF01230223022559494246019108A8C7
:105240002146009500F098FB002F0646AFDAD4E91E
:10525000000505F10041C4E90001E168A26801F11F
:105260000043C4E902237642A1E700264FF000087C
:105270004FF00009C2E900013046C2E902890FB0CF
:10528000BDE8F08F02460B4601F00CFA0026C4E997
:105290000201C4E900018AE735A3D3E9002301F044
:1052A00001FA35A3D3E900238046894601F0FAF9D3
:1052B00002460B464046C4E90023494601F0F2F994
:1052C0002DA3D3E9002301F0EDF90126C4E9020181
:1052D00030460FB0BDE8F08F01F038F828A3D3E9CD
:1052E00000238046894601F095FB00222D4B01F0FA
:1052F000DBF901F03FFE064601F022FB18A3D3E9DB
:10530000002382468B46CDE904AB01F083FB0246C5
:105310000B464046494601F0C5F913A3D3E90023E3
:10532000CDE902015046594601F074FB1F2E80461C
:1053300089463BDC1C4B721E53F82230AB4235D001
:1053400002460B46DDE9020101F0ACF902460B46CC
:1053500082468B46C4E90023AEE000BFAFF3008075
:1053600000004054FB21F93F3163621A61B4D03D23
:105370000000601A61B4D03D7370032E8A19A33BFC
:1053800083C8C96D305FE43FFB21E93F7BD9024010
:10539000FB21F93FFB213941FFFFEF7F0000704106
:1053A00038AB0A080000E03FB8AA0A082B1507939B
:1053B0004246DDE902014B4601F074F9C1F30A539C
:1053C000C3EB1555102D8B46824671DD68A3D3E9DA
:1053D0000023DDE9040101F01DFBDDE902AB80469D
:1053E000894642464B465046594601F05BF9024613
:1053F0000B465046594692469B4601F053F94246A9
:105400004B4601F04FF95CA3D3E90023804689465F
:10541000DDE9040101F0FEFA42464B4601F042F993
:10542000804689465046594642464B46CDE902AB36
:1054300001F038F9079AC1F30A53D31A312B8B467E
:10544000824635DD4EA3D3E90023DDE9040101F0F6
:10545000E1FADDE902AB8046894642464B465046BA
:10546000594601F01FF902460B46504659469246EE
:105470009B46CDE902AB01F015F942464B4601F0DF
:1054800011F941A3D3E9002380468946DDE90401EF
:1054900001F0C0FA42464B4601F004F980468946C5
:1054A0005046594642464B4601F0FCF88B46824630
:1054B00052465B46C4E90023DDE9020152465B46E1
:1054C00001F0F0F842464B4601F0ECF802460B467C
:1054D000002FC4E90223BFF66AAE0BF1004301F1CD
:1054E0000041A0606360E1607642C4F800A05EE61F
:1054F0000323A0E601F0D8F8274B80469D42894659
:1055000016D023A3D3E9002301F0CEF802460B46C0
:105510004046C4E90023494601F0C4F81CA3D3E97E
:10552000002301F0C1F84FF0FF36C4E902013EE666
:105530000FA3D3E9002301F0B7F80FA3D3E90023A9
:105540008046894601F0B0F802460B464046C4E961
:105550000023494601F0A6F807A3D3E9002301F090
:10556000A3F84FF0FF36C4E9020120E6AFF3008054
:105570000000601A61B4D03D7370032E8A19A33BFA
:105580000000002E8A19A33BC14920259A837B394C
:105590003163621A61B4D03DFB21F93F2DE9F84334
:1055A000604E054636EA01020C4600F09E80002956
:1055B0000B46844654DD091562D0C3F31303C807B4
:1055C000A1F2FF3743F4801304D45B0003EBDC73D8
:1055D0004FEA4C0C00264FEADC7202EB43034FF01B
:1055E000160E4FF4001234467F104FEA4C0CA118EF
:1055F000994202DC5B1A8C1816445B00BEF1010E66
:1056000003EBDC734FEA52024FEA4C0CEFD17546C4
:1056100020204FF000420AE043D04FEADC7101380D
:1056200001EB43034FEA4C0C4FEA520242D0A34233
:1056300002EB0E01F0DD002901EB020E0ADBA046B1
:105640001B1B614588BF03F1FF334446ACEB010CE3
:105650001544E2E7BEF1000FF1DB04F10108EFE7CA
:1056600021F00042024336D000294CD14FEADC221F
:10567000134615394FEA4C5C002AF7D0D6024CD4B9
:1056800000205B00DD02044600F10100F9D51A4656
:1056900063460CFA00FCC0F12000C340091B134311
:1056A0008BE76145B9D8002901EB020ED2DB9846A1
:1056B0000023CAE753EA0C0311D16808731003F101
:1056C0007F5303F50013F20748BF40F0004003EB9F
:1056D000075905464C4628462146BDE8F883691C13
:1056E00016BF681C01364008E8E702460B4601F089
:1056F00091F92A46234600F0D7FF05460C46284676
:105700002146BDE8F883024600F0CCFF02460B4676
:1057100001F0AAFA05460C46DDE7634620204FF06B
:10572000FF34BAE70000F07F2DE9F04F21F000468A
:10573000B6F1795F92469B460C46054685B06DDA18
:1057400001F018FC002800F0EB802A46234628468A
:10575000214601F05FF976A3D3E90023804689460C
:1057600001F058F974A3D3E9002300F09DFF4246ED
:105770004B4601F04FF972A3D3E9002300F092FFEA
:1057800042464B4601F046F96FA3D3E9002300F0EF
:105790008BFF42464B4601F03DF96DA3D3E9002350
:1057A00000F080FF42464B4601F034F96AA3D3E98A
:1057B000002300F079FF42464B4601F02BF9CDE97A
:1057C0000001002240464946654B01F023F9DDE91E
:1057D000002306460F464046494601F01BF9A846FD
:1057E000A14652465B4604460D464046494601F0F6
:1057F00011F902460B462046294600F053FF0246A7
:105800000B463046394600F04DFF02460B4600205D
:10581000544900F047FF05B0BDE8F08F02460B4643
:1058200001F0F8F842A3D3E900238046894601F04D
:10583000F1F841A3D3E9002300F036FF42464B467E
:1058400001F0E8F83EA3D3E9002300F02BFF424625
:105850004B4601F0DFF83CA3D3E9002300F024FF1E
:1058600042464B4601F0D6F839A3D3E9002300F0B5
:1058700019FF42464B4601F0CDF837A3D3E9002388
:1058800000F012FF4B46424601F0C4F8364BCDE91A
:1058900000019E4295DD354B00229E423ADCA6F582
:1058A000001300202F4916461F4600F0FBFECDE9ED
:1058B0000201002240464946294B01F0ABF832462E
:1058C0003B4600F0EFFEDDE9002306460F4640466A
:1058D000494601F09FF8A846A14652465B46044659
:1058E0000D464046494601F095F802460B462046D3
:1058F000294600F0D7FE02460B463046394600F0F6
:10590000D1FE02460B46DDE9020100F0CBFE05B0F8
:10591000BDE8F08F164B0026CDE90223154FC8E7EE
:105920000020104905B0BDE8F08F00BFAFF3008044
:10593000D43888BEE9FAA8BDC4B1B4BD9EEE213EFC
:10594000AD529C804F7E923E9015CB19A001FA3E3D
:105950007751C1166CC1563F4C5555555555A53F0D
:105960000000E03F0000F03F3233D33F0000E93F4A
:105970000000E73F0000D23F2DE9F04FADF5197D63
:10598000B84CA29D089354F82540013B12F1140F26
:10599000074605940B910393C0F24283B249D31E8C
:1059A00081FB0301DB17C3EBA10307930133A3EBD7
:1059B0008303DB00D3180693079A039BD61A059A34
:1059C00012EB03091BD409F1010900240025DDF8BD
:1059D0008CA2B1440DF1800808E05AF8260000F0CE
:1059E000AFFF01364E45E8E8020108D0002EF4DA98
:1059F0002046294601364E45E8E80201F6D1059BCE
:105A0000002BC0F2BC83089B20AA02EBC30ADA0079
:105A10000292059AA7F108011A44DDF80C9004914E
:105A20000DF5E07B019201EBC308039B002BC0F254
:105A3000AE81574600240025049E77E90223F6E94B
:105A4000020100F0E7FF02460B462046294600F01F
:105A50002BFE464504460D46EFD1019B09F1010995
:105A60009945EBE802450AF1080ADED1049BDDF80E
:105A700008B00BAA9B44059B02EB83020A920CAA76
:105A8000019302EB8303083B0993019A98AB03EB64
:105A9000C203002A53E9284529DD0DF5E07A0DF10E
:105AA00030090AEBC2080022704B2046294600F05C
:105AB000B1FF01F05FFA00F043FF00226C4B064695
:105AC0000F4600F0A7FF02460B462046294600F08D
:105AD000E9FD01F04FFA78E9022349F8040B394651
