:02000004080AE8
:1000000000000A08D8920A08000006000600050150
:080010000402DB070000000000
:04001800AC870A089F
:1000200009480A4908B5884205D0094A824202D0E7
:10003000121A07F0EFFE0748074A0021121A07F0CC
:10004000F7FE064808BD00BF00000020DC910A084A
:10005000D4000020D800002045270020452700209C
:1000600070B503F00BFB0025054E064CA41BA4083D
:10007000A54200D170BD56F8043B98470135F7E71B
:10008000A0910A08C4910A0800F0A0BC08B500F0CD
:1000900077FCBDE8084003F0B3BA02F0BBBE02F043
:1000A000B9BE02F0BFBE0078B0FA80F040097047D8
:1000B000012303707047000010B50446024B036033
:1000C00002F062F8204610BD24880A0810B50446E4
:1000D000FFF7F2FF204642F2E44104F076F92046B1
:1000E00010BD000008B502F097FC034B1860BDE896
:1000F000084002F05FBE00BFE026002010B502F00D
:100100008BFC164C226882420DD203F0F3F90228D0
:100110000ADC134803F072F902F07EFC00F55B1074
:1001200000F53A50206010BD03F0E4F903280FD029
:1001300003F0E0F90B28ECDC03F0DCF90B2803D129
:1001400003F0CCF90028E4DC064803F057F9E3E7B4
:1001500003F0C4F90828DCDDEAE700BFE400002072
:100160000000E0C00000C0C0F0B58FB002F054FC49
:10017000144F154E3B68834220D21223A822C0217F
:10018000009302A82A2303F09FFD104B09AC03AD96
:1001900008930FCD0FC42B680D49012249682370C5
:1001A00009A8002302F052FDB0FA80F04009307037
:1001B00002F032FC00F51C501030386030780FB07F
:1001C000F0BD00BFEC000020E80000200C8D0A0804
:1001D000C0260020C043C0B254280AD8002300EB38
:1001E0004002A0EB800001381946D2B2C0B201F043
:1001F00074BFA9280CD800235538C1B2A1EB8102E5
:10020000013A01EB41011846D2B2C9B201F065BF13
:1002100000235630C0B2A0EB8001013900EB400052
:100220001A46C9B2C0B201F058BF00002DE9F04F24
:100230000024ADF2144DCDE9001206464FF4806261
:10024000664904A807F0E6FD2546009B9C426DDA4E
:100250000027DFF898B14FF00008584601F044FF3E
:10026000404540DD584601F03FFF4FEA0823B3FB0D
:10027000F0F03844C0B2FFF7ADFF8146284607F0E2
:1002800083F8574907F088F982465FFA89F007F04A
:100290007BF8514607F0CCF807F090FAC2B2C9F3E8
:1002A0000740039207F070F8514607F0C1F807F0D5
:1002B00085FAC3B2C9F30720029307F065F85146E7
:1002C00007F0B6F807F07AFADDE90232C0B2194653
:1002D00001F0FEFE1FFA88F10246584601F0B4FE16
:1002E00008F10108B9E79CB9284607F04DF83D49E7
:1002F00007F03CFA60B10135584600F0BBFD01370C
:10030000304603F015F9B7F5807FA4D101349CE79E
:10031000009B013BA342EFD1384607F035F8324944
:1003200007F042FA0028E7D0013DE5E700252F4C11
:10033000019B9D424DDA4FF480770DF110084FF08C
:100340000009204601F0D0FE1FFA89FA50450ED967
:10035000002298F800301146104601F0BEFE5146CA
:100360000246204601F070FE09F10109E9E7304636
:1003700003F0DEF8204600F07DFD013F08F104089F
:10038000DDD14FF480770DF20C484FF00009204684
:1003900001F0AAFE1FFA89FA50450ED9002298F8FA
:1003A00000301146104601F098FE514602462046A4
:1003B00001F04AFE09F10109E9E7304603F0B8F817
:1003C000204600F057FD013FA8F10408DDD10135BA
:1003D000AEE70DF2144DBDE8F08F00BF2C880A087F
:1003E0000000C8420000C64200001B43E825002070
:1003F00038B5046805467CB16368013B63605BB94E
:10040000236820469B689847A368013BA3601BB9FB
:1004100023682046DB689847284638BD1FB502F0A0
:10042000FBFA0E4C226882420FD20D4801F0FAFE10
:100430000C4B02A81B780C4A8DF800300B493C236A
:1004400003F074FA03A8FFF7D3FF02F0E5FA00F512
:100450001C501030206004B010BD00BFF000002020
:1004600004010020DD000020FC870A08E1870A085B
:10047000F0B589B002F0D0FA3D4D3E4C2B68834276
:1004800035D20A2003F02CFF40F6EC61884240F69A
:100490007462A8BF084664239042B8BF1046009318
:1004A000082303F039F806F06FFF06F013FB002273
:1004B000314B06F091FC2AA3D3E9002306F062FB3E
:1004C000064620680F4606F005FB27A3D3E9002364
:1004D00006F058FB02460B463046394606F09CF9BA
:1004E00006F048FE206002F097FA6430286002F0BF
:1004F00093FA41F28833B0FBF3F202FB13034BBBD8
:1005000002F08AFA1D4B984224D81D4904A802F033
:1005100027FE216804A802F08BFE1A4904A802F005
:100520005AFE0A2003F0DCFE014604A802F06FFE2A
:10053000154B049A1B7815498DF8003002A83C230E
:1005400003F0F4F903A8FFF753FF02F065FA04A8DB
:1005500002F0BCFD206809B0F0BD00BFAFF3008021
:10056000000000A09999A93F000000666666EE3F72
:10057000E00000200000002000005940BF270900D3
:10058000FC870A08C0870A08DD000020C8870A081F
:1005900073B50446FFF7E8FD88B1002426463A4DBE
:1005A000284601F0A1FDA04256DD0023A1B21A4663
:1005B0002846CDE9006601F00DFD0134F0E74FF06B
:1005C0007E51204607F0C8F810B1FFF751FF0446EE
:1005D000204606F07FFA24A3D3E9002306F0D2FADE
:1005E00006F0A8FDC1B2284801F080FD02F014FA1F
:1005F00006F04EFA1EA3D3E9002306F0EDFB1EA37E
:10060000D3E9002306F0BEFA03F0E6FE00221F4BFA
:1006100006F002F91AA3D3E9002306F0B3FA06F0B4
:10062000A9FD00240546184E304601F05DFDA042AC
:1006300012DD04EBC40006F0A7FE294606F0F0FD2B
:1006400007F0E2F8C0B2FFF7C5FDA1B2024630469E
:1006500001F0FAFC0134E7E70B4802B0BDE8704056
:1006600000F008BCAFF300800000000000E06F4025
:10067000000000000070C740182D4454FB210940C1
:100680000000000000E05F40E82500200000F03F8F
:100690002DE9F74F0FF2C019D9E9008902F0BCF932
:1006A00001210446132003F002FEDFF8C4A102F08A
:1006B000B3F941F28733001B98426AD90FF29819B7
:1006C000D9E900890FF2981BDBE900AB684D02F015
:1006D000A3F942F20F73001B984200F2B28002F0BD
:1006E0009BF9001B06F04CFE294606F055FF06F06C
:1006F000F1F942464B4606F045FA03F06DFE02461C
:100700000B465046594603F0BDFE06460F4602F022
:10071000C1FE0022019039463046564B06F07AF869
:1007200051A3D3E9002306F02DFA06F023FD07F0CC
:1007300045F80A26019A0746034692FBF6F2002185
:100740004D4800F0E3FA02F0A5FE90FBF6F23B46BE
:1007500002FB16020121484800F0D8FA02F0A6FE7A
:100760003B4690FBF6F20221434800F0CFFA02F03C
:100770009DFE90FBF6F23B4602FB160203213E482B
:1007800000F0C4FAFFF7AEFC4FF07E50FFF700FF19
:100790009DE702F041F9001B06F0F2FD514606F01C
:1007A000FBFE06F097F942464B4606F0EBF903F0E4
:1007B00013FE02460B462AA1D1E9000103F062FEB6
:1007C00006460F462C48002100F0F0FA00220546AC
:1007D00039463046274B06F01DF823A3D3E9002302
:1007E00006F0D0F906F0C6FC06F0E8FF2A460646F9
:1007F00003460021204800F089FA01211E4800F03C
:10080000D5FA3346024601211B4800F07FFA022147
:10081000194800F0CBFA334602460221164800F090
:1008200075FA0321144800F0C1FA33460246032149
:10083000114800F06BFAFFF755FC0020FFF7A8FE07
:1008400035E70021132003F032FD4FF4FA7003B0B6
:10085000BDE8F04F02F06CBE182D4454FB21094056
:1008600090F7AA9509BF05400000000000A0A24033
:1008700000401C460000F03FF400002038B502F0B4
:10088000CBF80020FFF784FE0121132003F00FFDB9
:1008900018250A21002003F0E0FB4FF480530246A4
:1008A0000021364800F032FA5021052003F0D5FB34
:1008B00002F03EFE0A21002003F0CFFB4FF48053EC
:1008C000024601212D4800F021FA5021052003F0B5
:1008D000C4FB02F02DFE0A21002003F0BEFB4FF402
:1008E000805302460221254800F010FA50210520CD
:1008F00003F0B3FB02F01CFE0A21002003F0ADFB65
:100900004FF48053024603211C4800F0FFF95021A8
:10091000052003F0A2FB02F00BFE013DB9D10A2431
:1009200002F0B8FD294690FBF4F20523134800F0CD
:10093000EDF902F0AFFD90FBF4F2052302FB140287
:1009400001210E4800F0E2F902F0B0FD052390FB12
:10095000F4F20221094800F0D9F902F0A7FD90FB5A
:10096000F4F2052302FB14020321044800F0CEF93F
:100970002946BDE83840132003F099BCF40000205C
:1009800008B5FFF74BFDFFF7ADFBFFF7B7FB4FF0E7
:100990007E50FFF7FDFD02F089FD3B2809D102F0F2
:1009A00091FD372805D1FFF769FFBDE80840FFF743
:1009B0006FBE02F087FD372806D1FFF7D5FB18B9C7
:1009C000BDE80840FFF764BE08BD00002DE9F04314
:1009D0000024A1B003F0E0F94FF4165103F0D0F970
:1009E000234622463749CDE90044374802F0FAF958
:1009F0000121132003F04AFC0A2002F099FD68222D
:100A0000214606A807F014FA01232246214605A82C
:100A1000059302F063F92246214605A8149402F0DA
:100A200055F92A4800F0EFF9A046284D274801F073
:100A30005BFBA0420CDD0023A1B21A462846CDE99B
:100A4000008801F0C7FA284600F014FA0134EDE7F7
:100A5000002001F0F1FF4FF0000980464EF65F24C0
:100A60000025002001F0E8FFB0EB080661EB090764
:100A7000BD4208BFB44205D302F0DEFC10B902F05B
:100A800099F9EEE702F0D8FCFFF738FB104800F0C8
:100A9000BBF8FFF7F3FE012204210320FFF7C6FB9A
:100AA000FFF7F6FD0B4B00221B780B498DF8003049
:100AB00003A83C2302F03AFF04A8FFF799FC21B0F9
:100AC000BDE8F083590B0A08D3870A08E8250020FF
:100AD000F4000020DC000020E6870A0837B500217A
:100AE0000120154B154C1970154B164D187002F05E
:100AF000CDF8062302220421204600F0A9F92A4657
:100B00002046114903F05CFC4FF4C8720F4B009271
:100B1000A3F6E434A3F6B83140F6B832204601F02B
:100B20008BFB2A4620460A4B0A49236003B0BDE8E6
:100B3000304003F045BC00BFDC000020E825002069
:100B4000DD000020D8000020B30D0A08E80C0020CA
:100B500024880A08B9000A0830B58FB00AA80C46E4
:100B600002F0FEFA0A9D284607F0EFF929460246F0
:100B7000204801F03AFB0AA802F0A8FA03F00CF9A9
:100B8000214602F0B0FB1B4801F0B6FE58B303F05B
:100B900003F9194902F0A7FB03F0FEF804461549D2
:100BA00007A801F059FB154A07A904A801F09AFC0F
:100BB000134A04A901A801F095FC01A90AA801F0B3
:100BC000ABFC0A99204602F08EFB0AA802F07EFADE
:100BD00001A801F0B9FA04A801F0B6FA07A801F0DB
:100BE000B3FA0FB030BD03F0D7F8064902F07BFB33
:100BF000F7E700BF04010020F3870A08FD870A0811
:100C000005880A080A880A0808B503F0B1FB2449D8
:100C100003F000FA03F0ACFB03F000FA03F0A8FBCA
:100C2000702103F005FA03F0A3FB036800219B6821
:100C3000984703F09DFB036831219B68984703F0B8
:100C400097FB03F0FCF903F093FB702103F0F0F93C
:100C500003F08EFB0368FE219B68984703F088FB36
:100C6000036803219B68984703F082FB03F0E7F9D0
:100C700003F07EFB702103F0DBF903F079FB0368DE
:100C800000219B68984703F073FB036821219B6850
:100C9000984703F06DFBBDE8084003F0D0B900BFF2
:100CA000801A06000023F7B50D460A240746019373
:100CB00010236C438DF8073003F05AFB57F82530AA
:100CC000114E234416F8131003F0AEF903F050FB55
:100CD00057F825301C4406EB44046178036889000A
:100CE00006319B6801F0FE01984703F041FB0422A6
:100CF00003680DEB0201DB68984703F039FB03F052
:100D00009EF903B0F0BD00BF2C8C0A082DE9F34119
:100D10001E4650F82130074693420C46154601D036
:100D2000FFF7C0FF0023B6F5805F01932DDB9DF830
:100D3000053043F010038DF805304FF00A0808FB2A
:100D40000458194E03F014FB16F8181003F06CF950
:100D500003F00EFB06EB4806717803688900063144
:100D60009B6801F0FE01984703F002FB0422036830
:100D70000DEB0201DB68984703F0FAFA03F05FF924
:100D800047F8245002B0BDE8F08136B99DF807302D
:100D900043F010038DF80730CFE7BDF8063066F357
:100DA0000B03ADF80630C8E72C8C0A0850F8210078
:100DB000704710B50446C06808B102F033F82378D4
:100DC0001BB10021E07903F061FA204610BD38B56F
:100DD0000446C0680D4608B102F024F8A379062B3A
:100DE0000CBF04200320684380B2A08002F012F8F8
:100DF000E06028B10021A28807F01AF8658038BDAC
:100E0000A0806080FBE710B504460121C07903F0A3
:100E10003DFA0021E07903F04AFA0123237010BD66
:100E200038B5037805460C461BB10021C07903F0A4
:100E30002DFA2B78EC7153B1A4B22046012103F0B6
:100E400025FA2046BDE83840002103F030BA38BD0D
:100E500070B50025044616468371C0E90355057038
:100E60000572FFF7B4FF20463146FFF7D9FF204651
:100E700070BD0000C368002B00F04184F0B5837999
:100E80000446023BDBB2042B8CBF3225284A87B0D4
:100E900098BF52F8235001F0B7FD2369C01AA84249
:100EA000F9D372B6A388A579ADF80A30BDF80A3037
:100EB000022DE1689BB200F06E82072D00F06B827C
:100EC000062D00F01D84052D00F0A183082D00F0F3
:100ED0009E83002D40F04F85002B00F092834FF44D
:100EE0000006144A0496BDF80A300331033B9BB256
:100EF000ADF80A3011F8033CDBB28DF8073011F879
:100F0000023CDBB28DF8063011F8013CDBB28DF803
:100F100008309DF807709DF806309DF808001B0208
:100F200043EA0743034303938DF805501BE100BFD9
:100F30007C8C0A08FC250020004600BF00BF00BFD3
:100F400000BF00BF00BF00BF00BF00BF00BF00BFA9
:100F500000BF00BF00BF00BF00BF00BF00BF00BF99
:100F600000BF00BF00BF00BF00BF00BF00BF00BF89
:100F700000BF00BF00BF00BF00BF00BF00BF00BF79
:100F800000BF00BF00BF00BF00BF00BF00BF00BF69
:100F900000BF00BF00BF00BF00BF00BF00BF00BF59
:100FA00000BF00BF00BF00BF00BF00BF00BF00BF49
:100FB00000BF00BF00BF00BF00BF00BF00BF00BF39
:100FC00000BF00BF00BF00BF00BF00BF00BF00BF29
:100FD00000BF00BF00BF00BF00BF00BF00BF00BF19
:100FE00000BF00BF00BF00BF00BF00BF00BF00BF09
:100FF00000BF00BF00BF00BF00BF00BF00BF00BFF9
:1010000000BF00BF00BF00BF00BF00BF00BF00BFE8
:1010100000BF00BF00BF00BF00BF00BF00BF00BFD8
:1010200000BF00BF00BF00BF00BF00BF00BF00BFC8
:1010300000BF00BF00BF00BF00BF00BF00BF00BFB8
:10104000E3791068C3EBC30300EB8307BF8850F854
:1010500023305F83004600BF00BF00BF00BF00BF5A
:1010600000BF00BF00BF00BF00BF00BF00BF00BF88
:1010700000BF00BF00BF00BF00BF00BF00BF00BF78
:1010800000BF00BF00BF00BF00BF00BF00BF00BF68
:1010900000BF00BF00BF00BF00BF00BF00BF00BF58
:1010A00000BF00BF00BF00BF00BF00BF00BF00BF48
:1010B00000BF00BF00BF00BF00BF00BF00BF00BF38
:1010C00000BF00BF00BF00BF00BF00BF00BF00BF28
:1010D00000BF00BF00BF00BF00BF00BF00BF00BF18
:1010E00000BF00BF00BF00BF00BF00BF00BF00BF08
:1010F00000BF00BF00BF00BF00BF00BF00BF00BFF8
:1011000000BF00BF00BF00BF00BF00BF00BF00BFE7
:1011100000BF00BF00BF00BF00BF00BF00BF00BFD7
:1011200000BF00BF00BF00BF00BF00BF00BF00BFC7
:1011300000BF00BF00BF00BF00BF00BF00BF00BFB7
:1011400000BF00BF00BF00BF00BF00BF00BF049BC7
:101150005B0804939DF805300133DBB2172B8DF843
:10116000053000F22787E3791068C3EBC30300EB77
:101170008307BF8850F823301F830398049B1842CD
:101180007FF4DAAE004600BF00BF00BF00BF00BF63
:1011900000BF00BF00BF00BF00BF00BF00BF00BF57
:1011A00000BF00BF00BF00BF00BF00BF00BF00BF47
:1011B00000BF00BF00BF00BF00BF00BF00BF00BF37
:1011C00000BF00BF00BF00BF00BF00BF00BF00BF27
:1011D00000BF00BF00BFE3791068C3EBC30300EB9F
:1011E0008307BF8850F823305F83004600BF00BFED
:1011F00000BF00BF00BF00BF00BF00BF00BF00BFF7
:1012000000BF00BF00BF00BF00BF00BF00BF00BFE6
:1012100000BF00BF00BF00BF00BF00BF00BF00BFD6
:1012200000BF00BF00BF00BF00BF00BF00BF00BFC6
:1012300000BF00BF00BF00BF00BF00BF00BF00BFB6
:1012400000BF00BF00BF00BF00BF00BF00BF00BFA6
:1012500000BF00BF00BF00BF00BF00BF00BF00BF96
:1012600000BF00BF00BF00BF00BF00BF00BF00BF86
:1012700000BF00BF00BF00BF00BF00BF00BF00BF76
:1012800000BF00BF00BF00BF00BF00BF00BF00BF66
:1012900000BF00BF00BF00BF00BF00BF00BF00BF56
:1012A00000BF00BF00BF00BF00BF00BF00BF00BF46
:1012B00000BF00BF00BF00BF00BF00BF00BF00BF36
:1012C00000BF00BF00BF00BF00BF00BF00BF00BF26
:1012D00000BF00BF00BF00BF00BF00BF00BF00BF16
:1012E00000BF00BF00BF00BF00BF00BF00BF00BF06
:1012F00000BF00BF00BF00BF00BF00BF00BF00BFF6
:1013000000BF00BF00BF00BF00BF00BF00BF00BFE5
:1013100000BF00BF00BF00BF00BF00BF00BF00BFD5
:1013200000BF00BF00BF00BF00BF00BF00BF00BFC5
:1013300000BF00BF00BF00BF00BF00BF00BF00BFB5
:1013400000BF00BF00BF00BF00BF00BF00BF00BFA5
:1013500000BF00BF00BF00BF00BF00BF00BF00BF95
:1013600000BF00BF00BF00BF00BF00BF00BF00BF85
:1013700000BF00BF00BF00BF00BF00BF00BF00BF75
:1013800000BF00BF00BF00BF00BF00BF00BF00BF65
:1013900000BF00BFDBE6002B00F033814FF40005F7
:1013A0000026134A0495BDF80A300331033B9BB273
:1013B000ADF80A3011F8033CDBB28DF8063011F8B5
:1013C000023CDBB28DF8073011F8013CDBB28DF83E
:1013D00008309DF806709DF807309DF808001B0244
:1013E00043EA0743034303938DF8056080E000BFA1
:1013F000FC250020004600BF00BF00BF00BF00BFAB
:1014000000BF00BF00BF00BF00BF00BF00BF00BFE4
:1014100000BF00BF00BF00BF00BF00BF00BF00BFD4
:1014200000BF00BF00BF00BF00BF00BF00BF00BFC4
:1014300000BF00BF00BF00BF00BF00BF00BF00BFB4
:1014400000BF00BF00BF00BF00BF00BF00BF00BFA4
:1014500000BF00BF00BF00BF00BF00BF00BF00BF94
:1014600000BF00BF00BF00BF00BF00BF00BF00BF84
:1014700000BF00BF00BF00BF00BF00BF00BF00BF74
:1014800000BF00BF00BF00BF00BF00BF00BFE379C7
:101490001068C3EBC30300EB8307BF8850F8233009
:1014A0005F83004600BF00BF00BF00BF00BF00BF9A
:1014B00000BF00BF00BF00BF00BF00BF00BF00BF34
:1014C00000BF00BF00BF00BF00BF00BF00BF00BF24
:1014D00000BF00BF00BF00BF049B5B0804939DF8E2
:1014E00005300133DBB2172B8DF8053000F2838015
:1014F000E3791068C3EBC30300EB8307BF8850F8A0
:1015000023301F830398049B18427FF473AF004677
:1015100000BF00BF00BF00BF00BF00BF00BF00BFD3
:1015200000BF00BF00BF00BF00BF00BF00BF00BFC3
:1015300000BF00BF00BFE3791068C3EBC30300EB3B
:101540008307BF8850F823305F83004600BF00BF89
:1015500000BF00BF00BF00BF00BF00BF00BF00BF93
:1015600000BF00BF00BF00BF00BF00BF00BF00BF83
:1015700000BF00BF00BF00BF00BF00BF00BF00BF73
:1015800000BF00BF00BF00BF00BF00BF00BF00BF63
:1015900000BF00BF00BF00BF00BF00BF00BF00BF53
:1015A00000BF00BF00BF00BF00BF00BF00BF00BF43
:1015B00000BF00BF00BF00BF00BF00BF00BF00BF33
:1015C00000BF00BF00BF00BF00BF00BF00BF00BF23
:1015D00000BF00BF00BF00BF00BF00BF00BF00BF13
:1015E00000BF00BF00BF00BF00BF00BF00BF00BF03
:1015F00000BF00BF70E7BDF80A309BB2002B7FF43C
:10160000D1AE62B601F000FA206107B0F0BD002B48
:10161000F7D04FF4000E0026544B1868544BCDF809
:1016200010E0BDF80A200331033A92B2ADF80A2067
:1016300011F8032CD2B28DF8062011F8022CD2B288
:101640008DF8072011F8012CD2B28DF808209DF8F2
:1016500006C09DF807209DF80870120242EA0C426D
:101660003A4303928DF80560E2795D68C2EBC202ED
:1016700000EB8207BF8850F8222005951783039F4F
:10168000049A174225D05A68059FD21B4F2AFAD9CF
:10169000E279C2EBC20200EB8207BF8850F8222039
:1016A00057835A6805925A68059FD21B072AFAD9B0
:1016B000049A520804929DF805200132D2B2172AEA
:1016C0008DF80520D0D9BDF80A2092B2002AA6D103
:1016D00097E75A68059FD21B182AFAD9E279C2EB1C
:1016E000C20200EB8207BF8850F8222057835A6855
:1016F00005925A68059FD21B452AFAD9D8E7704748
:10170000002B3FF47EAF4FF000450026174A0495AA
:10171000BDF80A300431043B9BB2ADF80A3011F831
:10172000043CDBB28DF8073011F8033CDBB28DF8D6
:10173000063011F8023CDBB28DF8083011F8013C9C
:10174000DBB28DF809309DF807C09DF806309DF892
:1017500008001B049DF8097043EA0C633B4343EA0D
:10176000002303938DF805607FE000BFFC25002077
:10177000001000E0004600BF00BF00BF00BF00BF78
:1017800000BF00BF00BF00BF00BF00BF00BF00BF61
:1017900000BF00BF00BF00BF00BF00BF00BF00BF51
:1017A00000BF00BF00BF00BF00BF00BF00BF00BF41
:1017B00000BF00BF00BF00BF00BF00BF00BF00BF31
:1017C00000BF00BF00BF00BF00BF00BF00BF00BF21
:1017D00000BF00BF00BF00BF00BF00BF00BF00BF11
:1017E00000BFE3791068C3EBC30300EB8307BF8836
:1017F00050F823305F83004600BF00BF00BF00BF2A
:1018000000BF00BF00BF00BF00BF00BF00BF00BFE0
:1018100000BF00BF00BF00BF00BF00BF00BF00BFD0
:1018200000BF00BF00BF00BF00BF00BF00BF00BFC0
:1018300000BF00BF00BF00BF00BF00BF00BF00BFB0
:1018400000BF00BF00BF00BF00BF00BF00BF00BFA0
:1018500000BF00BF049B5B0804939DF80530013373
:10186000DBB21F2B8DF805307ED8E3791068C3EB0F
:10187000C30300EB8307BF8850F823301F8303980E
:10188000049B18427FF476AF004600BF00BF00BF44
:1018900000BF00BF00BF00BF00BF00BF00BF00BF50
:1018A00000BF00BF00BF00BF00BF00BF00BF00BF40
:1018B000E3791068C3EBC30300EB8307BF8850F8DC
:1018C00023305F83004600BF00BF00BF00BF00BFE2
:1018D00000BF00BF00BF00BF00BF00BF00BF00BF10
:1018E00000BF00BF00BF00BF00BF00BF00BF00BF00
:1018F00000BF00BF00BF00BF00BF00BF00BF00BFF0
:1019000000BF00BF00BF00BF00BF00BF00BF00BFDF
:1019100000BF00BF00BF00BF00BF00BF00BF00BFCF
:1019200000BF00BF00BF00BF00BF00BF00BF00BFBF
:1019300000BF00BF00BF00BF00BF00BF00BF00BFAF
:1019400000BF00BF00BF00BF00BF00BF00BF00BF9F
:1019500000BF00BF00BF00BF00BF00BF00BF00BF8F
:1019600000BF00BF00BF75E7BDF80A309BB2002B77
:101970007FF4CDAE45E6032D00F02B81002B3FF424
:1019800040AE4FF400050026174A0495BDF80A3012
:10199000E079033B9BB2ADF80A300B781768DBB2F5
:1019A0008DF807304B78C0EBC000DBB28DF8083003
:1019B0008B7807EB800CDBB28DF806309DF807E0E2
:1019C0009DF80830BCF804C01B0243EA0E439DF8A2
:1019D00006E057F8200043EA0E03039303318DF825
:1019E0000560A0F81AC07CE0FC250020049B5B0881
:1019F0000493004600BF00BF00BF00BF00BF00BF90
:101A000000BF00BF00BF00BF00BF00BF00BF00BFDE
:101A100000BF00BF00BF00BF00BF00BF00BF00BFCE
:101A200000BF00BF00BF00BF00BF00BF00BF00BFBE
:101A300000BF00BF00BF00BF00BF00BF00BF00BFAE
:101A400000BF00BF00BF00BF00BF00BF00BF00BF9E
:101A500000BF00BF00BF00BF00BF00BF00BF00BF8E
:101A600000BF00BF00BF00BF00BF00BF00BF00BF7E
:101A700000BF00BF00BF00BFE07917689DF80530C8
:101A8000C0EBC00007EB800CBCF804C057F8200086
:101A90000133DBB28DF80530A0F818C0004600BF56
:101AA00000BF00BF00BF00BF00BF00BF00BF00BF3E
:101AB00000BF00BF00BF00BF00BF00BF00BF00BF2E
:101AC00000BF00BF00BF9DF80530182B7AD0E37926
:101AD0001068C3EBC30300EB8307BF8850F82330C3
:101AE0005F830398049B184280D1004600BF00BF6B
:101AF00000BF00BF00BF00BF00BF00BF00BF00BFEE
:101B000000BF00BF00BF00BF00BF00BFE379106887
:101B1000C3EBC30300EB8307BF8850F823301F8358
:101B20009DF805300133DBB28DF80530049B5B086E
:101B30000493004600BF00BF00BF00BF00BF00BF4E
:101B400000BF00BF00BF00BF00BF00BF00BF00BF9D
:101B500000BF00BF00BF00BF00BF00BF00BF00BF8D
:101B600000BF00BF00BF00BF00BF00BF00BF00BF7D
:101B700000BF00BF00BF00BF00BF00BF00BF00BF6D
:101B800000BF00BF00BF00BF00BF00BF00BF00BF5D
:101B900000BF00BF00BF00BF00BF00BF00BF00BF4D
:101BA00000BF00BF00BF00BF00BF00BF00BF00BF3D
:101BB00000BF00BF00BF00BF00BF00BF9DF80530E1
:101BC000182B84D1BDF80A309BB2002B7FF4DDAE18
:101BD00017E5002B3FF415AD4FF400050026134A1E
:101BE0000495BDF80A300331033B9BB2ADF80A30CF
:101BF00011F8033CDBB28DF8073011F8023CDBB280
:101C00008DF8063011F8013CDBB28DF808309DF8F4
:101C100007709DF806309DF808001B0243EA074351
:101C2000034303938DF80560E1E000BFFC2500202D
:101C3000004600BF00BF00BF00BF00BF00BF00BF25
:101C400000BF00BF00BF00BF00BF00BF00BF00BF9C
:101C500000BF00BF00BF00BF00BF00BF00BF00BF8C
:101C600000BF00BF00BF00BF00BF00BF00BF00BF7C
:101C700000BF00BF00BF00BF00BF00BF00BF00BF6C
:101C800000BF00BF00BF00BF00BF00BF00BF00BF5C
:101C900000BF00BF00BF00BF00BF00BF00BF00BF4C
:101CA00000BF00BF00BF00BF00BF00BF00BF00BF3C
:101CB00000BF00BF00BF00BF00BF00BF00BF00BF2C
:101CC00000BF00BF00BF00BF00BF00BF00BF00BF1C
:101CD00000BF00BF00BF00BF00BF00BF00BF00BF0C
:101CE00000BF00BF00BF00BF00BF00BF00BF00BFFC
:101CF00000BF00BF00BF00BF00BF00BF00BF00BFEC
:101D000000BF00BF00BF00BF00BF00BF00BF00BFDB
:101D100000BF00BF00BF00BF00BF00BF00BF00BFCB
:101D200000BF00BF00BF00BF00BF00BF00BF00BFBB
:101D300000BF00BF00BF00BF00BF00BF00BF00BFAB
:101D400000BF00BF00BF00BF00BF00BF00BF00BF9B
:101D500000BFE3791068C3EBC30300EB8307BF88C0
:101D600050F823305F83004600BF00BF00BF00BFB4
:101D700000BF00BF00BF00BF00BF00BF00BF00BF6B
:101D800000BF00BF00BF00BF00BF00BF00BF00BF5B
:101D900000BF00BF00BF00BF00BF00BF00BF00BF4B
:101DA00000BF00BF00BF00BF00BF00BF00BF00BF3B
:101DB00000BF00BF00BF00BF00BF00BF00BF00BF2B
:101DC00000BF00BF00BF00BF00BF00BF00BF00BF1B
:101DD00000BF00BF00BF049B5B0804939DF8053063
:101DE0000133DBB2172B8DF8053000F2EB80E3797D
:101DF0001068C3EBC30300EB8307BF8850F82330A0
:101E00001F830398049B18427FF412AF004600BF63
:101E100000BF00BF00BF00BF00BF00BF00BF00BFCA
:101E200000BF00BF00BF00BF00BF00BF00BF00BFBA
:101E300000BF00BF00BF00BF00BF00BF00BF00BFAA
:101E400000BF00BF00BF00BF00BF00BF00BF00BF9A
:101E500000BF00BF00BF00BF00BF00BF00BF00BF8A
:101E600000BF00BF00BF00BF00BF00BF00BF00BF7A
:101E700000BF00BF00BF00BF00BF00BF00BF00BF6A
:101E800000BF00BF00BF00BF00BF00BF00BFE379BD
:101E90001068C3EBC30300EB8307BF8850F82330FF
:101EA0005F83004600BF00BF00BF00BF00BF00BF90
:101EB00000BF00BF00BF00BF00BF00BF00BF00BF2A
:101EC00000BF00BF00BF00BF00BF00BF00BF00BF1A
:101ED00000BF00BF00BF00BF00BF00BF00BF00BF0A
:101EE00000BF00BF00BF00BF00BF00BF00BF00BFFA
:101EF00000BF00BF00BF00BF00BF00BF00BF00BFEA
:101F000000BF00BF00BF00BF00BF00BF00BF00BFD9
:101F100000BF00BF00BF00BF00BF00BF00BF00BFC9
:101F200000BF00BF00BF00BF00BF00BF00BF00BFB9
:101F300000BF00BF00BF00BF00BF00BF00BF00BFA9
:101F400000BF00BF00BF00BF00BF00BF00BF00BF99
:101F500000BF00BF00BF00BF00BF00BF00BF00BF89
:101F600000BF00BF00BF00BF00BF00BF00BF00BF79
:101F700000BF00BF00BF00BF00BF00BF00BF00BF69
:101F800000BF00BF00BF00BF00BF00BF00BF00BF59
:101F900000BF00BF00BF00BF00BF00BF00BF00BF49
:101FA00000BF00BF00BF00BF00BF00BF00BF00BF39
:101FB00000BF10E7BDF80A309BB2002B7EF492AF51
:101FC000FFF71FBBBDF80A309BB2002B7FF408AEB1
:101FD000FFF717BBF0B545889DF814408D429DF87A
:101FE00018C01FD9057A4DB16A436B436C4305FB9A
:101FF0000CF5120A1B0A240A4FEA152C8779C668C9
:10200000062F0CBF042003204143023F7018062F07
:1020100016D8DFE807F0041508040F040400735411
:1020200042708470F0BDFE2A28BFFE2272544470B4
:102030008370F7E772544370847080F803C0F1E74F
:10204000725443708470EDE74388F0B58B4226D913
:10205000057AC2F30743C2F30724D6B23DB16B43FE
:102060006C436E43C3F30723C4F30724360A90F886
:1020700006C0C768BCF1060F0CBF042503256943E1
:10208000ACF1020C7D18BCF1060F1DD8DFE80CF096
:10209000041C08040F0404007C546B70AE70F0BD87
:1020A000FE2B28BFFE237B546E70AC70F7E77B5489
:1020B0006C70AE70037A120E13B9D2B2EA70EEE70A
:1020C0005A43C2F30722F9E77B546C70AE70E6E71F
:1020D00042EA012242EA0040704742EA012242EA13
:1020E000004040EA0360704740887047037A4A1C0A
:1020F000D2B2934270B51ED0013B13F0FF03C46807
:102100000CD0FF290FBF4FF6FF71110201F1FF3113
:10211000B1FBF3F30CBFB1FBF3F39BB2254686880A
:10212000291B89B28E4205D929785943091205F82D
:10213000011BF4E7027270BD08B500F02DFC014BE5
:10214000186008BDFC250020704710B504460C211E
:1021500002F03BF9204610BD10B5054B0446036064
:10216000037C1BB9406808B100F05CFE204610BD3E
:10217000A08C0A0810B50446FFF7EEFF2046142194
:1021800002F023F9204610BD10B5074B044603604A
:10219000037C1BB9406908B100F044FE2046FFF7FC
:1021A000DBFF204610BD00BFB08C0A0810B5044606
:1021B000FFF7EAFF20462C2102F007F9204610BD68
:1021C00038B5037C04460D460BB1002038BD40688D
:1021D00038B100F02FFE0028F7D0C4E90105012036
:1021E000F4E7084600F016FEF5E770B5C3680E4642
:1021F000D11843680446154673B183688B420BD3EC
:102200006068E3682A463146184405F003FE012061
:10221000E2682A44E26070BD2046FFF7D1FF002843
:10222000EED1F8E700210346C160406818B19A6812
:102230000AB105F0FDBD7047C0E901120022C2607D
:10224000012210B502744361024A029B0260C3611D
:1022500010BD00BFB08C0A08D1E905239A42044B97
:1022600038BF8260C0E9003124BF0023836070471B
:10227000C08C0A0870B513689D68136803F11004D8
:1022800014608669B4420AD29B698C68A34201DA61
:10229000AB42F2DDA342CCBF0020012000E00020D1
:1022A00070BD2DE9F3410546174600269846089C67
:1022B00001F1100301930198AB6983421BD9826835
:1022C0008B689A4217DAA6420BD1386001AA2846D9
:1022D000FFF7D0FF28B1019BC8F8003002B0BDE87D
:1022E000F08101AA2846FFF7C5FF284601AA01365A
:1022F000FFF7C0FFDFE70020F0E710B504460068F5
:102300000B4628B100F076FFE3680133E36010BDAF
:1023100060680028F8D0D4E90221013A8A4288BFD7
:102320004354F1E77F2870B50C46C1B204D820466B
:10233000BDE87040FFF7E1BF01F03F01B0F5006F6D
:1023400040F3871641F0800507D266F03F01C9B21D
:102350002046FFF7D2FF2946E9E7030B43F0E001EF
:102360002046FFF7CAFF06F03F0141F08001EFE78A
:102370002DE9FF47002480460F461546A1464E68CA
:10238000DFF8C4A0B868B0425ADDD8F80430995DCF
:102390009A19002C4BD0752905D86D2907D86229C8
:1023A0001ED066291ED02846FFF7A7FF3DE0A1F109
:1023B0006E04072CF7D80FF2080C5CF824F000BF6D
:1023C000E9230A08A7230A08A7230A08A7230A085B
:1023D000ED230A08A7230A08F1230A08F5230A08AF
:1023E0000821E0E70C21DEE70A21DCE70D21DAE72E
:1023F0000921D8E7311D884217DD02A908460433B8
:10240000334412F8014F9A4201F8014BF9D1514679
:1024100001AA8DF80C9000F015FD012805D1294680
:10242000BDF80400FFF77EFF0536002404E05C29B8
:1024300004D02846FFF761FF0136A3E70124FBE73C
:10244000012004B0BDE8F087908C0A087FB50C46E7
:10245000154606460B49104600F095FED4E90131B9
:10246000C91A2846013100F04FFE00236A46214672
:102470003046CDE9013300950393FFF779FF04B0AF
:1024800070BD00BFFC870A082DE9F04389B00546FE
:10249000884604A8124916469946002700F060FEB7
:1024A0004B4641462846009703AAFFF7FAFE04462A
:1024B00070B12846039904AAFFF7C8FF044608B97B
:1024C0000137EDE7314604A800F0C6FE0028F7D03A
:1024D00004A800F0FBFD204609B0BDE8F08300BF72
:1024E000FC870A0873B50D4689680446094E61B138
:1024F000686801ABFFF7C8FF38B16B68C4E90063D7
:10250000019B2046A36002B070BD6B68C4E9006304
:102510000023F6E7C08C0A0838B50D460549044685
:1025200000F01EFEA96819B122466868FFF78EFF09
:10253000204638BDFC870A082DE9F04F4FF0010C0A
:102540004FF0FF3504464068D4F800E0964580F02F
:10255000BE8111F80E80B8F1000F00F0B881B8F11B
:102560003A0F00F09B8033D8B8F1220F00F0AD8015
:1025700010D8A8F109085FFA88F8B8F1170F0DD83C
:10258000C04F0CFA08F818EA070F07D02768013780
:102590002760D9E7B8F12C0F00F03681D4F800801D
:1025A00042450ED911F808705FB13A2F00F26E81E2
:1025B0001F2F00F252810A2F00F26181082F40F292
:1025C0005781002B40F0678108F1FF372760ABE0AF
:1025D000B8F17B0F3AD00AD8B8F15B0F36D0B8F11A
:1025E0005D0FDBD1002BD1D04FF0020B06E0B8F12C
:1025F0007D0FD3D1002BC9D04FF0010B676807F1D5
:10260000FF3803EB0719B8F1000F4FDB59F80C7CCA
:10261000A9F1100A013745D059F8087C7E1C41D138
:102620009AF80090D94545D1A7600EF10107CAF884
:10263000087003EB081EDEF8047001373DD0DEF8A9
:102640000870013739D1C4F808809FE70130002BAA
:102650009CD06768099EBE424ED9002607F1010E44
:10266000C4F804E003EB071ECEE90155CEF80C6078
:102670004FEA071AA7687E1C1FBF03EB0719D9F89A
:102680000C700137C9F80C70B8F17B0F0CBF012733
:10269000022703F80A702768CEF804706768013FC4
:1026A000A76073E7D14608F1FF38ACE7B8F1FF3F08
:1026B0007FF46CAF6FF0010020E008F1FF38B8F153
:1026C000FF3FAEF1100EB6D160E70EF10109C4F87C
:1026D0000090D4F80080424540F2918011F80870D3
:1026E000002F00F08C80222F2ED1EBB16768099E5D
:1026F000BE4205D8C4F800E04FF0FF30BDE8F08FCF
:1027000000264FF0030A07F1010E4FEA071803EB0A
:102710000717C4F804E0C7E90155FE60D4F800E0EB
:1027200003F808A0C7E9019EA76801307E1C3FF4AA
:102730002DAF002B3FF42AAF03EB071EDEF80C7021
:102740000137CEF80C7021E75C2F11D108F1010799
:10275000BA420DD92760CF5D752F2BD86D2F0BD8BE
:10276000662F27D85B2F1DD8222F01D02F2F21D1E4
:10277000276801372760ACE76E3F072F1AD801A6FC
:1027800056F827F071270A08B5270A08B5270A085E
:10279000B5270A0871270A08B5270A0871270A0809
:1027A000BB270A0840F241465C3FFFB20CFA07F72C
:1027B0003742DDD1C4F800E07CE74FF0040A08F1AD
:1027C00002072760D4F80080424503D82768013FFC
:1027D0002760CDE711F80870002FF7D0A7F1300B74
:1027E000BBF1090F04D927F02007413F052FE1D89D
:1027F00008F10107BAF1010A2760E3D1E6E7C4F85E
:1028000000E06FF0020079E7002B3FF4BFAEA7684D
:102810007E1C3FF4BBAE3F01DF5D013F012F7FF621
:10282000B5AE676807F1FF3803EB071EB8F1000F7C
:10283000FFF6ACAE1EF8107C013F012F08D85EF801
:102840000C7C013704D05EF8087C01373FF4FBAE06
:1028500008F1FF38AEF1100EE8E7A7F120090A4EA3
:102860005FFA89F90CFA09F919EA060F7FF4A9AEA3
:10287000203F5E2F9ED808F1010727608EE60D2FBE
:10288000F6D19EE6130080000110000407F0DF0976
:10289000B9F15D0FF4E76768099EBE427FF62AAF83
:1028A00000264FF0040A07F101084FEA071903EB6D
:1028B0000717C4F80480C7E90155FE60D4F800800A
:1028C00003F809A0C7E901E82768013F7EE6002B6D
:1028D0003FF414AF6268511E03EB02130029FFF6A8
:1028E0000DAF53F80C2C013203D053F8082C0132F1
:1028F00087D00139103BF1E7F7B5C268044612B939
:10290000002003B0F0BD436900F12006ABB1002107
:10291000C0E908114FF0FF318162C169009141683F
:102920003046FFF709FE431C2CD1257C002DE7D152
:10293000606900F077FA6561E56100254FF0FF37C7
:102940002B463046C4E90855E2686168A7620095E5
:10295000FFF7F2FD0028D3DBE0611BD0000100F09F
:1029600059FAE2690346606100923046C4E90855AD
:10297000E2686168A762FFF7DFFD636903EB00139C
:10298000A36105E00028BBDB636903EB0010A061D5
:102990000120B6E76369F3E708B5024B1B681B68C3
:1029A000019308BDB001060808B5024B1B685B68BF
:1029B000019308BDB001060808B5024B1B689B686F
:1029C000019308BDB001060808B5024B1B68DB681F
:1029D000019308BDB001060808B5024B1B681B69CE
:1029E000019308BDB001060808B5024B1B681B6BBC
:1029F000019308BDB001060808B5024B1B685B686F
:102A0000019308BD9C01060808B5024B1B681B69B1
:102A1000019308BD9C01060808B5024B1B685B6961
:102A2000019308BD9C01060808B5024B1B689B6D0D
:102A3000019308BD9C01060808B5024B1B68DB6DBD
:102A4000019308BD9C01060808B5024B1B685B6E2C
:102A5000019308BD9C01060808B5024B1B685B6C1E
:102A6000019308BDD001060808B5024B1B689B6C9A
:102A7000019308BDD001060808B5024B1B689B698D
:102A8000019308BDC401060808B5024B1B685B6AC8
:102A9000019308BDC401060808B5024B1B689B6A78
:102AA000019308BDC401060808B5024B1B68DB6A28
:102AB000019308BDC401060808B5024B1B681B6BD7
:102AC000019308BDC401060808B5024B1B685B6B87
:102AD000019308BDC401060808B5024B1B689B6B37
:102AE000019308BDC401060808B5024B1B681B6CA6
:102AF000019308BDC401060808B5024B1B681B6C96
:102B0000019308BDAC01060808B5024B1B68DB6CDD
:102B1000019308BDAC01060808B5024B1B689B6D0C
:102B2000019308BDAC01060808B5024B1B68DB6DBC
:102B3000019308BDAC01060808B5024B1B681B6E6B
:102B4000019308BDAC01060808B5024B1B685B6E1B
:102B5000019308BDAC01060808B5024B1B689B6ECB
:102B6000019308BDAC01060808B5024B1B68DB6E7B
:102B7000019308BDAC01060808B5024B1B681B6F2A
:102B8000019308BDAC01060808B5024B1B685B6FDA
:102B9000019308BDAC01060808B5034B1B68D3F8C8
:102BA0008030019308BD0000AC01060808B5024B57
:102BB0001B68DB69019308BDB401060808B5024B28
:102BC0001B681B6A019308BDB401060808B5024BD7
:102BD0001B681B68019308BDD801060808B5024BA5
:102BE0001B685B68019308BDD801060808B5024B55
:102BF0001B681B69019308BDD801060808B5024B84
:102C00001B685B69019308BDD801060808B5024B33
:102C10001B689B69019308BDD801060808B5024BE3
:102C20001B68DB69019308BDD801060808B5024B93
:102C30001B681B6A019308BDD801060808B5024B42
:102C40001B689B6C019308BDC001060808B5024BC8
:102C50001B68DB6C019308BDC001060808B5024B78
:102C60001B681B68019308BDA401060808B5024B48
:102C70001B685B68019308BDA401060808B5024BF8
:102C80001B685B69019308BDA401060808B5024BE7
:102C90001B68DB6A019308BDA401060808B5024B56
:102CA0001B68DB6C019308BDA401060808B5024B44
:102CB0001B685B6D019308BDA401060808B5024BB3
:102CC0001B689B6D019308BDA401060808B5024B63
:102CD0001B689B6F019308BDA401060808B5024B51
:102CE0001B68DB6F019308BDA401060808B5034B00
:102CF0001B68D3F89030019308BD0000A4010608BA
:102D000008B5034B1B68D3F89C30019308BD000045
:102D1000A401060808B5024B1B685B68019308BD57
:102D2000C801060808B5024B1B689B68019308BDE3
:102D3000C801060808B5024B1B68DB68019308BD93
:102D4000C801060808B5024B1B681B69019308BD42
:102D5000C801060808B5024B1B685B69019308BDF2
:102D6000C801060808B5024B1B689B69019308BDA2
:102D7000C801060808B5024B1B68DB69019308BD52
:102D8000C801060808B5024B1B681B6A019308BD01
:102D9000C801060808B5024B1B681B6B019308BDF0
:102DA000C801060808B5024B1B685B6B019308BDA0
:102DB000C801060808B5024B1B689B68019308BD53
:102DC000CC01060808B5024B1B685B69019308BD7E
:102DD000CC01060808B5024B1B681B6A019308BDAD
:102DE000CC01060808B5024B1B685B6A019308BD5D
:102DF000CC01060808B5024B1B681B6B019308BD8C
:102E0000CC01060808B5024B1B68DB6B019308BDBB
:102E1000CC01060808B5024B1B681B68019308BD6E
:102E2000A001060808B5024B1B685B68019308BD4A
:102E3000A001060808B5024B1B689B68019308BDFA
:102E4000A001060808B5024B1B685B69019308BD29
:102E5000A001060808B5024B1B689B69019308BDD9
:102E6000A001060808B5024B1B68DB6A019308BD88
:102E7000A001060808B5024B1B681B6B019308BD37
:102E8000A001060808B5024B1B68DB6B019308BD67
:102E9000A001060808B5024B1B685B6C019308BDD6
:102EA000A001060870B5002604460D4640F8086FDC
:102EB000FFF7D2FD28462570FFF778FE20466660B2
:102EC00070BD10B50446006818B1FFF7ABFF0023D2
:102ED000236010BD10B50446FFF7F3FF204610BD78
:102EE0000222002010B5084B084C1A60084B2060E5
:102EF000A080A071A360FFF7B9FE2046BDE8104096
:102F0000044A054901F05CBA0C2600200026002086
:102F10000000FFFFD8000020D52E0A0810B5044697
:102F200005F013F8431E20462344834206D9027855
:102F3000197800F8011B03F80129F6E710BD931E6C
:102F4000222B4FF000032DE9F0418CB00D461446C2
:102F50008DF82C3026D9002829DA2E462D230A2474
:102F600006F8013B40424FF001080DF12B072246C5
:102F7000014601A804F03AFF029B0198092BCCBF3F
:102F800037223022134407F8013908F101080028DC
:102F9000EDD142463046791C04F03CFF28460CB087
:102FA000BDE8F0810A2AD6D018B12E46DBE70A2404
:102FB000FAE730232E464FF002088DF82B300DF142
:102FC0002A07E6E770B50C46911E222922D825462D
:102FD00068B1B0FBF2F602FB1600C1B2092894BF3B
:102FE00030315731C9B2304605F8011BF0E72A46A7
:102FF00030212344934202D902F8011BFAE75A1BFD
:10300000AB4238BF002200232046AB54FFF786FFB7
:10301000204670BD0020FCE72DE9F04707460D462D
:1030200016461C46002200233846294604F01CF8A8
:1030300020B12D2305F1004504F8013B00234FF09A
:10304000010A0A22D9B28E4203D902FB0AFA0133DD
:10305000F8E7504603F02CFD3A462B4603F092FD6C
:103060008046894604F03CFC05460F4603F054FDBB
:1030700002460B464046494603F0CCFB0022124B69
:1030800004F006F810B1013547F100075246284612
:103090003946D31704F0D8FB0123154621460A22EE
:1030A000FFF790FF6EB1204604F04FFF2E2321184A
:1030B00023540A2233462846BDE8F0470131FFF782
:1030C00081BFBDE8F08700BF0000E03F10B50446B7
:1030D0000068FFF7A7FE204610BD10B50446006843
:1030E00008B1FFF79FFE0023C4E90133236010BD40
:1030F00038B504460D4600680131FFF79BFE10B15C
:10310000C4E90005012038BD10B50368044623B1A9
:1031100043688B4201D3012010BD2046FFF7E8FF32
:103120000028F9D0A368002BF5D122681370F2E7CC
:1031300070B50E46114604461546FFF7E5FF20B967
:103140002046FFF7CAFF204670BD2A463146206858
:10315000A56004F05FFE00212268A368D154F2E765
:1031600038B5002304460D46C0E90033836003737D
:1031700039B1084604F0E9FE294602462046FFF729
:10318000D7FF204638BD38B505460C4649B108463C
:1031900004F0DBFE214602462846FFF7C9FF284619
:1031A00038BDFFF79AFFFAE770B505460E4609B934
:1031B000002070BD6AB1846814442146FFF7A4FF63
:1031C0000028F5D02868AB683146184404F09AFE10
:1031D000AC600120EDE738B505460C46084641B124
:1031E00004F0B3FE214602462846BDE83840FFF70A
:1031F000DBBF38BD002307B501228DF8041001A9FB
:103200008DF80530FFF7D0FF03B05DF804FB1FB564
:1032100004460A22084601A9FFF791FE01A804F01E
:1032200094FE01A902462046FFF7BEFF04B010BD80
:1032300010B5044686B0084603F04CFC01AB0622EC
:10324000FFF7EAFE01A804F080FE01A9024620462D
:10325000FFF7AAFF06B010BD08B582683AB921B1E0
:103260000878B0FA80F0400900E0012008BD00684D
:1032700009B90078F5E704F03BFEF2E7F8B5064639
:103280000D4600248F18BD420CD0336830469B6831
:1032900015F8011B9847031E01DB1C44F3E7002CC3
:1032A00008BF1C462046F8BD70B505460C460846CA
:1032B00049B104F04AFE2B68024621462846BDE883
:1032C0007040DB68184770BD03689B68184738B5C5
:1032D0000D210546FFF7F8FF0A2104462846FFF7AF
:1032E000F3FF204438BD38B50546FFF7DDFF04463F
:1032F0002846FFF7ECFF204438BD0023012A98BF81
:103300000A2230B58BB00C468DF8243009A9254629
:10331000B4FBF2F404FB1253DBB2092B94BF30333D
:103320003733DBB2AA4201F8013DF0D9FFF7BCFF09
:103330000BB030BD002340681A461946FFF70ABD9E
:103340000B68036013B15A6801325A60704700007D
:10335000014B024A1A60704710260020C88C0A08E8
:103360002DE9F041154ADFF86080D2E90032C0183B
:1033700042EB0101124A8CB0D2E90032C61841EB8F
:103380000207D8E90023BB4208BFB24213D003A909
:103390006846CDE9006704F033FC089B094D03F251
:1033A0006C7303AC08930FCC0FC50FCC0FC5C8E9E5
:1033B000006723682B600CB0BDE8F0814826002030
:1033C00040260020182600205026002008B50020A6
:1033D000FFF710FD28B1FFF7F5FC80F00100C0B247
:1033E00008BD0120FCE7000008B5FFF7B9FF024B5C
:1033F0001869013008BD00BF1826002010B50A4921
:10340000044604F0B3F968B92046084904F0CCF941
:1034100040B90749204604F00BF804F02DFA054B9B
:10342000C3E9000110BD00BF000040C100006041C1
:10343000000061454826002010B50020FFF7F4FA8F
:103440000446A0B9FFF70AFC012810D12046FFF777
:1034500035FC60B9FFF7BAFF10B9FFF7ABFCF9E72D
:10346000FFF7B4FFBDE810400020FFF7DDBA2046AB
:1034700010BD1FB5FFF7E0FF10220021684604F0E1
:10348000D7FC00216846FFF7DFFA009805B05DF829
:1034900004FB000008B5FFF7ECFFC117FFF760FF62
:1034A000014B986808BD00BF1826002008B5FFF73B
:1034B000E0FFC117FFF754FF014B586808BD00BF7C
:1034C0001826002008B5FFF7D4FFC117FFF748FF03
:1034D000014B186808BD00BF1826002008B5FFF78B
:1034E000C8FFC117FFF73CFF014BD86808BD00BFFC
:1034F0001826002008B5FFF7BCFFBDE80840C1173B
:10350000FFF772BF024B1A68024B1A60704700BF88
:1035100004000020142600208A4210B507D0029C27
:10352000401AE41A6043521A90FBF2F0184410BD9E
:103530000021FFF7A3BB10B58368044613B1032233
:1035400001469847204610BD10B50446FFF7F3FF2B
:10355000204610BD13B56C460B46024603C884E8EE
:10356000030093E8030082E8030094E8030083E883
:10357000030002B010BD000000230348034A0449C1
:10358000836000F01DBF00BF58260020D800002037
:1035900049350A08014B1860704700BF0C00002035
:1035A00008B5134B43B100F0F7FB03681B6998475C
:1035B000002801DDAFF300800E4B43B100F096FC14
:1035C00003681B699847002801DDAFF300800A4BB0
:1035D0000BB1AFF30080094B43B100F00DFC036861
:1035E0001B699847002801DDAFF3008008BD00BFCC
:1035F00000000000000000000000000000000000CB
:1036000008B5FFF7CDFFFFF707FA014B186008BDBB
:10361000E02600200248034A0349121A04F0FABBCC
:103620000040024004400240D8910A08002307B538
:103630001A466FF077010093FFF762FB03B05DF865
:1036400004FB000007B543880A2B08D0502B0BD190
:10365000094B1B684BB103B05DF804EB1847FFF74B
:10366000E5FF03B05DF804FB00231A466FF0770115
:103670000093FFF745FBF4E76C26002038B5124CA9
:1036800000211248FFF706FC114D2368AB420CBF26
:10369000012200220F4B1A7002D0FFF7BBFF2560FA
:1036A000FFF7AAF9044604F0CBFB0B4B13B12046FD
:1036B000AFF3008000210848FFF7A4FBBDE83840C5
:1036C00000210648FFF712BB0040024095350A086A
:1036D0001E1C279A682600200000000045360A08B4
:1036E00070470020704710B50446102100F06DFEB1
:1036F000204610BD08B5FFF7F6FF08BD002230B523
:103700004FF69C74026084808D888C800C68858064
:1037100004600A6030BD10B504460068FFF782FB04
:10372000204610BD38B5C468F4B12378022B03D10C
:1037300004F10C00FFF7EFFF656835B12846FFF78D
:10374000FAFE1021284600F040FEA56835B1284653
:10375000FFF7F1FE1021284600F037FE2046BDE8B5
:103760003840142100F031BE38BD73B50E46044612
:1037700056F8043B0D4601A831460093FFF7E0FDE3
:10378000009B019A23600023626001A801930093CB
:10379000FCF72EFE3046FCF72BFE2846082100F0F1
:1037A00014FE204602B070BD826810B50AB900F060
:1037B00010FEC368BDE81040184708B5006800F166
:1037C0001001FFF7F1FF08BD826810B50AB900F0DB
:1037D00000FEC368BDE81040184708B5006800F156
:1037E0001001FFF7F1FF08BD38B500230446036060
:1037F00010200D46FCF751FC28B10123C0E901332C
:10380000024BC56003602060204638BDF08C0A087A
:1038100038B5002383608B6804460D462BB1022225
:103820009847EB68E360AB68A360204638BD0000B2
:10383000F0B589B004686846FFF760FF4FF00203F7
:10384000D4E84F2F002A03D1C4E8413F0029F7D123
:1038500025D104F10C0569462846FFF74FFF0123E7
:10386000BFF35B8F63700020BFF35B8F04F108032D
:1038700053E8006F43E80002002AF9D1BFF35B8FE1
:103880006EB1FFF70BFA78B129463046FFF78CFF8F
:103890003046FFF750FE1021304600F096FD684696
:1038A000FFF739FF09B0F0BD314602A8FFF7B0FFBE
:1038B000E068B4F9105008B104F02CFB0690102019
:1038C000ADF81C50FCF7E9FB0546E8B1002787601E
:1038D0001820FCF7E2FB044688B10146876002A885
:1038E000FFF738FE049BA268A360059B0492E26880
:1038F00006A9E36004F110000592FFF7FFFE084BF4
:103900002C60EB60074BAB6006A8FFF704FF02A832
:10391000FFF711FE002229460348FFF7C7F9B7E772
:10392000BB370A08513A0A08713F0A082DE9F047E7
:103930008AB005460C46174698469DF84890FFF712
:1039400041FA07AE824638BB4FF62E73059005A9A3
:103950003046ADF81830FFF7D1FE1420FCF79DFB80
:10396000044648B1022303700123C0E901AA437051
:1039700031460C30FFF7C2FE2846214640F8044B82
:10398000FFF732FF3046FFF7C6FE05A8FFF7C3FE7C
:1039900028460AB0BDE8F0870C234FF0000A142037
:1039A000CDE908AA0793FCF778FB014628B1C0E9E6
:1039B00001AA80F800A080F801A004A80391FFF7F5
:1039C00013FF224B08200893FCF767FB824628B1BF
:1039D000039B04A940F8043BFFF7B2FC424639467A
:1039E000204600965FFA89F3CDF824A0FFF7F2F99C
:1039F000B8B9039B5B7803F0FF0293B94FF69C7351
:103A000005A903A80592ADF81830FFF711FF05A826
:103A1000FFF781FE05A80999FFF7A7FE06A8FCF7A6
:103A2000E7FC039B04A906A80593FFF789FC059B07
:103A3000069A2B6000236A6006A806930593FCF79C
:103A4000D7FC04A8FCF7D4FCA2E700BF153B0A088A
:103A5000022AF8B5054607D0032A18D0012A01D159
:103A60000B6803600020F8BD18200E68FCF715FBFA
:103A7000044650B13146FFF7CBFE3069B6F91470F9
:103A800008B104F047FA2061A7822C60EAE70468D5
:103A9000002CE7D004F11000FFF73DFE2046FFF7B1
:103AA0004AFD1821204600F090FCDBE738B50023E2
:103AB00083608B6804460D462BB102229847EB6861
:103AC000E360AB68A360204638BD022A70B50446A7
:103AD00007D0032A12D0012A01D10B68036000200D
:103AE00070BD14200E68FCF7D8FA054620B13146A7
:103AF000FFF7DCFF337C2B742560F0E70468002CB3
:103B0000EDD02046FFF717FD1421204600F05DFCA4
:103B1000E5E70000F0B5044689B00D4601A811465E
:103B2000FFF723FEA4B124B21DB1284604F0F2F938
:103B3000054601A803A90395ADF81040FFF778FEEC
:103B400003A8FFF7E8FD02A8FCF752FC09B0F0BD9E
:103B50000123019DD5E84F2F002A03D1C5E8413F3D
:103B60000029F7D1EFD12B73BFF35B8F6B70BFF3DD
:103B70005B8F2B1D53E8006F43E80042002AF9D108
:103B8000BFF35B8F002EDED02046FFF787F8074695
:103B900060B1304605F10C01FFF716FE3046FFF725
:103BA000CAFC1021304600F010FCCCE7314603A8D7
:103BB000FFF77CFF2B7B10208DF81C30FCF76DFA93
:103BC0000546D0B187601420FCF767FA044678B147
:103BD0000146876003A8FFF7BDFC059BA268A360B0
:103BE000069B0592E268E3609DF81C300692237400
:103BF000064B2C60EB60064BAB6003A8FFF79BFC09
:103C0000002229460348FFF751F8C7E7DB370A08C7
:103C1000CB3A0A08713F0A08704710B504461821CC
:103C200000F0D3FB204610BDF8B50E46002400F18D
:103C30000807051D17F8011D0A223046FFF75DFB36
:103C4000AF42044401D12046F8BD002CF2D02E2111
:103C50003046FFF739FB0444ECE7000010B504469A
:103C6000044B1122002140F8043B04F0E1F8204607
:103C700010BD00BF0C8D0A080346074A10B543F873
:103C8000042B01F1100251F8044B914243F8044B0C
:103C9000F9D10A781A7010BD0C8D0A08024AC0E9E1
:103CA00000210422027570470C8D0A0810B59DF89A
:103CB000084044EA0324042344EA024444EA016439
:103CC0004460037510BD000037B5044D05609DF8D4
:103CD00018500095FFF7EAFF03B030BD0C8D0A08BD
:103CE00041747047704708B50021007CFEF78EFFD5
:103CF00040EAE07008BD08B50121007CFEF786FFB0
:103D000040EAE07008BD08B5007CFEF777FF20EAC6
:103D1000E07008BD08B5007CFEF768FF20EAE0709F
:103D200008BD38B50446007C0D46FEF767FF002845
:103D300001DC607C28B12946207CFEF76FFF20EA79
:103D4000E07038BD007CFEF771BF10B50446142149
:103D500000F03BFB204610BD10B54FF47A730446CB
:103D600008460021C4E90113044B20742360012399
:103D700011466374FEF72AFF204610BD208D0A0805
:103D80000022007CFEF72ABF10B504461422002151
:103D900004F04EF8204610BD30B50F4D87B001A895
:103DA000FFF7F2FF2978BFF35B8F11F0010410D108
:103DB0002846FCF778F960B1214601AA0748FFF7C9
:103DC000CBFF2846FCF774F9054A0649034800F082
:103DD000F7FA024807B030BD702600207826002090
:103DE000D8000020E53C0A0810B504461422002142
:103DF00004F01EF8204610BD10B50F4C86B001A887
:103E0000FFF7F2FF2378BFF35B8FDB0710D4204668
:103E1000FCF749F960B1012101AA0848FFF79CFFAE
:103E20002046FCF745F9064A0649044800F0C8FA5E
:103E3000024806B010BD00BF742600208C2600206A
:103E4000D8000020E53C0A0870474174704708B567
:103E5000007CFEF749FE20EAE07008BD08B5007C52
:103E6000FEF71AFE20EAE07008BD08B5007CFEF7F8
:103E700023FE40EAE07008BD08B5007CFEF714FEA2
:103E800040EAE07008BD007CFEF71EBE70B5467CBF
:103E900004460D462EB12946207CBDE87040FEF751
:103EA000F3BD007CFEF720FE0028F4DC304670BD38
:103EB00010B50446142100F088FA204610BD000019
:103EC0004FF0000C10B50446084611464FF47A72C4
:103ED000C4E901C2044A20742260012262741A46B5
:103EE000FEF7CAFD204610BD508D0A08F8B51A4CE1
:103EF00026684EB98420FCF7D0F8054618B1842214
:103F0000314603F095FF2560144D2F684FB984208A
:103F1000FCF7C3F8064618B18422394603F088FF3F
:103F20002E600F4F3978BFF35B8F11F0010611D16E
:103F30003846FCF7B8F868B1314622682B68094862
:103F4000FFF7BEFF3846FCF7B3F8074A07490548B4
:103F500000F036FA0348F8BDA4260020A826002069
:103F6000A0260020AC260020D8000020493E0A08E8
:103F700010B5836804460BB900F02BFAC368984764
:103F8000A3681BB103222146204698472046BDE87E
:103F90001040102100F019BA7047F8B506461546D2
:103FA0000C468F18BC4206D0336830469B6814F824
:103FB000011B9847F6E72846F8BD0022007CFEF773
:103FC000BBBD0021007CFEF7BFBD0021007CFEF7D9
:103FD000C3BD0021007CFEF7C7BD0021007CFEF7B9
:103FE000CBBD10B50446142100F0EFF9204610BDFA
:103FF00010B54FF47A73044608460021C4E9011352
:10400000034B114623602074FEF7C6FD204610BD09
:10401000808D0A080022007CFEF76EBD0023007C24
:104020001A461946FEF770BD0022007CFEF774BDEB
:10403000C9B2FFF7F9BF0022007CFEF775BD012170
:10404000FFF7F9BF10B5044628B103F01DFF90FB40
:10405000F4F303FB1404204610BD884210B5044657
:1040600003DA081AFFF7EEFF0444204610BD0022D1
:1040700040681146FEF766BEF0B5154689B01122BC
:104080000E460446002103A803F0D2FE284603F0A2
:104090005CFF002781B273682846009703AAFEF7E9
:1040A000CDFD30B139462046FFF7F8FD204609B076
:1040B000F0BD204603A9FFF7DFFDF7E700224068C7
:1040C0001146FEF75FBE002240681146FEF76ABE49
:1040D00000224068FEF75EBE0022406881F00101C8
:1040E000FEF748BE002340681A461946FEF73ABE5E
:1040F000002240681146FEF715BE002202214068EA
:10410000FEF718BE002340681A46FEF703BE000003
:104110000422024B5A60024A1A607047C0260020EF
:10412000A88D0A08002340681A46FEF7F3BD002256
:1041300002214068FEF7FEBD002240681146FEF7EE
:10414000F1BD002240681146FEF7FCBD0023406827
:104150001A461946FEF7FEBD002340681A46194666
:10416000FEF700BE0022406881F00101FEF702BEAA
:1041700000224068FEF70EBE002240681146FEF79E
:1041800011BE002240681146FEF7FCBD70B5154611
:104190008EB0044608A8FFF761FD1122002103A894
:1041A00003F046FE0026284603F0CFFE0A4B009699
:1041B00081B25B68284603AAFEF740FD30B1314664
:1041C0002046FFF76BFD20460EB070BD204603A9C8
:1041D000FFF752FDF7E700BFC0260020024B034A5D
:1041E0001A6000225A607047C8260020DC8D0A0839
:1041F00010B50446806808B1FEF736FC204610BDB5
:10420000172870B5044601D9002070BDA0F10D0338
:10421000022B0BD9012826D800F0AAF80021007C37
:10422000FEF7B2FC80F00100C0B2EEE7134E317829
:10423000BFF35B8F11F001050FD13046FBF733FF61
:1042400058B129460E48FEF72DFE3046FBF730FFE9
:104250000C4A0D490A4800F0B3F8094B1878FEF7EC
:10426000ADFC0028D0D1123C012C05D8FFF73EFE52
:10427000007CFEF731FCD5E70120C6E7D026002000
:10428000D4260020D8000020F1410A08172838B5AC
:1042900004460D460AD8FF2908D0FFF7B1FF28B120
:1042A00029462046BDE83840FEF786BB38BD38B504
:1042B00004460D46FEF788FBFF2810D0062804D8D8
:1042C0004D2323FA00F0C30709D42046FFF798FFD7
:1042D00028B129462046BDE83840FEF77DBB38BDF1
:1042E00010B5044609289CBF0A34A4B22046FFF743
:1042F00087FF50B103212046FEF756FB032804D167
:104300002046BDE81040FEF76FBB002010BD000046
:10431000002313B5074C1A46194620460093FFF7B1
:10432000D3FC2046044A054902B0BDE8104000F025
:1043300047B800BFE4260020D8000020193C0A0836
:10434000002370B5202543801423084E04460380C3
:10435000314685600561284600F039F831466060D5
:10436000284600F034F8E060204670BD088E0A0848
:1043700030B50F4D87B02978BFF35B8F11F0010482
:1043800013D12846FBF78FFE78B101A8FFF7D8FFBD
:10439000214601AA0748FFF72BFE2846FBF788FEB7
:1043A000054A0649034800F00BF8024807B030BD43
:1043B000FC26002000270020D8000020993F0A0892
:1043C0000B460146184603F00DBCFBF76ABEFBF72F
:1043D00066BE08B5FEF746FDF0B5284D21F0004356
:1043E000AB4287B020DD264DAB4209DD02460B46CD
:1043F00002F010FA02460B461046194607B0F0BD0F
:1044000002AA00F075FF00F00300012818D002286E
:1044100028D0DDE90423E0B1DDE9020101F050FA22
:10442000024601F10043E7E7002400220023009444
:1044300001F092FF02460B461046194607B0F0BD48
:10444000DDE90423DDE9020101F03AFA02460B46F8
:10445000D2E70124DDE90201009401F07DFF02466C
:104460000B46C9E70124DDE90423DDE902010094DC
:1044700001F072FF024601F10043BDE7FB21E93F75
:10448000FFFFEF7F2DE9F04F8FB01D4606460F4628
:10449000144600F095F9A44BCDE9000193F9009082
:1044A000B9F1FF3F38D022462B462046294602F07C
:1044B00003FE834680BB32463B463046394602F017
:1044C000FBFD8046002840F0D9804FF0000A4FF0F5
:1044D000000B3046394652465B4602F0BBFD00B346
:1044E00052465B462046294602F0B4FD0390002860
:1044F00048D001228D4BCDE90667CDE90845CDE9CD
:104500000AABCDE90423CDF83080B9F1000F68D0B3
:104510000023874CCDE90034DDE900010FB0BDE890
:10452000F08FDDE9000101F0DDFF8046002869D051
:10453000DDE900014FF000084FF0000942464B460C
:1045400002F088FD0028E7D03046394601F0CAFF66
:104550000028E1D02046294601F0C4FF0028DBD026
:1045600004200021704B714A93F90030CDE90667B1
:10457000022BCDE90845CDE90A8904900C910592FA
:1045800072D176E02046294601F0ACFF0028C3D066
:1045900052465B462046294602F066FD0028BBD005
:1045A0000121039A604B0C9293F900305F4ACDE9E8
:1045B0000667CDE90845CDE90412002B7BD1CDE992
:1045C0000AAB04A802F010F800287BD00C9B1BB1AA
:1045D000FEF758FC0C9B0360DDE90A34CDE900349A
:1045E0009AE704A802F000F8002870D00C9B002B7A
:1045F000F2D0FEF747FCDDE90A34CDE900340C9B2C
:10460000036089E73046394601F06CFF00288FD0FF
:104610002046294601F066FF002889D0DDE9002305
:104620001046194602F048FD002840F0A4800322FD
:1046300004923D4A3D4B92F90080CDE90667CDE9F1
:1046400008450C900593B8F1000F45D14FF0604834
:10465000DFF8F09052465B4630463946CDE90A898C
:1046600002F002FD002846D104A801F0BDFF002899
:10467000ACD1FEF707FC22230360A7E7002200234A
:104680002046294602F0E6FC00283FF445AF01220F
:1046900000202749254BB9F1020FCDE90667CDE986
:1046A0000845CDE90A01CDF830B00492059398D1C0
:1046B000CDE9000130E700201E49022BCDE90A01B7
:1046C0007FF47FAFFEF7DEFB212303607EE7FEF77A
:1046D000D9FB2123036089E7304600263946164F6F
:1046E00052465B46CDE90A6702F0BEFC60BBB8F1FA
:1046F000020FBED0B8E70022104B2046294602F038
:1047000041FA04460D4601F077FF22462B4602F09F
:10471000A1FC60BB4FF06042094B0349CDE90A237D
:1047200091F90080E3E700BF080000200C8E0A0822
:104730000000F03F0000F0FF0000F07F0000E03FCD
:10474000FFFFEFC7FFFFEF470022194B2046294626
:1047500002F018FA04460D4601F04EFF22462B46A1
:1047600002F078FC18B90022124BCDE90A23124B53
:1047700093F90080BBE701220F4BCDE9066793F95F
:1047800000900E4BCDE90845CDE90423CDF83080EB
:10479000B9F1000F3FF413AF52465B4650465946FD
:1047A00002F01AFBB9F1020FCDE90A018AD008E73D
:1047B0000000E03F0000F0FF080000200C8E0A0817
:1047C0002DE9F04F23F000451F46984655EA0203B5
:1047D00095B037D08B4689466F492BF000448C4208
:1047E0008246034628DC164635D08D4224DC6A49D1
:1047F0008D421FD0B9F1000F36DB00210291002A53
:104800004DD1654A954200F09D80644A954200F082
:10481000AB80B8F1804F00F0D484614A90453ED11E
:10482000B9F1000F3BDB5046594615B0BDE8F04FDB
:1048300000F080BF002ADDD004F1404404F580146C
:1048400023430BD10023554CCDE90034DDE90001B1
:1048500015B0BDE8F08F08B9A542C8DD514815B0C4
:10486000BDE8F04F01F0C2BE4F498D4200F3858094
:10487000A1F154718D420EDD2915A1F2FF311429E9
:1048800040F3A984C1F1340122FA01F000FA01F1E8
:10489000914200F0F68400210291002AB5D05046E2
:1048A00059460C9301F01AFE0C9BCDE9000143BB65
:1048B00024B13A4B29F040429A4222D1B8F1000F7C
:1048C00007DADDE900230020344902F085FACDE95A
:1048D0000001B9F1000FB9DA029B04F1404404F57C
:1048E0008014234340F09C84DDE9002310461946E0
:1048F00001F090FF02460B4602F06EFACDE900018E
:10490000A4E7029A4FEAD973013B0C93134337D0C3
:10491000264B9D424EDD03F104739D42244B40F330
:10492000DF839C4240F35E83B8F1000F40F35E8367
:1049300017A3D3E900231046194602F023F9CDE965
:10494000000183E704F1404202F5801213433FF473
:1049500079AF174B9C4240F37383B8F1000FC0F25C
:104960004583CDE9006771E7B8F1000FC0F21F84FD
:1049700050465946CDE9000168E7022102913EE721
:10498000524650465B465946B2E700BFAFF300803F
:104990009C7500883CE4377E0000F07F0000F03F0B
:1049A0000000E03F108E0A08FFFF3F430000E04197
:1049B000FFFFEF3FD04B09EA0303002B40F0568383
:1049C000DDE900010022CD4B02F0DCF86FF0340C81
:1049D0000C46CDE900012315C94AC4F31304A3F220
:1049E000FF3344F07F5503EB0C0194420D9145F4E5
:1049F000401540F32E83C34B9C4240F31E8400239A
:104A00000024CDE90A34CDE9123400234FF0000A26
:104A1000BD4C0131CDE906340D91A5F58015DDE9D8
:104A200000012946DDE90623CDE9080101F0F2FE87
:104A3000DDE9062380468946DDE9080101F0ECFE48
:104A400002460B460020B04902F0C6F903460C4668
:104A50001A46CDE90E3440462346494602F092F804
:104A60000C46034601462246CDE9043400240020CA
:104A70006B1043F0005303F50023CDE9001203EB64
:104A80000A010094DDE900AB04460D4602460B46E0
:104A90005046594602F076F802460B4640464946D3
:104AA00001F0B8FEDDE90623804689462046294606
:104AB00001F0B0FE02460B46DDE9080101F0AAFE56
:104AC00052465B4602F05EF802460B4640464946B7
:104AD00001F0A0FEDDE90E2302F054F8DDE90489BF
:104AE00004460D4642464B4640464946CDE90645FA
:104AF00002F048F86EA3D3E9002304460D4602F005
:104B000041F86DA3D3E9002301F086FE22462B462F
:104B100002F038F86AA3D3E9002301F07DFE2246B3
:104B20002B4602F02FF868A3D3E9002301F074FEAE
:104B300022462B4602F026F865A3D3E9002301F0B4
:104B40006BFE22462B4602F01DF863A3D3E9002337
:104B500001F062FE22462B4604460D4610461946D9
:104B600002F010F802460B462046294602F00AF8E9
:104B700004460D4652465B4640464946CDE9048907
:104B800001F04AFEDDE9062301F0FCFF22462B4638
:104B900001F042FE524604460D465B4650465946D9
:104BA00001F0F0FFA046A94604460D460022574BEF
:104BB000CDE9104501F030FE42464B46CDE90E8965
:104BC00001F02AFE0D46009C2B46224650465946CF
:104BD00001F0D8FF804689460022204629464B4BEB
:104BE000CDE9088901F016FEDDE9102301F012FE7F
:104BF00002460B46DDE90E0101F00CFEDDE904235F
:104C000001F0C0FF224680468946DDE906012B46B9
:104C100001F0B8FF02460B464046494601F0FCFD54
:104C200082468B46DDE9080152465B4601F0F4FD01
:104C30002BA3D3E90023009C0D46204601F0A2FFE0
:104C4000DDE908238046894620462946CDE90489C6
:104C500001F0E0FD02460B465046594601F0DAFDF0
:104C600021A3D3E9002301F08DFF21A3D3E9002381
:104C7000804689462046294601F084FF02460B46BD
:104C80004046494601F0C8FDDDE9122301F0C4FDAC
:104C900082460D988B4601F00BFF80468946DDE980
:104CA000040152465B4601F0B7FD31E0AFF30080EE
:104CB000EF4E454A287ECA3F65DBC9934A86CD3F01
:104CC00001411DA96074D13F4D268F515555D53FE7
:104CD000FFAB6FDBB66DDB3F033333333333E33F7F
:104CE000000000E009C7EE3FFD033ADC09C7EE3FD4
:104CF000F5015B14E02F3EBE0000F07F0000404352
:104D00008E98030079B60B000000F03F00000840C9
:104D1000DDE90A2301F080FD42464B4601F07CFDAF
:104D2000009C42464B4620460D4601F073FDDDE9EE
:104D30000A2301F06FFDDDE9042301F06BFD02465B
:104D40000B465046594601F065FD82468B46029B54
:104D50000C9A013B13434FF000020CBFDA4BDB4BC4
:104D6000CDE90067CDE9022300230093DDE9008946
:104D70003046424639464B4601F04CFD22462B4612
:104D800001F000FF32463B4606460F465046594664
:104D900001F0F8FE02460B463046394601F03CFD74
:104DA000424682468B464B462046294601F0EAFEA3
:104DB00006460F4650463B465946324601F02CFD0A
:104DC000C34B044699420D46884640F3148101F1D5
:104DD0003F4303F5E003034340F01282A6A3D3E967
:104DE00000235046594601F017FD3246CDE9000137
:104DF0003B462046294601F00DFD02460B46DDE903
:104E0000000102F04FF9002840F0FA81C8F30A537C
:104E10004FF480120020A3F2FE3342FA03F343441E
:104E2000AC4CC3F30A52A2F2FF3244FA02FCC3F3C1
:104E3000130523EA0C01C2F1140445F48015B8F1FE
:104E4000000F0B4645FA04F10C91B8BF49420246E7
:104E5000B8BF0C913046394601F0DCFC06460F46DF
:104E600050463B465946324601F0D6FC0D460C9B57
:104E70001B050093002482A3D3E900232046294682
:104E800001F080FE3246804689463B462046294650
:104E900001F0C0FC02460B465046594601F0BAFCF0
:104EA00079A3D3E9002301F06DFE79A3D3E90023B0
:104EB00006460F462046294601F064FE02460B4690
:104EC0003046394601F0A8FC06460F4632463B46BE
:104ED0004046494601F0A0FC42464B460D4604467A
:104EE00001F098FC02460B463046394601F092FC30
:104EF0002B4682468B4622462946204601F042FE3A
:104F000065A3D3E9002306460F4601F03BFE64A3E8
:104F1000D3E9002301F07EFC32463B4601F032FE2D
:104F200061A3D3E9002301F077FC32463B4601F050
:104F300029FE5FA3D3E9002301F06CFC32463B4617
:104F400001F020FE5CA3D3E9002301F065FC3246AA
:104F50003B4601F017FE02460B462046294601F06B
:104F600059FC06460F4632463B462946204601F08C
:104F700009FE0022804689464FF08043304639467C
:104F800001F048FC02460B464046494601F024FF2A
:104F9000524606460F465B462946204601F0F2FD82
:104FA00052465B4601F038FC02460B463046394615
:104FB00001F030FC2B46224601F02CFC02460B4649
:104FC0000020424901F026FC009D0D44B5F5801FEC
:104FD000C0F253812946DDE9022301F0D3FDCDE97A
:104FE000000133E4B8F1000FFFF6A2AC0023002467
:104FF000CDE900342AE4DFF8E4C021F00043634542
:1050000040F3F680344B0B4403430AD132463B460F
:1050100001F000FC52465B4602F03AF800283FF4EB
:10502000F5AE27A3D3E90023DDE9020101F0AAFDD3
:1050300023A3D3E9002301F0A5FDCDE9000105E498
:10504000B8F1000FD2DA07F1004300960193FFF7A1
:10505000FDBB00230024CDE90A34CDE9123400233E
:105060001A4C4FF0000ACDE90634D8E44FF0000C9A
:10507000B1E400BFAFF30080FE822B654715973C7B
:1050800000000000432EE63FEF39FAFE422EE63FD5
:10509000396CA80C615C20BED0A4BE726937663E34
:1050A000F16BD2C541BDBB3E2CDE25AF6A56113F28
:1050B00093BDBE166CC1663F3E5555555555C53F0F
:1050C00059F3F8C21F6EA5010000F0BF0000F03FC9
:1050D000FFFF8F40FFFF0F0000346F3FFFCB90407A
:1050E0009C42FFF67FAF7E4B9C423FF71DACDDE953
:1050F000000100227A4B01F08DFB6BA3D3E9002362
:1051000004460D4601F03EFD69A3D3E90023824623
:105110008B462046294601F035FD0022804689460F
:10512000204629466F4B01F02DFD02460B4662A139
:10513000D1E9000101F06EFB22462B4601F022FD71
:1051400002460B460020684901F064FB22462B46CC
:1051500004460D461046194601F014FD02460B4662
:105160002046294601F00EFD55A3D3E9002301F0A6
:1051700009FD02460B464046494601F04BFB80467E
:1051800089465046594642464B46002401F044FBAE
:1051900052465B4620460D4601F03CFB02460B465C
:1051A0004046494601F036FB82468B46CFE55246E3
:1051B0005B4600204A4901F00FFECDE90001FFF7F0
:1051C00045BB524650465B46594601F0DBFCCDE9F3
:1051D0000001FFF73BBB002A41D1C1F1140145FAA0
:1051E00001F000FA01F1A94255D00292FFF70DBB80
:1051F0003D4A934256DCDDE9001200910C9139E6FC
:1052000031A3D3E90023DDE9020101F0BBFC2EA3A9
:10521000D3E9002301F0B6FCCDE90001FFF716BB8E
:10522000029B012B7FF412ABDDE90045224605F11C
:105230000043CDE90023FFF709BB25A4D4E90034DE
:10524000CDE90A3424A4D4E90034CDE91234002392
:10525000264C4FF4802ACDE90634FFF7E0BB5046D8
:105260005946029301F03AF9029BCDE90001002B67
:105270007FF486AB0293FFF71BBB0C9A01F04CFA4C
:10528000A9E600F00100C0F102010291002A3FF4FA
:10529000BCAAFFF704BB00F00100C0F102020292B9
:1052A000FFF7B3BA1B15B3E5000000604715F73FE1
:1052B00044DF5DF80BAE543E555555555555D53F19
:1052C000FE822B654715F73F9C7500883CE4377ECE
:1052D0000000004003B8E23F06D0CF43EBFD4C3E58
:1052E0000000F03F0000D03F0000E03F0000F83F2A
:1052F0002DE9F04F8C4F21F00045BD421446064683
:105300008DB040F38680894A8B46954227DC7CA38A
:10531000D3E90023002940F3B88101F07BFA844BE4
:1053200006469D420F4600F08B8077A3D3E9002309
:1053300001F070FA02460B463046C4E900233946B4
:1053400001F068FA70A3D3E9002301F063FA4FF08B
:10535000010AC4E9020150460DB0BDE8F08F754A5C
:10536000954240F38E80744A95425EDC4FEA255A9E
:10537000AAF2164AA5EB0A510F4601F0B3FE01F05E
:1053800097FB804689463046394642464B46CDE932
:10539000068901F03FFA0022684B01F0F3FB0F464B
:1053A000064601F09FFE054601F082FB02460B46D1
:1053B00030463946CDE9082301F02CFA00225F4B34
:1053C00001F0E0FB02460B46CDE90A230022002350
:1053D00001F040FE002800F05681002D0CBF012393
:1053E0000223022056495246CDE90001214606A873
:1053F00000F08EFBBBF1000F8246ACDA6268E36816
:1054000002F1004203F10043C0F1000A6260E36070
:10541000A1E74FF0000A00220023C4E90001504632
:10542000C4E902230DB0BDE8F08F02465B4601F0EF
:10543000F1F94FF0000AC4E90201C4E900018AE76A
:1054400033A3D3E9002301F0E5F933A3D3E9002323
:1054500006460F4601F0DEF902460B463046C4E927
:105460000023394601F0D6F92BA3D3E9002301F03C
:10547000D1F94FF0010AC4E9020150460DB0BDE870
:10548000F08F01F02BF826A3D3E9002306460F4640
:1054900001F078FB00222B4B01F0BEF901F022FE57
:1054A000824601F005FB16A3D3E900238046894616
:1054B000CDE9048901F066FB02460B4630463946C9
:1054C00001F0A8F910A3D3E9002306460F46404691
:1054D0004946B046B946CDE9028901F053FBBAF11D
:1054E0001F0F06460F4631DC174B0AF1FF3253F807
:1054F0002230AB422AD002460B46404649469EE047
:1055000000004054FB21F93F3163621A61B4D03D81
:105510000000601A61B4D03D7370032E8A19A33B5A
:1055200083C8C96D305FE43FFB21E93F7BD902406E
:10553000FB21F93FFB213941FFFFEF7F0000704164
:10554000948E0A080000E03F148E0A083B46DDE90D
:105550000201324601F05EF9C1F30A53C3EB155361
:10556000102B894680464FEA25556CDD66A3D3E9AA
:105570000023DDE9040101F005FB06460F46DDE9E5
:10558000020132463B4601F045F980468946DDE995
:10559000020142464B4601F03DF932463B4601F0DE
:1055A00039F95BA3D3E9002306460F46DDE9040180
:1055B00001F0E8FA32463B4601F02CF906460F4668
:1055C000404649463B463246CDE9028901F022F980
:1055D000C1F30A53ED1A312D8946804633DD4EA3BF
:1055E000D3E90023DDE9040101F0CCFADDE902563C
:1055F00080468946424631464B46284601F00AF924
:1056000002460B4628463146CDE9022301F002F955
:1056100042464B4601F0FEF841A3D3E9002306467B
:105620000F46DDE9040101F0ADFA32463B4601F0D8
:10563000F1F806460F46DDE9020132463B4601F02D
:10564000E9F880468946DDE9020142464B46C4E955
:10565000002301F0DFF832463B4601F0DBF802465A
:105660000B46BBF1000F0546C4E90223BFF673AE3B
:1056700009F1004301F10041C4E90083C4E902518A
:10568000CAF1000A67E60323ABE601F0C5F8284B30
:1056900006469D420F4616D023A3D3E9002301F00E
:1056A000BBF802460B463046C4E90023394601F0F8
:1056B000B1F81DA3D3E9002301F0AEF84FF0FF3A93
:1056C000C4E9020147E610A3D3E9002301F0A4F8DE
:1056D0000FA3D3E9002306460F4601F09DF80246CA
:1056E0000B463046C4E90023394601F093F808A37D
:1056F000D3E9002301F090F84FF0FF3AC4E902012A
:1057000029E600BFAFF300800000601A61B4D03D0D
:105710007370032E8A19A33B0000002E8A19A33B45
:10572000C14920259A837B393163621A61B4D03D27
:10573000FB21F93F604A2DE9F0418A430E460546B8
:1057400000F0978000290B4604464EDD09155AD01B
:10575000C3F31303CA0743F48013A1F2FF3E03D43B
:105760005B0003EBD47364004FF0000C1625664613
:105770004FF40012E10F4FEA6E0E01EB4303640099
:10578000B118994202DC5B1A8E1894445B00013D0B
:1057900003EBD4734FEA52024FEA4404F0D12F4690
:1057A00020204FF0004209E03DD0E10F01384FEAE0
:1057B000520201EB43034FEA44043DD0B34202EBF3
:1057C0000501F1DD002901EB020509DBB0469B1B59
:1057D000A14288BF03F1FF334646641A1744E4E749
:1057E000002DF3DB06F10108F1E721F0004202434E
:1057F00057D000294BD1E20A134615396405002A17
:10580000F9D0D70252D400205B00DE02054600F139
:105810000100F9D51A4623468440C0F12000C34058
:105820001343491B94E7A142BFD8002901EB0205AD
:10583000D6DB98460023CFE7234313D178084FEAFD
:105840006C0303F17F5303F500131CF0010F18BF25
:1058500040F0004003EB0E5502462B461046194619
:10586000BDE8F0817B1C16BF781C0CF1010C4008D0
:10587000E5E702460B4601F085F92A46334600F07B
:10588000CBFF02460B4610461946BDE8F0810246A2
:1058900000F0C0FF02460B4601F09EFA02460B469E
:1058A000DCE7024619461046BDE8F0812346202079
:1058B0004FF0FF35B3E700BF0000F07F00000000AD
:1058C0002DE9F04D21F0004786B0B7F1795F8846A9
:1058D0000646CDE900236CDA01F004FC002800F054
:1058E000ED80324643463046414601F04BF976A3FF
:1058F000D3E9002304460D4601F044F974A3D3E92B
:10590000002300F089FF22462B4601F03BF972A3E9
:10591000D3E9002300F07EFF22462B4601F032F946
:105920006FA3D3E9002300F077FF22462B4601F056
:1059300029F96DA3D3E9002300F06CFF22462B4622
:1059400001F020F96AA3D3E9002300F065FF2246A5
:105950002B4601F017F9CDE9020100222046294625
:10596000654B01F00FF9DDE9022382468B462046A4
:10597000294601F007F932460F46064641461046D1
:10598000DDE9002301F0FEF802460B4630463946B9
:1059900000F040FF02460B465046594600F03AFFE1
:1059A00002460B460020554900F034FF06B0BDE822
:1059B000F08D02460B4601F0E5F843A3D3E900233E
:1059C00004460D4601F0DEF841A3D3E9002300F0C0
:1059D00023FF22462B4601F0D5F83FA3D3E900234D
:1059E00000F018FF22462B4601F0CCF83CA3D3E987
:1059F000002300F011FF22462B4601F0C3F83AA322
:105A0000D3E9002300F006FF22462B4601F0BAF846
:105A100037A3D3E9002300F0FFFE2B46224601F016
:105A2000B1F8374BCDE902019F4296DD354B9F42DD
:105A30003BDC4FF0000AA7F5001B002052465B46F6
:105A40002E4900F0E7FECDE9040100222046294658
:105A5000294B01F097F852465B4600F0DBFEDDE98A
:105A6000022382468B462046294601F08BF83246B7
:105A70000F46064641461046DDE9002301F082F854
:105A800002460B463046394600F0C4FE02460B463D
:105A90005046594600F0BEFE02460B46DDE90401C1
:105AA00000F0B8FE06B0BDE8F08D0022164B4FF0B6
:105AB000000ACDE90423DFF854B0C6E700200F49FF
:105AC00006B0BDE8F08D00BFD43888BEE9FAA8BDA5
:105AD000C4B1B4BD9EEE213EAD529C804F7E923E3D
